:020000040800F2
:1000000000800120A1020108655400087354000813
:10001000795400087F54000885540008000000004F
:100020000000000000000000000000008B540008E9
:100030009954000800000000A7540008B5540008B7
:10004000F1020108F1020108F1020108F1020108C0
:10005000F1020108F1020108F1020108F1020108B0
:10006000F1020108F1020108C5540008F10201087B
:10007000F1020108F1020108F1020108F102010890
:10008000F1020108F1020108F1020108000000007C
:10009000000000000000000000000000D354000831
:1000A000F1020108F1020108F1020108F102010860
:1000B000F1020108F1020108F1020108F102010850
:1000C000F1020108F1020108F1020108F102010840
:1000D000F1020108F1020108E154000800000000EB
:1000E000F1020108F1020108F1020108000000001C
:1000F000000000000000000000000000F102010804
:1001000000000000F1020108F1020108F1020108FB
:1001100000000000000000000000000000000000DF
:10012000F554000809550008F1020108F102010820
:10013000F1020108000000000000000000000000C3
:10014000000000000000000000000000F1020108B3
:10015000F10201081D550008F1020108315500089F
:10016000F1020108F1020108000000000000000097
:10017000000000000000000000000000000000007F
:1001800000000000F1020108000000000000000073
:04019000F10201086F
:1001A00010B5054C237833B9044B13B10448AFF3B1
:1001B00000800123237010BD7003002000000000A8
:1001C0009C13010808B5034B1BB103490348AFF367
:1001D000008008BD00000000740300209C1301088B
:1001E00001F0FF01102A2BDB10F0070F08D010F8E8
:1001F000013B013A8B422DD010F0070F42B3F6D1EC
:10020000F0B441EA012141EA014122F007047FF004
:1002100000070023F0E80256083C85EA010586EA5B
:10022000010685FA47F5A3FA87F586FA47F6A5FA97
:1002300087F68EB9EED1F0BC01F0FF0102F00702A3
:1002400032B110F8013B013A83EA010313B1F8D14E
:100250000020704701387047002D06BF354603382F
:10026000073815F0010F07D1013015F4807F02BF68
:10027000013015F4C03F0130F0BC0138704700BFB9
:1002800053B94AB9002908BF00281CBF4FF0FF31FD
:100290004FF0FF3000F07AB9ADF1080C6DE904CEF3
:1002A00000F006F8DDF804E0DDE9022304B0704751
:1002B0002DE9F0478C460D460446089E002B51D18F
:1002C0008A4217466DD9B2FA82FEBEF1000F0BD0FA
:1002D000CEF1200C01FA0EF520FA0CFC02FA0EF712
:1002E0004CEA050C00FA0EF44FEA174A250CBCFB49
:1002F000FAF81FFA87F90AFB18CC45EA0C4508FB07
:1003000009F3AB420AD9ED1908F1FF3280F02381DD
:10031000AB4240F22081A8F102083D44ED1AA4B29C
:10032000B5FBFAF00AFB105544EA054400FB09F955
:10033000A14509D9E41900F1FF3380F00A81A145F4
:1003400040F2078102383C44A4EB090440EA08402B
:100350000021002E61D024FA0EF400233460736073
:10036000BDE8F0878B4207D9002E54D0002186E8E3
:1003700021000846BDE8F087B3FA83F1002940F078
:100380008E80AB4202D3824200F2FA80841A65EB7F
:1003900003050120AC46002E3FD086E81010BDE8D2
:1003A000F08712B90127B7FBF2F7B7FA87FEBEF163
:1003B000000F34D1EB1B3A0C1FFA87FC0121B3FB71
:1003C000F2F8250C02FB183345EA03450CFB08F351
:1003D000AB4207D9ED1908F1FF3002D2AB4200F26F
:1003E000D1808046ED1AA3B2B5FBF2F002FB1055A6
:1003F00043EA05440CFB00FCA44507D9E41900F1CD
:10040000FF3302D2A44500F2B8801846A4EB0C04D6
:1004100040EA08409DE731463046BDE8F087CEF11E
:10042000200405FA0EF307FA0EF720FA04F83A0C46
:1004300025FA04F448EA0308B4FBF2F14FEA184540
:1004400002FB11441FFA87FC45EA044501FB0CF34B
:10045000AB4200FA0EF409D9ED1901F1FF3080F03A
:100460008A80AB4240F2878002393D44EB1A1FFA82
:1004700088F5B3FBF2F002FB103345EA034500FBBD
:100480000CF3AB4207D9ED1900F1FF386FD2AB4244
:100490006DD902383D44EB1A40EA01418FE7C1F1C2
:1004A000200722FA07F88B4005FA01F448EA030313
:1004B00020FA07FE4FEA134CFD404EEA040EB5FB4E
:1004C000FCF94FEA1E440CFB19551FFA83F844EA65
:1004D000054509FB08F4AC4202FA01F200FA01FA00
:1004E00008D9ED1809F1FF3043D2AC4241D9A9F146
:1004F00002091D442D1B1FFA8EFEB5FBFCF00CFB00
:1005000010554EEA054400FB08F8A04507D9E41849
:1005100000F1FF3529D2A04527D902381C4440EA12
:100520000940A4EB0804A0FB02894C45C6464D4691
:1005300015D312D056B1BAEB0E0364EB050404FADE
:1005400007F7CB401F43CC40376074600021BDE803
:10055000F0871846F8E69046E0E6C245EAD2B8EBE6
:10056000020E69EB03050138E4E72846D7E7404669
:1005700091E78146BEE7014678E702383C4445E70B
:10058000084608E7A8F102083D442BE7704700BF82
:1005900080B500AF0E4A0E4B1B6843F40073136026
:1005A0000B4A0B4B1B6843F480631360084A084BEB
:1005B0001B6843F480731360032000F05BFD002090
:1005C00000F008F804F0FCFE0023184680BD00BFD0
:1005D000003C024080B582B000AF7860124B1A68D0
:1005E000124B1B7819464FF47A73B3FBF1F3B2FB4D
:1005F000F3F3184600F073FD0346002B01D00123EE
:100600000EE07B680F2B0AD8002279684FF0FF308C
:1006100000F03BFD064A7B681360002300E00123E5
:1006200018460837BD4680BD2C000020040000207D
:100630000000002080B400AF064B1B781A46064B22
:100640001B681344044A136000BFBD465DF8047B79
:10065000704700BF04000020F408002080B400AF01
:10066000034B1B681846BD465DF8047B704700BF0E
:10067000F408002080B584B000AF7860FFF7EEFF8B
:10068000B8607B68FB60FB68B3F1FF3F05D0094BA6
:100690001B781A46FB681344FB6000BFFFF7DEFFC0
:1006A0000246BB68D21AFB689A42F7D300BF1037E4
:1006B000BD4680BD0400002080B584B000AF7860E6
:1006C0000023FB737B68002B01D1012333E07B689F
:1006D0001B6C002B09D17B6800225A647B680022C6
:1006E00083F83C20786804F0F7F87B681B6C03F013
:1006F0001003002B18D17B681B6C23F4885323F064
:10070000020343F002027B681A64786800F076FA0C
:100710007B6800225A647B681B6C23F0030343F060
:1007200001027B681A6401E00123FB737B680022ED
:1007300083F83C20FB7B18461037BD4680BD000087
:1007400080B586B000AFF860B9607A6000233B6185
:10075000FB6893F83C30012B01D10223B0E0FB6829
:10076000012283F83C20FB681B689B6803F00103AF
:10077000012B18D0FB681B68FA681268926842F077
:1007800001029A60504B1B68504AA2FB03239A0C4B
:1007900013465B0013443B6102E03B69013B3B6154
:1007A0003B69002BF9D1FB681B689B6803F00103D0
:1007B000002B00F08480FB681B6C23F4E06323F0C3
:1007C000010343F48072FB681A64FB681B685B6872
:1007D00003F48063002B07D0FB681B6C23F44053A9
:1007E00043F48052FB681A64FB681B6C03F480536B
:1007F000002B06D0FB685B6C23F00602FB685A6492
:1008000002E0FB6800225A64FB68002283F83C2067
:100810002F4B7B61FB689B6B2E4ADA63FB689B6BFB
:100820002D4A1A64FB689B6B2C4ADA64FB681B68D0
:100830006FF022021A60FB681B68FA68126852683F
:1008400042F080625A60FB681B68FA68126892681E
:1008500042F480729A60FB68986BFB681B684C33AB
:100860001946BA687B6800F01FFD7B695B6803F07E
:100870001F03002B0FD1FB681B689B6803F04053DC
:10088000002B1CD1FB681B68FA681268926842F062
:1008900080429A6013E0FB681B68114A93420ED1B4
:1008A000FB681B689B6803F04053002B07D1FB6873
:1008B0001B68FA681268926842F080429A600023CE
:1008C00018461837BD4680BD2C00002083DE1B4330
:1008D00000230140F10D0008970E0008B30E000838
:1008E0000020014080B584B000AF78600023FB7326
:1008F0007B6893F83C30012B01D1022338E07B6800
:10090000012283F83C207B681B687A681268926831
:1009100022F001029A607B681B689B6803F0010368
:10092000002B20D17B681B687A681268926822F4D9
:1009300080729A607B689B6B184600F015FD034639
:10094000FB737B681B687A681268526822F08062C9
:100950005A607B681B6C23F4885323F0010343F037
:1009600001027B681A647B68002283F83C20FB7BD1
:1009700018461037BD4680BD80B483B000AF7860A4
:1009800000BF0C37BD465DF8047B704780B483B070
:1009900000AF786000BF0C37BD465DF8047B704740
:1009A00080B483B000AF786000BF0C37BD465DF8FF
:1009B000047B704790B484B000AF78603960002346
:1009C000BB607B6893F83C30012B01D1022307E127
:1009D0007B68012283F83C203B681B68092B26D9E1
:1009E0007B681A687B681B68D9683B681B689BB288
:1009F000184603465B0003441E3B072000FA03F33E
:100A0000DB430B40D3607B681A687B681B68D9683E
:100A10003B6898683B681B689BB21C4623465B009A
:100A200023441E3B00FA03F30B43D36023E07B68AF
:100A30001A687B681B6819693B681B689BB218467B
:100A400003465B000344072000FA03F3DB430B403B
:100A500013617B681A687B681B6819693B68986832
:100A60003B681B689BB21C4623465B00234400FA8C
:100A700003F30B4313613B685B68062B24D87B6848
:100A800019687B681B68586B3B685A6813469B0063
:100A90001344053B1F2202FA03F3DB4303404B637D
:100AA0007B6819687B681B68586B3B681B689BB246
:100AB0001C463B685A6813469B001344053B04FAE6
:100AC00003F303434B634CE03B685B680C2B24D877
:100AD0007B6819687B681B68186B3B685A6813460B
:100AE0009B001344233B1F2202FA03F3DB43034022
:100AF0000B637B6819687B681B68186B3B681B6815
:100B00009BB21C463B685A6813469B001344233B28
:100B100004FA03F303430B6323E07B6819687B68E3
:100B20001B68D86A3B685A6813469B001344413BD4
:100B30001F2202FA03F3DB430340CB627B68196890
:100B40007B681B68D86A3B681B689BB21C463B6885
:100B50005A6813469B001344413B04FA03F30343D2
:100B6000CB62224BFB607B681B68214A934209D110
:100B70003B681B68122B05D1FB685B6843F480025D
:100B8000FB685A607B681B68194A934223D13B6813
:100B90001B68102B03D03B681B68112B1BD1FB6813
:100BA0005B6843F40002FB685A603B681B68102BCB
:100BB00011D1104B1B68104AA2FB03239A0C134659
:100BC0009B0013445B00BB6002E0BB68013BBB6061
:100BD000BB68002BF9D17B68002283F83C200023FE
:100BE00018461037BD4690BC704700BF0023014037
:100BF000002001402C00002083DE1B4380B485B020
:100C000000AF7860784BFB60FB685B6823F4403290
:100C1000FB685A60FB685A687B685B681A43FB682C
:100C20005A607B681B687A681268526822F4807286
:100C30005A607B681B687A68126851687A68126922
:100C400012020A435A607B681B687A68126852680D
:100C500022F040725A607B681B687A68126851689B
:100C60007A6892680A435A607B681B687A681268DF
:100C7000926822F400629A607B681B687A68126846
:100C800091687A68D2680A439A607B689B6A574A7F
:100C9000934222D07B681B687A681268926822F0BF
:100CA00070629A607B681B687A68126891687A68DB
:100CB000926A0A439A607B681B687A681268926835
:100CC00022F040529A607B681B687A6812689168CB
:100CD0007A68D26A0A439A600FE07B681B687A6878
:100CE0001268926822F070629A607B681B687A686A
:100CF0001268926822F040529A607B681B687A689A
:100D00001268926822F002029A607B681B687A6817
:100D1000126891687A68926952000A439A607B6807
:100D20001B6A002B1BD07B681B687A6812685268AC
:100D300042F400625A607B681B687A6812685268E5
:100D400022F460425A607B681B687A6812685168B6
:100D50007A68526A013A52030A435A6007E07B6894
:100D60001B687A681268526822F400625A607B68D5
:100D70001B687A681268D26A22F47002DA627B68B1
:100D80001B687A681268D16A7A68D269013A1205DA
:100D90000A43DA627B681B687A681268926822F4F8
:100DA00000729A607B681B687A68126891687A683A
:100DB000126B52020A439A607B681B687A68126859
:100DC000926822F480629A607B681B687A68126875
:100DD00091687A68526992020A439A6000BF143798
:100DE000BD465DF8047B7047002301400100000F01
:100DF00080B584B000AF78607B689B6BFB60FB685C
:100E00001B6C03F05003002B3CD1FB681B6C43F4BC
:100E10000072FB681A64FB681B689B6803F0405310
:100E2000002B2BD1FB689B69002B27D1FB681B682B
:100E3000DB6A03F47003002B06D0FB681B689B6819
:100E400003F48063002B19D1FB681B68FA681268F1
:100E5000526822F020025A60FB681B6C23F48072F7
:100E6000FB681A64FB681B6C03F48053002B05D1EC
:100E7000FB681B6C43F00102FB681A64F868FFF71B
:100E80007BFD04E0FB689B6BDB6C7868984700BFD8
:100E90001037BD4680BD80B584B000AF78607B68F8
:100EA0009B6BFB60F868FFF771FD00BF1037BD4614
:100EB00080BD80B584B000AF78607B689B6BFB60C1
:100EC000FB6840221A64FB685B6C43F00402FB6819
:100ED0005A64F868FFF764FD00BF1037BD4680BD57
:100EE00080B485B000AF78607B6803F00703FB60D7
:100EF0000C4BDB68BB60BA684FF6FF031340BB6066
:100F0000FB681A02BB68134343F0BF6343F400332A
:100F1000BB60044ABB68D36000BF1437BD465DF8B0
:100F2000047B704700ED00E080B400AF044BDB6849
:100F30001B0A03F007031846BD465DF8047B7047A3
:100F400000ED00E080B483B000AF0346FB710949B7
:100F500097F907305B09FA7902F01F02012000FAC5
:100F600002F241F8232000BF0C37BD465DF8047B38
:100F7000704700BF00E100E080B483B000AF0346DB
:100F80003960FB7197F90730002B0BDA0D49FB79BB
:100F900003F00F03043B3A68D2B21201D2B20B4401
:100FA0001A7609E0084997F907303A68D2B2120177
:100FB000D2B20B4483F8002300BF0C37BD465DF866
:100FC000047B704700ED00E000E100E080B489B0F0
:100FD00000AFF860B9607A60FB6803F00703FB615B
:100FE000FB69C3F10703042B28BF0423BB61FB6922
:100FF0000433062B02D9FB69033B00E000237B612D
:101000000122BB6902FA03F35A1EBB681A407B69CE
:101010009A4001217B6901FA03F3591E7B680B405A
:10102000134318462437BD465DF8047B7047000023
:1010300080B582B000AF78607B68013BB3F1807F00
:1010400001D301230FE00A4A7B68013B53600F2163
:101050004FF0FF30FFF790FF054B00229A60044BE2
:1010600007221A60002318460837BD4680BD00BF1E
:1010700010E000E080B582B000AF78607868FFF7DC
:101080002FFF00BF0837BD4680BD80B586B000AFDA
:101090000346B9607A60FB7300237B61FFF744FF6E
:1010A00078617A68B9687869FFF790FF024697F926
:1010B0000F3011461846FFF75FFF00BF1837BD46D7
:1010C00080BD80B582B000AF0346FB7197F9073051
:1010D0001846FFF737FF00BF0837BD4680BD80B513
:1010E00082B000AF78607868FFF7A2FF0346184629
:1010F0000837BD4680BD000080B483B000AF786083
:101100007B68042B06D1094A084B1B6843F0040393
:10111000136005E0054A054B1B6823F004031360C8
:1011200000BF0C37BD465DF8047B704710E000E05F
:1011300080B500AF00F002F800BF80BD80B400AF02
:1011400000BFBD465DF8047B7047000080B586B0E7
:1011500000AF786000237B61FFF780FA38617B681D
:10116000002B01D1012399E07B68002283F8342011
:101170007B68022283F835207B681B687A681268D6
:10118000126822F001021A600FE0FFF767FA0246C8
:101190003B69D31A052B08D97B6820225A657B68E6
:1011A000032283F83520032378E07B681B681B68E3
:1011B00003F00103002BE8D17B681B681B687B618F
:1011C0007A69384B13407B617B685A687B689B68FF
:1011D0001A437B68DB681A437B681B691A437B6888
:1011E0005B691A437B689B691A437B68DB691A4316
:1011F0007B681B6A13437A6913437B617B685B6A74
:10120000042B07D17B68DA6A7B681B6B13437A690E
:1012100013437B617B681B687A691A607B681B6873
:101220005B697B617B6923F007037B617B685B6A99
:101230007A6913437B617B685B6A042B17D17B68F7
:101240009B6A7A6913437B617B68DB6A002B0ED053
:10125000786800F009FB0346002B08D07B68402229
:101260005A657B68012283F83520012316E07B68EC
:101270001B687A695A61786800F0C0FA0346FB601F
:101280007B68DB6D3F229A40FB689A607B68002296
:101290005A657B68012283F83520002318461837E9
:1012A000BD4680BD3F8010F080B586B000AFF860CD
:1012B000B9607A603B600023FB75FB689B6D3B6106
:1012C000FB6893F83430012B01D1022348E0FB681E
:1012D000012283F83420FB6893F83530DBB2012B10
:1012E00037D1FB68022283F83520FB6800225A655B
:1012F0003B687A68B968F86800F052FAFB68DB6D01
:101300003F229A403B699A60FB681B68FA68126842
:10131000126842F016021A60FB681B68FA681268CD
:10132000526942F080025A61FB681B6C002B07D0A7
:10133000FB681B68FA681268126842F008021A60BB
:10134000FB681B68FA681268126842F001021A60B2
:1013500005E0FB68002283F834200223FB75FB7D47
:1013600018461837BD4680BD80B584B000AF7860A0
:101370007B689B6DFB60FFF771F9B8607B6893F841
:101380003530DBB2022B08D07B6880225A657B683F
:10139000002283F83420012352E07B681B687A68BE
:1013A0001268126822F016021A607B681B687A685D
:1013B0001268526922F080025A617B681B6C002B14
:1013C00003D17B689B6C002B07D07B681B687A6815
:1013D0001268126822F008021A607B681B687A683B
:1013E0001268126822F001021A6013E0FFF736F962
:1013F0000246BB68D31A052B0CD97B6820225A659C
:101400007B68002283F834207B68032283F8352030
:10141000032315E07B681B681B6803F00103002BA6
:10142000E4D17B68DB6D3F229A40FB689A607B6861
:10143000002283F834207B68012283F835200023C2
:1014400018461037BD4680BD80B483B000AF7860C9
:101450007B6893F83530DBB2022B04D07B688022A6
:101460005A6501230CE07B68052283F835207B68F0
:101470001B687A681268126822F001021A60002361
:1014800018460C37BD465DF8047B704780B586B0C2
:1014900000AF78600023BB60924B1B68924AA2FBAE
:1014A00003239B0A7B617B689B6D3B613B691B68E7
:1014B000FB607B68DB6D08229A40FB681340002BC1
:1014C0001AD07B681B681B6803F00403002B13D041
:1014D0007B681B687A681268126822F004021A603E
:1014E0007B68DB6D08229A403B699A607B685B6D84
:1014F00043F001027B685A657B68DB6D01229A40EC
:10150000FB681340002B12D07B681B685B6903F0FB
:101510008003002B0BD07B68DB6D01229A403B6976
:101520009A607B685B6D43F002027B685A657B685A
:10153000DB6D04229A40FB681340002B12D07B68BD
:101540001B681B6803F00203002B0BD07B68DB6D6C
:1015500004229A403B699A607B685B6D43F0040209
:101560007B685A657B68DB6D10229A40FB681340EC
:10157000002B43D07B681B681B6803F00803002B1B
:101580003CD07B68DB6D10229A403B699A607B6897
:101590001B681B6803F48023002B18D07B681B6832
:1015A0001B6803F40023002B08D17B681B6C002B05
:1015B00024D07B681B6C786898471FE07B689B6C25
:1015C000002B1BD07B689B6C7868984716E07B6883
:1015D0001B681B6803F48073002B07D17B681B68B2
:1015E0007A681268126822F008021A607B681B6C25
:1015F000002B03D07B681B6C786898477B68DB6D99
:1016000020229A40FB681340002B00F08E807B68FC
:101610001B681B6803F01003002B00F086807B68BA
:10162000DB6D20229A403B699A607B6893F83530E5
:10163000DBB2052B36D17B681B687A6812681268AA
:1016400022F016021A607B681B687A681268526979
:1016500022F080025A617B681B6C002B03D17B68EF
:101660009B6C002B07D07B681B687A681268126835
:1016700022F008021A607B68DB6D3F229A403B69CA
:101680009A607B68002283F834207B68012283F80B
:1016900035207B681B6D002B7DD07B681B6D7868C7
:1016A000984778E07B681B681B6803F48023002B55
:1016B0001CD07B681B681B6803F40023002B08D137
:1016C0007B685B6C002B30D07B685B6C78689847DC
:1016D0002BE07B68DB6B002B27D07B68DB6B7868AB
:1016E000984722E02C000020B5814E1B7B681B68C8
:1016F0001B6803F48073002B0FD17B681B687A682A
:101700001268126822F010021A607B68002283F8C7
:1017100034207B68012283F835207B68DB6B002B4B
:1017200003D07B68DB6B786898477B685B6D002B28
:1017300032D07B685B6D03F00103002B22D07B6805
:10174000052283F835207B681B687A681268126866
:1017500022F001021A60BB680133BB607A699342D0
:1017600007D87B681B681B6803F00103002BF2D1CC
:1017700000E000BF7B68002283F834207B680122F0
:1017800083F835207B68DB6C002B05D07B68DB6C35
:101790007868984700E000BF1837BD4680BD00BF9D
:1017A00080B485B000AFF860B9607A603B60FB68D8
:1017B0001B68FA681268126822F480221A60FB68BB
:1017C0001B683A685A60FB689B68402B08D1FB682D
:1017D0001B687A689A60FB681B68BA68DA6007E081
:1017E000FB681B68BA689A60FB681B687A68DA60F5
:1017F00000BF1437BD465DF8047B704780B485B0E8
:1018000000AF78607B681B68DBB2103B144AA2FB18
:1018100003231B09FB60134AFB6813441B781A4619
:101820007B68DA65FB68032B09D97B681B6823F4A6
:101830007F7323F003031A1D7B689A6507E07B68BA
:101840001B6823F47F7323F003037A6893657B6836
:101850009B6D18461437BD465DF8047B704700BF8A
:10186000ABAAAAAA5416010880B485B000AF78606C
:101870000023FB737B689B6ABB607B689B69002BC2
:101880001FD1BB68032B55D801A252F823F000BF2B
:10189000A1180008B3180008A1180008351900089D
:1018A0007B68DB6A03F08073002B45D00123FB7358
:1018B00042E07B68DB6AB3F1C07F3FD10123FB7359
:1018C0003CE07B689B69B3F5005F21D1BB68032BCB
:1018D00036D801A252F823F0E9180008EF180008E2
:1018E000E9180008011900080123FB732FE07B6849
:1018F000DB6A03F08073002B24D00123FB7321E00B
:101900007B68DB6AB3F1C07F1ED10123FB731BE050
:10191000BB68022B02D9032B03D018E00123FB7311
:1019200015E07B68DB6A03F08073002B0ED0012387
:10193000FB730BE000BF0AE000BF08E000BF06E059
:1019400000BF04E000BF02E000BF00E000BFFB7B7F
:1019500018461437BD465DF8047B704780B489B0E3
:1019600000AF7860396000237B6100233B61002376
:10197000BB610023FB6159E10122FB6902FA03F319
:101980007B613B681A687B6913403B613A697B69FC
:101990009A4240F048813B685B68022B03D03B6869
:1019A0005B68122B23D1FB69DA087B68083253F895
:1019B0002230BB61FB6903F007039B000F2202FA90
:1019C00003F3DB43BA691340BB613B681A69FB69E7
:1019D00003F007039B0002FA03F3BA691343BB61E8
:1019E000FB69DA087B680832B96943F822107B6822
:1019F0001B68BB61FB695B00032202FA03F3DB4354
:101A0000BA691340BB613B685B6803F00302FB6982
:101A10005B0002FA03F3BA691343BB617B68BA69DE
:101A20001A603B685B68012B0BD03B685B68022B3C
:101A300007D03B685B68112B03D03B685B68122BB7
:101A400030D17B689B68BB61FB695B00032202FAB3
:101A500003F3DB43BA691340BB613B68DA68FB6997
:101A60005B0002FA03F3BA691343BB617B68BA698E
:101A70009A607B685B68BB610122FB6902FA03F331
:101A8000DB43BA691340BB613B685B681B0903F029
:101A90000102FB6902FA03F3BA691343BB617B6875
:101AA000BA695A607B68DB68BB61FB695B00032233
:101AB00002FA03F3DB43BA691340BB613B689A68DF
:101AC000FB695B0002FA03F3BA691343BB617B68ED
:101AD000BA69DA603B685B6803F08053002B00F062
:101AE000A2800023FB60564A554B5B6C43F4804355
:101AF0005364534B5B6C03F48043FB60FB68514AB7
:101B0000FB699B08023352F82330BB61FB6903F089
:101B100003039B000F2202FA03F3DB43BA6913406D
:101B2000BB617B68484A934219D07B68474A93421D
:101B300013D07B68464A93420DD07B68454A934256
:101B400007D07B68444A934201D1042308E007236D
:101B500006E0032304E0022302E0012300E0002367
:101B6000FA6902F0030292009340BA691343BB6121
:101B70003449FB699B080233BA6941F82320374B8B
:101B80001B68BB613B69DB43BA691340BB613B68BF
:101B90005B6803F48033002B03D0BA693B691343BD
:101BA000BB612E4ABB6913602C4B5B68BB613B6910
:101BB000DB43BA691340BB613B685B6803F40033E5
:101BC000002B03D0BA693B691343BB61234ABB694D
:101BD0005360224B9B68BB613B69DB43BA6913408E
:101BE000BB613B685B6803F48013002B03D0BA69C8
:101BF0003B691343BB61194ABB699360174BDB68B0
:101C0000BB613B69DB43BA691340BB613B685B68FE
:101C100003F40013002B03D0BA693B691343BB6183
:101C20000E4ABB69D360FB690133FB61FB690F2B73
:101C30007FF6A2AE00BF2437BD465DF8047B704737
:101C40000038024000380140000002400004024019
:101C500000080240000C024000100240003C01401D
:101C600080B483B000AF78600B467B8013467B70F6
:101C70007B78002B03D07A887B689A6103E07B88AD
:101C80001A047B689A6100BF0C37BD465DF8047B7F
:101C9000704780B483B000AF78600B467B807B6870
:101CA0005A697B885A407B685A6100BF0C37BD4631
:101CB0005DF8047B7047000080B582B000AF03463A
:101CC000FB80084B5A69FB881340002B06D0054A5D
:101CD000FB885361FB88184603F01EF800BF0837E5
:101CE000BD4680BD003C014080B584B000AF786047
:101CF0000023FB600023BB607B68002B01D1012324
:101D0000C8E07B6893F83D30DBB2002B06D17B68DE
:101D1000002283F83C20786802F07CFF7B68242254
:101D200083F83D207B681B687A681268126822F08D
:101D300001021A6001F0F6FAB860BB68574AA2FBCC
:101D400003239B0CFB607B681B68FA685A607B6806
:101D50001A687B685B6852498B4202D8FB68013382
:101D600009E0FB684FF4967101FB03F34D49A1FBB9
:101D700003139B09013313627B6819687B685B68F6
:101D8000474A934212D87B685B685B00BA68B2FB33
:101D9000F3F3C3F30B03032B06D97B685B685B008B
:101DA000BA68B2FBF3F345E0042343E07B689B6829
:101DB000002B0FD17B685A6813465B001344BA6846
:101DC000B2FBF3F3C3F30B03002B0CBF012300237F
:101DD000DBB210E07B685A6813469B0013449A00FC
:101DE0001344BA68B2FBF3F3C3F30B03002B0CBF2D
:101DF00001230023DBB2002B01D001231AE07B6812
:101E00009B68002B0AD17B685A6813465B00134419
:101E1000BA68B2FBF3F343F400430BE07B685A6803
:101E200013469B0013449A001344BA68B2FBF3F3C1
:101E300043F44043CB617B681B687A68D1697A6858
:101E4000126A0A431A607B681B687A6811697A68AB
:101E5000D2680A439A607B681B687A6851697A681D
:101E600092690A43DA607B681B687A6812681268B4
:101E700042F001021A607B6800221A647B6820220B
:101E800083F83D207B6800221A637B68002283F878
:101E90003E20002318461037BD4680BD83DE1B431D
:101EA000A0860100D34D621080B588B002AFF86003
:101EB0007A601A460B467B8113463B8100237B6187
:101EC000FEF7CCFB7861FB6893F83D30DBB2202B4A
:101ED00040F0EE807B690093192301227749F8686E
:101EE00000F06CFC0346002B01D00223E1E0FB680C
:101EF00093F83C30012B01D10223DAE0FB68012288
:101F000083F83C20FB681B681B6803F00103012B6E
:101F100007D0FB681B68FA681268126842F0010279
:101F20001A60FB681B68FA681268126822F4006283
:101F30001A60FB68212283F83D20FB68102283F899
:101F40003E20FB6800221A64FB687A685A62FB68CC
:101F50003A895A85FB685A4ADA62FB685B8D9AB205
:101F6000FB681A8579897B693A6AF86800F0DCFABF
:101F70000346002B0FD0FB681B6C042B05D1FB68BC
:101F8000002283F83C20012393E0FB68002283F8C1
:101F90003C2003238DE000233B61FB681B685B69E9
:101FA0003B61FB681B689B693B613B6966E07A6942
:101FB000396AF86800F0C1FC0346002B0FD0FB68BB
:101FC0001B6C042B09D1FB681B68FA681268126845
:101FD00042F400721A6001236BE0032369E0FB689E
:101FE0001A68FB685B6A581CF96848621B781361C1
:101FF000FB685B8D9BB2013B9AB2FB685A85FB681C
:102000001B8D013B9AB2FB681A85FB681B685B69F4
:1020100003F00403042B19D1FB681B8D002B15D092
:10202000FB681A68FB685B6A581CF96848621B7891
:102030001361FB685B8D9BB2013B9AB2FB685A85CA
:10204000FB681B8D013B9AB2FB681A857A69396A75
:10205000F86800F0AFFC0346002B0FD0FB681B6C48
:10206000042B09D1FB681B68FA681268126842F4F5
:1020700000721A6001231CE003231AE0FB681B8D29
:10208000002B94D1FB681B68FA681268126842F44E
:1020900000721A60FB68202283F83D20FB68002252
:1020A00083F83E20FB68002283F83C20002300E0F8
:1020B000022318461837BD4680BD00BF020010003D
:1020C0000000FFFF80B58CB002AFF8607A601A465E
:1020D0000B467B8113463B8100237B62FEF7BEFAF1
:1020E0007862FB6893F83D30DBB2202B40F015821C
:1020F0007B6A0093192301228549F86800F05EFB92
:102100000346002B01D0022308E2FB6893F83C3021
:10211000012B01D1022301E2FB68012283F83C205C
:10212000FB681B681B6803F00103012B07D0FB68E9
:102130001B68FA681268126842F001021A60FB68B4
:102140001B68FA681268126822F400621A60FB6861
:10215000222283F83D20FB68102283F83E20FB6892
:1021600000221A64FB687A685A62FB683A895A85C9
:10217000FB68684ADA62FB685B8D9AB2FB681A8575
:1021800079897B6A3A6BF86800F050FA0346002BB5
:102190000FD0FB681B6C042B05D1FB68002283F871
:1021A0003C200123BAE1FB68002283F83C20032392
:1021B000B4E1FB681B8D002B13D100233B62FB684D
:1021C0001B685B693B62FB681B689B693B623B6AFF
:1021D000FB681B68FA681268126842F400721A60A1
:1021E00088E1FB681B8D012B1BD1FB681B68FA681B
:1021F0001268126822F480621A600023FB61FB6897
:102200001B685B69FB61FB681B689B69FB61FB6981
:10221000FB681B68FA681268126842F400721A6060
:1022200068E1FB681B8D022B1BD1FB681B68FA68F9
:102230001268126822F480621A60FB681B68FA68F0
:102240001268126842F400621A600023BB61FB68E6
:102250001B685B69BB61FB681B689B69BB61BB69F1
:1022600048E1FB681B68FA681268126842F48062F1
:102270001A6000237B61FB681B685B697B61FB68FC
:102280001B689B697B617B6934E1FB681B8D032BB9
:1022900000F2EB80FB681B8D012B27D17A6A396B2A
:1022A000F86800F0C4FB0346002B07D0FB681B6CEA
:1022B000202B01D1032331E101232FE1FB685B6A6D
:1022C000591CFA685162FA6812681269D2B21A701F
:1022D000FB681B8D013B9AB2FB681A85FB685B8D1E
:1022E0009BB2013B9AB2FB685A8503E1FB681B8DE8
:1022F000022B4AD17B6A00933B6B00220649F868A7
:1023000000F05CFA0346002B08D0032306E100BF6F
:10231000020010000000FFFF04000100FB681B68C2
:10232000FA681268126842F400721A60FB685B6A0D
:10233000591CFA685162FA6812681269D2B21A70AE
:10234000FB681B8D013B9AB2FB681A85FB685B8DAD
:102350009BB2013B9AB2FB685A85FB685B6A591CC9
:10236000FA685162FA6812681269D2B21A70FB6890
:102370001B8D013B9AB2FB681A85FB685B8D9BB293
:10238000013B9AB2FB685A85B4E07B6A00933B6BD1
:1023900000226449F86800F011FA0346002B01D0CE
:1023A0000323BBE0FB681B68FA681268126822F41A
:1023B00080621A60FB685B6A591CFA685162FA68AD
:1023C00012681269D2B21A70FB681B8D013B9AB277
:1023D000FB681A85FB685B8D9BB2013B9AB2FB6878
:1023E0005A857B6A00933B6B00224E49F86800F0E7
:1023F000E5F90346002B01D003238FE0FB681B683F
:10240000FA681268126842F400721A60FB685B6A2C
:10241000591CFA685162FA6812681269D2B21A70CD
:10242000FB681B8D013B9AB2FB681A85FB685B8DCC
:102430009BB2013B9AB2FB685A85FB685B6A591CE8
:10244000FA685162FA6812681269D2B21A70FB68AF
:102450001B8D013B9AB2FB681A85FB685B8D9BB2B2
:10246000013B9AB2FB685A8544E07A6A396BF86896
:1024700000F0DDFA0346002B07D0FB681B6C202B15
:1024800001D103234AE0012348E0FB685B6A591C41
:10249000FA685162FA6812681269D2B21A70FB685F
:1024A0001B8D013B9AB2FB681A85FB685B8D9BB262
:1024B000013B9AB2FB685A85FB681B685B6903F0B5
:1024C0000403042B16D1FB685B6A591CFA6851623D
:1024D000FA6812681269D2B21A70FB681B8D013B50
:1024E0009AB2FB681A85FB685B8D9BB2013B9AB27E
:1024F000FB685A85FB681B8D002B7FF4C6AEFB681A
:10250000202283F83D20FB68002283F83E20FB68F0
:10251000002283F83C20002300E0022318462837DD
:10252000BD4680BD0400010080B588B002AFF860F0
:102530007A603B600B467B81FB68DB6A7B617B6971
:10254000042B06D07B69012B03D07B6913F5803FF8
:1025500008D1FB681B68FA681268126842F480723E
:102560001A600BE0FB681B6B122B07D1FB681B6822
:10257000FA681268126842F480721A603B6800932D
:102580007B6800224FF00111F86800F017F903464C
:10259000002B01D0032340E0FB681B69B3F5804F9B
:1025A00007D1FB681B687A89D2B202F0FE021A6179
:1025B00021E0FB681B687A89D211D2B202F00602D0
:1025C000D2B262F00F02D2B21A613B687A68154942
:1025D000F86800F044F90346002B07D0FB681B6C39
:1025E000042B01D1012318E0032316E0FB681B68CC
:1025F0007A89D2B21A613B687A680B49F86800F0B0
:102600002EF90346002B07D0FB681B6C042B01D16D
:10261000012302E0032300E0002318461837BD46DB
:1026200080BD00BF080001000200010080B588B035
:1026300002AFF8607A603B600B467B81FB68DB6A27
:102640007B61FB681B68FA681268126842F480625A
:102650001A607B69042B06D07B69012B03D07B6950
:1026600013F5803F08D1FB681B68FA68126812688E
:1026700042F480721A600BE0FB681B6B112B07D1D0
:10268000FB681B68FA681268126842F480721A606C
:102690003B6800937B6800224FF00111F86800F05E
:1026A0008DF80346002B01D003237FE0FB681B69F4
:1026B000B3F5804F08D1FB681B687A89D2B242F02B
:1026C0000102D2B21A615FE0FB681B687A89D211FD
:1026D000D2B202F00602D2B262F00F02D2B21A6196
:1026E0003B687A683349F86800F0B9F80346002B74
:1026F00007D0FB681B6C042B01D1012356E0032398
:1027000054E0FB681B687A89D2B21A613B687A6828
:102710002949F86800F0A3F80346002B07D0FB68AE
:102720001B6C042B01D1012340E003233EE0002376
:102730003B61FB681B685B693B61FB681B689B69CD
:102740003B613B69FB681B68FA681268126842F4D7
:1027500080721A603B6800937B6800224FF0011181
:10276000F86800F02BF80346002B01D003231DE08E
:10277000FB681B687A89D211D2B202F00602D2B28B
:1027800062F00E02D2B21A613B687A680A49F868B0
:1027900000F065F80346002B07D0FB681B6C042B88
:1027A00001D1012302E0032300E00023184618377B
:1027B000BD4680BD080001000200010080B584B064
:1027C00000AFF860B9603B601346FB711FE03B68E7
:1027D000B3F1FF3F1BD03B68002B07D0FDF73EFF56
:1027E0000246BB69D21A3B689A4210D9FB680022A4
:1027F0001A63FB68202283F83D20FB68002283F8DF
:102800003E20FB68002283F83C20032323E0BB68C2
:102810001B0CDBB2012B0DD1FB681B685B69DA4333
:10282000BB6813409BB2002B0CBF01230023DBB21B
:102830001A460CE0FB681B689B69DA43BB681340CF
:102840009BB2002B0CBF01230023DBB21A46FB799D
:102850009A42BCD0002318461037BD4680BD80B5D3
:1028600084B000AFF860B9607A603B6040E0FB681C
:102870001B685B6903F48063B3F5806F1CD1FB6850
:102880001B68FA681268126842F400721A60FB68EA
:102890001B686FF480625A61FB6804221A64FB684B
:1028A00000221A63FB68202283F83D20FB68002287
:1028B00083F83C2001233CE07B68B3F1FF3F17D055
:1028C0007B68002B07D0FDF7C9FE02463B68D21A91
:1028D0007B689A420CD9FB6800221A63FB682022AD
:1028E00083F83D20FB68002283F83C20032320E08E
:1028F000BB681B0CDBB2012B0CD1FB681B685B694E
:10290000DA43BB6813409BB2002B14BF01230023A2
:10291000DBB20BE0FB681B689B69DA43BB681340C2
:102920009BB2002B14BF01230023DBB2002B9ED1EE
:10293000002318461037BD4680BD80B584B000AF77
:10294000F860B9607A6029E0F86800F0BAF80346E8
:10295000002B01D0012329E0BB68B3F1FF3F1DD05C
:10296000BB68002B07D0FDF779FE02467B68D21AC0
:10297000BB689A4212D9FB681B6C43F02002FB68CB
:102980001A64FB6800221A63FB68202283F83D204A
:10299000FB68002283F83C20032307E0FB681B68E8
:1029A0005B6903F08003802BCED1002318461037DB
:1029B000BD4680BD80B584B000AFF860B9607A6074
:1029C00029E0F86800F07DF80346002B01D00123D0
:1029D00029E0BB68B3F1FF3F1DD0BB68002B07D0D7
:1029E000FDF73CFE02467B68D21ABB689A4212D9B8
:1029F000FB681B6C43F02002FB681A64FB68002232
:102A00001A63FB68202283F83D20FB68002283F8CC
:102A10003C20032307E0FB681B685B6903F00403A9
:102A2000042BCED1002318461037BD4680BD80B59B
:102A300084B000AFF860B9607A6036E0FB681B686C
:102A40005B6903F01003102B14D1FB681B686FF057
:102A500010025A61FB6800221A64FB6800221A63A4
:102A6000FB68202283F83D20FB68002283F83C208D
:102A7000012322E0BB68002B07D0FDF7EFFD0246E3
:102A80007B68D21ABB689A420FD9FB681B6C43F073
:102A90002002FB681A64FB68202283F83D20FB6853
:102AA000002283F83C20032307E0FB681B685B6976
:102AB00003F04003402BC1D1002318461037BD4618
:102AC00080BD80B483B000AF78607B681B685B69B1
:102AD00003F48063B3F5806F14D17B681B686FF4D7
:102AE00080625A617B6804221A647B6800221A6340
:102AF0007B68202283F83D207B68002283F83C20FD
:102B0000012300E0002318460C37BD465DF8047B26
:102B10007047000080B586B000AF78607B68002BFE
:102B200001D101232DE27B681B6803F00103002B18
:102B300075D0A34B9B6803F00C03042B0CD0A04B67
:102B40009B6803F00C03082B12D19D4B5B6803F4C8
:102B50008003B3F5800F0BD1994B1B6803F400334E
:102B6000002B5BD07B685B68002B57D1012308E208
:102B70007B685B68B3F5803F06D1914A904B1B6838
:102B800043F4803313601DE07B685B68B3F5A02FCE
:102B90000CD18B4A8A4B1B6843F480231360884A0C
:102BA000874B1B6843F4803313600BE0844A844BEB
:102BB0001B6823F480331360814A814B1B6823F424
:102BC000802313607B685B68002B13D0FDF746FD04
:102BD000386108E0FDF742FD02463B69D31A642BD9
:102BE00001D90323CDE1764B1B6803F40033002B9E
:102BF000F0D014E0FDF732FD386108E0FDF72EFD5E
:102C000002463B69D31A642B01D90323B9E16C4B0B
:102C10001B6803F40033002BF0D100E000BF7B6899
:102C20001B6803F00203002B63D0654B9B6803F025
:102C30000C03002B0BD0624B9B6803F00C03082B9A
:102C40001CD15F4B5B6803F48003002B16D15C4BF7
:102C50001B6803F00203002B05D07B68DB68012BA7
:102C600001D001238DE15649554B1B6823F0F80232
:102C70007B681B69DB0013430B603AE07B68DB6811
:102C8000002B20D04F4B01221A60FDF7E7FC386182
:102C900008E0FDF7E3FC02463B69D31A022B01D999
:102CA00003236EE1464B1B6803F00203002BF0D0B8
:102CB0004349434B1B6823F0F8027B681B69DB0028
:102CC00013430B6015E03F4B00221A60FDF7C6FC72
:102CD000386108E0FDF7C2FC02463B69D31A022BBB
:102CE00001D903234DE1364B1B6803F00203002B8F
:102CF000F0D17B681B6803F00803002B30D07B68A1
:102D00005B69002B16D0304B01221A60FDF7A6FC40
:102D1000386108E0FDF7A2FC02463B69D31A022B9A
:102D200001D903232DE1264B5B6F03F00203002B37
:102D3000F0D015E0244B00221A60FDF78FFC3861BB
:102D400008E0FDF78BFC02463B69D31A022B01D940
:102D5000032316E11A4B5B6F03F00203002BF0D143
:102D60007B681B6803F00403002B00F0A0800023A5
:102D7000FB75134B1B6C03F08053002B0FD100230A
:102D8000FB600F4A0E4B1B6C43F0805313640C4BDB
:102D90001B6C03F08053FB60FB680123FB750B4B3E
:102DA0001B6803F48073002B21D1084A074B1B6872
:102DB00043F480731360FDF751FC386111E000BFEC
:102DC0000038024000004742800E47420070004039
:102DD000FDF744FC02463B69D31A022B01D90323B9
:102DE000CFE06A4B1B6803F48073002BF0D07B6844
:102DF0009B68012B06D1664A654B1B6F43F00103AC
:102E000013671CE07B689B68052B0CD1604A604B04
:102E10001B6F43F0040313675D4A5D4B1B6F43F068
:102E2000010313670BE05A4A594B1B6F23F0010350
:102E30001367574A564B1B6F23F0040313677B68D5
:102E40009B68002B15D0FDF709FC38610AE0FDF7FF
:102E500005FC02463B69D31A41F28832934201D9FC
:102E600003238EE04A4B1B6F03F00203002BEED0CE
:102E700014E0FDF7F3FB38610AE0FDF7EFFB0246D3
:102E80003B69D31A41F28832934201D9032378E097
:102E90003F4B1B6F03F00203002BEED1FB7D012B98
:102EA00005D13B4A3A4B1B6C23F0805313647B687B
:102EB0009B69002B64D0364B9B6803F00C03082BF6
:102EC0005CD07B689B69022B41D1324B00221A6097
:102ED000FDF7C4FB386108E0FDF7C0FB02463B6923
:102EE000D31A022B01D903234BE0294B1B6803F0B3
:102EF0000073002BF0D126497B68DA697B681B6A76
:102F00001A437B685B6A9B011A437B689B6A5B0878
:102F1000013B1B041A437B68DB6A1B0613434B60AF
:102F20001C4B01221A60FDF799FB386108E0FDF7A0
:102F300095FB02463B69D31A022B01D9032320E0FB
:102F4000134B1B6803F00073002BF0D018E0114BFB
:102F500000221A60FDF782FB386108E0FDF77EFB76
:102F600002463B69D31A022B01D9032309E0084B1F
:102F70001B6803F00073002BF0D101E0012300E097
:102F8000002318461837BD4680BD00BF00700040C2
:102F9000003802406000474280B584B000AF7860DE
:102FA00039607B68002B01D10123CAE0674B1B68A5
:102FB00003F00F023B689A420CD2644B3A68D2B2DB
:102FC0001A70624B1B6803F00F023B689A4201D0F3
:102FD0000123B6E07B681B6803F00203002B20D0BE
:102FE0007B681B6803F00403002B05D0584A584B3C
:102FF0009B6843F4E05393607B681B6803F008030D
:10300000002B05D0524A524B9B6843F460439360B7
:103010004F494F4B9B6823F0F0027B689B6813433A
:103020008B607B681B6803F00103002B44D07B6836
:103030005B68012B07D1464B1B6803F40033002B60
:1030400019D101237DE07B685B68022B03D07B688C
:103050005B68032B07D13E4B1B6803F00073002B0A
:1030600009D101236DE03A4B1B6803F00203002BEA
:1030700001D1012365E03649354B9B6823F00302FB
:103080007B685B6813438B60FDF7E8FAF8600AE041
:10309000FDF7E4FA0246FB68D31A41F28832934204
:1030A00001D903234DE02A4B9B6803F00C027B6897
:1030B0005B689B009A42EBD1244B1B6803F00F0224
:1030C0003B689A420CD9214B3A68D2B21A701F4B16
:1030D0001B6803F00F023B689A4201D0012330E0E5
:1030E0007B681B6803F00403002B08D01849184BB9
:1030F0009B6823F4E0527B68DB6813438B607B683A
:103100001B6803F00803002B09D01149104B9B6882
:1031100023F460427B681B69DB0013438B6000F083
:103120001DF801460A4B9B681B0903F00F03094A6F
:10313000D35C21FA03F3084A13600020FDF74AFA32
:10314000002318461037BD4680BD00BF003C02403A
:10315000003802405C1601082C0000202DE9F04FD9
:103160008FB000AF0023FB6200237B630023BB62B0
:1031700000233B63624B9B6803F00C03042B07D0D6
:10318000082B08D0002B40F0B2805E4B3B63B1E0CF
:103190005D4B3B63AEE05A4B5B6803F03F03FB6261
:1031A000574B5B6803F48003002B4ED0544B5B6895
:1031B0009B094FF0000440F2FF114FF0000201EABA
:1031C000030102EA04020B46144660017862786A41
:1031D00040EAD36078625B013B62D7E908345B1A4E
:1031E00064EB02044FEA841949EA93694FEA8318B1
:1031F000B8EB030869EB04094FEAC903FB61FB69FB
:1032000043EA5873FB614FEAC803BB61D7E90689FB
:1032100018EB010849EB02094FEA49237B617B69FE
:1032200043EAD8537B614FEA48233B61D7E90489DD
:1032300040464946FB6A4FF000041A462346FDF714
:103240001FF803460C467B6343E02D4B5B689B09EC
:103250004FF0000440F2FF114FF0000201EA0301B9
:1032600002EA04020B4614466001F860F86840EA7E
:10327000D360F8605B01BB60D7E902345B1A64EB92
:103280000204A60146EA93669D01ED1A66EB040668
:10329000F3007B607B6843EA55737B60EB003B6027
:1032A00097E860006D1846EB02064FEA862B4BEA62
:1032B000955B4FEA852A55465E4628463146FB6AAD
:1032C0004FF000041A462346FCF7DAFF03460C468B
:1032D0007B630B4B5B681B0C03F0030301335B0048
:1032E000BB627A6BBB6AB2FBF3F33B6302E0054B54
:1032F0003B6300BF3B6B18463C37BD46BDE8F08FD3
:10330000003802400024F40000127A0080B400AFBC
:10331000034B1B681846BD465DF8047B704700BF31
:103320002C00002080B500AFFFF7F0FF0146054BF1
:103330009B689B0A03F00703034AD35C21FA03F35B
:10334000184680BD003802406C16010880B500AFF9
:10335000FFF7DCFF0146054B9B685B0B03F007039F
:10336000034AD35C21FA03F3184680BD00380240BB
:103370006C16010880B582B000AF78607B68002BC6
:1033800001D1012355E07B6800229A627B6893F8A3
:103390005130DBB2002B06D17B68002283F850202D
:1033A000786801F0DBFF7B68022283F851207B689C
:1033B0001B687A681268126822F040021A607B6803
:1033C0001B687A6851687A68926811437A68D26893
:1033D00011437A68126911437A68526911437A6815
:1033E000926902F4007211437A68D26911437A68D3
:1033F000126A11437A68926A0A431A607B681B68F2
:103400007A689269120C02F004017A68526A0A43DF
:103410005A607B681B687A681268D26922F400627D
:10342000DA617B6800225A657B68012283F85120AB
:10343000002318460837BD4680BD80B582B000AF76
:1034400078607B68002B01D101233FE07B6893F813
:103450003930DBB2002B06D17B68002283F838209C
:10346000786802F02FF97B68242283F839207B6882
:103470001B687A681268D26822F40052DA607868B1
:1034800000F04CFD7B681B687A681268126922F4B0
:1034900090421A617B681B687A681268526922F050
:1034A0002A025A617B681B687A681268D26842F403
:1034B0000052DA607B680022DA637B68202283F89E
:1034C00039207B68202283F83A20002318460837E9
:1034D000BD4680BD80B588B002AFF860B9603B6082
:1034E0001346FB8000237B61FB6893F83930DBB225
:1034F000202B40F08280BB68002B02D0FB88002B81
:1035000001D101237AE0FB6893F83830012B01D117
:10351000022373E0FB68012283F83820FB68002255
:10352000DA63FB68212283F83920FDF797F8786188
:10353000FB68FA889A84FB68FA88DA8441E0FB68C1
:10354000DB8C9BB2013B9AB2FB68DA84FB689B6818
:10355000B3F5805F21D13B6800937B690022802115
:10356000F86800F063FB0346002B01D0032345E01D
:10357000BB683B61FB681B683A691288C2F30802AA
:103580005A60FB681B69002B03D1BB680233BB6028
:1035900017E0BB680133BB6013E03B6800937B69B5
:1035A00000228021F86800F041FB0346002B01D087
:1035B000032323E0FB681A68BB68591CB9601B78B9
:1035C0005360FB68DB8C9BB2002BB8D13B68009347
:1035D0007B6900224021F86800F028FB0346002B9D
:1035E00001D003230AE0FB68202283F83920FB681E
:1035F000002283F83820002300E002231846183701
:10360000BD4680BD80B485B000AFF860B960134698
:10361000FB80FB6893F83930DBB2202B30D1BB68DC
:10362000002B02D0FB88002B01D1012329E0FB688D
:1036300093F83830012B01D1022322E0FB680122EC
:1036400083F83820FB68BA681A62FB68FA889A84A3
:10365000FB68FA88DA84FB680022DA63FB682122BF
:1036600083F83920FB68002283F83820FB681B6848
:10367000FA681268D26842F08002DA60002300E043
:10368000022318461437BD465DF8047B704780B4AA
:1036900085B000AFF860B9601346FB80FB6893F813
:1036A0003A30DBB2202B38D1BB68002B02D0FB882C
:1036B000002B01D1012331E0FB6893F83830012B56
:1036C00001D102232AE0FB68012283F83820FB683D
:1036D000BA689A62FB68FA889A85FB68FA88DA8584
:1036E000FB680022DA63FB68222283F83A20FB6839
:1036F000002283F83820FB681B68FA681268526958
:1037000042F001025A61FB681B68FA681268D268CD
:1037100042F49072DA60002300E002231846143766
:10372000BD465DF8047B704780B586B000AFF86099
:10373000B9601346FB80FB6893F83A30DBB2202B6C
:1037400066D1BB68002B02D0FB88002B01D101237E
:103750005FE0FB6893F83830012B01D1022358E079
:10376000FB68012283F83820BA68FB689A62FB681C
:10377000FA889A85FB680022DA63FB68222283F8C4
:103780003A20FB685B6B254ADA63FB685B6B244A73
:103790001A64FB685B6B234ADA64FB685B6B00228C
:1037A0001A6507F108037B61FB68586BFB681B68AF
:1037B000043319467B691A68FB88FDF775FD002301
:1037C0003B61FB681B681B683B61FB681B685B68AF
:1037D0003B613B69FB68002283F83820FB681B686B
:1037E000FA681268D26842F48072DA60FB681B687B
:1037F000FA681268526942F001025A61FB681B685C
:10380000FA681268526942F040025A61002300E0EF
:10381000022318461837BD4680BD00BF153B00087F
:103820007D3B0008993B000880B584B000AF78600C
:103830000023FB607B681B685B6903F08003002B3F
:1038400014BF01230023DBB2FB607B6893F839309F
:10385000DBB2212B16D1FB68002B13D07B681B68D1
:103860007A681268526922F080025A617B681B6B89
:10387000002B04D07B681B6B1846FDF775FD78683C
:1038800000F01EFA7B681B685B6903F04003002BA5
:1038900014BF01230023DBB2FB607B6893F83A304E
:1038A000DBB2222B16D1FB68002B13D07B681B6880
:1038B0007A681268526922F040025A617B685B6B39
:1038C000002B04D07B685B6B1846FDF74DFD7868D4
:1038D00000F00CFA002318461037BD4680BD0000EA
:1038E00080B588B000AF78607B681B681B68FB619F
:1038F0007B681B68DB68BB617B681B685B697B61FD
:1039000000233B610023FB60FB6903F00F033B6175
:103910003B69002B0DD1FB6903F02003002B08D07D
:10392000BB6903F02003002B03D0786800F07DFA18
:10393000CCE03B69002B00F0AB807B6903F0010316
:10394000002B05D1BB6903F49073002B00F0A0801D
:10395000FB6903F00103002B0AD0BB6903F48073F9
:10396000002B05D07B68DB6B43F001027B68DA63D8
:10397000FB6903F00403002B0AD07B6903F0010309
:10398000002B05D07B68DB6B43F002027B68DA63B7
:10399000FB6903F00203002B0AD07B6903F00103EB
:1039A000002B05D07B68DB6B43F004027B68DA6395
:1039B000FB6903F00803002B0AD07B6903F00103C5
:1039C000002B05D07B68DB6B43F008027B68DA6371
:1039D0007B68DB6B002B78D0FB6903F02003002BA6
:1039E00007D0BB6903F02003002B02D0786800F0F9
:1039F0001CFA7B681B685B6903F04003002B14BF53
:103A000001230023DBB2FB607B68DB6B03F0080360
:103A1000002B02D1FB68002B31D0786800F066F9EA
:103A20007B681B685B6903F04003002B23D07B6835
:103A30001B687A681268526922F040025A617B68FA
:103A40005B6B002B13D07B685B6B224A1A657B682B
:103A50005B6B1846FDF7F8FC0346002B16D07B681D
:103A60005B6B1B6D7A68526B104698470EE0786866
:103A700000F046F80AE0786800F042F806E078685E
:103A800000F03EF87B680022DA631EE000BF1CE015
:103A9000FB6903F08003002B08D0BB6903F08003AF
:103AA000002B03D0786800F053F90FE0FB6903F0B6
:103AB0004003002B0AD0BB6903F04003002B05D064
:103AC000786800F09AF900BF00E000BF2037BD46DB
:103AD00080BD00BF293D000880B483B000AF78608E
:103AE00000BF0C37BD465DF8047B704780B483B0DF
:103AF00000AF786000BF0C37BD465DF8047B7047AF
:103B000080B483B000AF786000BF0C37BD465DF86D
:103B1000047B704780B584B000AF78607B689B6B96
:103B2000FB607B681B681B6803F48073002B1ED14D
:103B3000FB680022DA85FB681B68FA681268D268A5
:103B400022F48072DA60FB681B68FA6812685269B6
:103B500022F001025A61FB681B68FA681268526918
:103B600022F040025A61FB68202283F83A20F8686C
:103B700001F0E8F800BF1037BD4680BD80B584B0C5
:103B800000AF78607B689B6BFB60F868FFF7AEFF67
:103B900000BF1037BD4680BD80B584B000AF7860EF
:103BA0000023FB607B689B6BBB60BB681B685B6929
:103BB00003F08003002B14BF01230023DBB2FB6062
:103BC000BB6893F83930DBB2212B08D1FB68002B9E
:103BD00005D0BB680022DA84B86800F071F8BB68D1
:103BE0001B685B6903F04003002B14BF0123002313
:103BF000DBB2FB60BB6893F83A30DBB2222B08D112
:103C0000FB68002B05D0BB680022DA85B86800F09D
:103C10006DF8BB68DB6B43F01002BB68DA63B86811
:103C2000FFF76EFF00BF1037BD4680BD80B584B082
:103C300000AFF860B9603B601346FB712CE0BB69D4
:103C4000B3F1FF3F28D0BB69002B07D0FCF706FD7E
:103C500002463B68D21ABB699A421DD9FB681B68B1
:103C6000FA681268D26822F4D072DA60FB681B68C6
:103C7000FA681268526922F001025A61FB68202238
:103C800083F83920FB68202283F83A20FB68002261
:103C900083F8382003230FE0FB681B681A68BB68B1
:103CA0001A40BB689A420CBF01230023DBB21A46BC
:103CB000FB799A42C3D0002318461037BD4680BD19
:103CC00080B483B000AF78607B681B687A68126844
:103CD000D26822F0C002DA607B68202283F83920A3
:103CE00000BF0C37BD465DF8047B704780B483B0DD
:103CF00000AF78607B681B687A681268D26822F42B
:103D00009072DA607B681B687A681268526922F0E8
:103D100001025A617B68202283F83A2000BF0C37E9
:103D2000BD465DF8047B704780B584B000AF786015
:103D30007B689B6BFB60FB680022DA85FB680022D6
:103D4000DA84F868FFF7DCFE00BF1037BD4680BD9F
:103D500080B485B000AF78607B6893F83930DBB20F
:103D6000212B43D17B689B68B3F5805F19D17B68B9
:103D70001B6AFB607B681B68FA681288C2F3080242
:103D80005A607B681B69002B05D17B681B6A9A1CF3
:103D90007B681A620EE07B681B6A5A1C7B681A6299
:103DA00008E07B681A687B681B6A581C796808629F
:103DB0001B7853607B68DB8C9BB2013B9BB27A68BB
:103DC0001946D184002B0FD17B681B687A68126872
:103DD000D26822F08002DA607B681B687A68126819
:103DE000D26842F04002DA60002300E00223184665
:103DF0001437BD465DF8047B704780B582B000AFD4
:103E000078607B681B687A681268D26822F040028A
:103E1000DA607B68202283F839207868FFF75CFE3F
:103E2000002318460837BD4680BD80B584B000AF7A
:103E300078607B6893F83A30DBB2222B69D17B68DB
:103E40009B68B3F5805F23D17B689B6AFB607B68CE
:103E50001B69002B0ED17B681B685B689BB2C3F3A8
:103E600008039AB2FB681A807B689B6A9A1C7B687D
:103E70009A6229E07B681B685B689BB2DBB29AB2EE
:103E8000FB681A807B689B6A5A1C7B689A621BE0FD
:103E90007B681B69002B0AD17B689B6A591C7A6876
:103EA00091627A6812685268D2B21A700CE07B682C
:103EB0009B6A591C7A6891627A6812685268D2B219
:103EC00002F07F02D2B21A707B68DB8D9BB2013B9D
:103ED0009BB27A681946D185002B18D17B681B6884
:103EE0007A681268D26822F49072DA607B681B6884
:103EF0007A681268526922F001025A617B682022B6
:103F000083F83A20786800F01DFF002302E00023C8
:103F100000E0022318461037BD4680BDF0B585B0DD
:103F200000AF78600023FB607B681B681B69FB6047
:103F3000FB6823F44053FB607B68DB68FA6813433B
:103F4000FB607B681B68FA681A617B681B68DB682A
:103F5000FB60FB6823F4164323F00C03FB607B68D3
:103F60009A687B681B691A437B685B691A437B68A4
:103F7000DB691343FA681343FB607B681B68FA68CC
:103F8000DA607B681B685B69FB60FB6823F4407345
:103F9000FB607B689B69FA681343FB607B681B6866
:103FA000FA685A617B68DB69B3F5004F40F0E48042
:103FB0007B681B68AB4A934204D07B681B68AA4AA3
:103FC00093426CD17B681C68FFF7C0F90246134628
:103FD0009B0013449A001A447B685B685B00B2FB49
:103FE000F3F3A24AA2FB03235B091D01FFF7AEF91D
:103FF000024613469B0013449A001A447B685B6890
:104000005B00B2FBF3F6FFF7A1F9024613469B00F3
:1040100013449A001A447B685B685B00B2FBF3F3BD
:10402000924AA2FB03235B09642202FB03F3F31A07
:10403000DB0032338D4AA2FB03235B095B0003F4F0
:10404000F8731D44FFF782F9024613469B001344A0
:104050009A001A447B685B685B00B2FBF3F6FFF7DB
:1040600075F9024613469B0013449A001A447B6874
:104070005B685B00B2FBF3F37C4AA2FB03235B09A2
:10408000642202FB03F3F31ADB003233774AA2FB0C
:1040900003235B0903F007032B44A36054E17B680F
:1040A0001C68FFF73FF9024613469B0013449A0031
:1040B0001A447B685B685B00B2FBF3F36B4AA2FBBC
:1040C00003235B091D01FFF72DF9024613469B00F0
:1040D00013449A001A447B685B685B00B2FBF3F6FA
:1040E000FFF720F9024613469B0013449A001A4436
:1040F0007B685B685B00B2FBF3F35C4AA2FB0323C3
:104100005B09642202FB03F3F31ADB003233574AE4
:10411000A2FB03235B095B0003F4F8731D44FFF764
:1041200001F9024613469B0013449A001A447B6827
:104130005B685B00B2FBF3F6FFF7F4F80246134648
:104140009B0013449A001A447B685B685B00B2FBD7
:10415000F3F3464AA2FB03235B09642202FB03F349
:10416000F31ADB003233414AA2FB03235B0903F05D
:1041700007032B44A360E7E07B681B68394A93423E
:1041800004D07B681B68384A934271D17B681C68F5
:10419000FFF7DCF8024613469B0013449A001A44CA
:1041A0007B685B689B00B2FBF3F3304AA2FB0323FE
:1041B0005B091D01FFF7CAF8024613469B00134432
:1041C0009A001A447B685B689B00B2FBF3F6FFF72A
:1041D000BDF8024613469B0013449A001A447B68BC
:1041E0005B689B00B2FBF3F3204AA2FB03235B094D
:1041F000642202FB03F3F31A1B0132331B4AA2FBB6
:1042000003235B0903F0F0031D44FFF79FF8024608
:1042100013469B0013449A001A447B685B689B001A
:10422000B2FBF3F6FFF792F8024613469B001344E5
:104230009A001A447B685B689B00B2FBF3F30B4A5D
:10424000A2FB03235B09642202FB03F3F31A1B01A5
:104250003233064AA2FB03235B0903F00F032B440E
:10426000A36071E000100140001401401F85EB5174
:104270007B681C68FFF756F8024613469B00134400
:104280009A001A447B685B689B00B2FBF3F3304AE8
:10429000A2FB03235B091D01FFF744F80246134606
:1042A0009B0013449A001A447B685B689B00B2FB36
:1042B000F3F6FFF737F8024613469B0013449A00C3
:1042C0001A447B685B689B00B2FBF3F3204AA2FBB5
:1042D00003235B09642202FB03F3F31A1B0132334D
:1042E0001B4AA2FB03235B0903F0F0031D44FFF705
:1042F00019F8024613469B0013449A001A447B683F
:104300005B689B00B2FBF3F6FFF70CF8024613461E
:104310009B0013449A001A447B685B689B00B2FBC5
:10432000F3F30B4AA2FB03235B09642202FB03F3B2
:10433000F31A1B013233064AA2FB03235B0903F085
:104340000F032B44A360FFE700BF1437BD46F0BD49
:104350001F85EB5180B500AF0B4B1B6818460CF066
:10436000CDF903461A46094B1A60084B1B68002B0F
:1043700004D107480CF07CFC002303E005480CF056
:1043800077FC0123184680BD08000020F8080020B3
:10439000B4130108CC13010880B582B000AF344BD0
:1043A0001968344B1B689BB21A463348FFF7BCF9B7
:1043B0001420FCF75FF93048FFF736FA2C4B1B68E6
:1043C0001B78592B0BD12A4B1B6801331B78592BB7
:1043D00005D1274B1B6807331B78002B0ED02748CD
:1043E0000CF046FC224B1B68023300221A70204B53
:1043F0001B68033300221A70002335E00023FB8082
:104400001C4B1B68DBB2013B3B7100237B710BE053
:10441000174B1A687B7913441B789AB2FB881344B4
:10442000FB807B7901337B717A793B799A42EFD3B8
:10443000FB88DBB20E4A11683A790A44127893423B
:104440000ED00F480CF014FC094B1B6802330022FD
:104450001A70074B1B68033300221A70002303E015
:1044600008480CF005FC012318460837BD4680BDFE
:10447000F8080020080000209C0C00201C140108F3
:104480003C1401085C14010880B400AF094B1B68A0
:1044900003331B781B021AB2064B1B6802331B78CE
:1044A0001BB213431BB29BB21846BD465DF8047B9A
:1044B000704700BFF808002080B584B000AF504BB3
:1044C0001B68522283F85C214D4B1B684D4AC3F890
:1044D00068214B4B1B684FF4C872A3F85E21484B10
:1044E0001B68184601F0E4FC03461A46464B1A6066
:1044F000434B1B68184601F0F5F903461A46424B38
:104500001A603F4B1B68184601F050FB03461A46E1
:104510003D4B1A603A4B1B687A1CB91C184602F0D6
:1045200035FA03461A46384B1A60354B1B68FA1C9D
:10453000391D184602F0B6FE03461A46324B1A6081
:104540002F4B1B680021184601F050FD03461A4608
:104550002D4B1A602A4B1B6848F2E801184601F0FF
:10456000BFFD03461A46284B1A60254B1B68C8211D
:10457000184601F055FF03461A46234B1A6041F6D0
:104580009913FB604FF47013BB601D4B1B68FA68F6
:104590000121184602F0A4F803461A461A4B1A6085
:1045A000174B1B68BA680021184602F099F80346B9
:1045B0001A46154B1A60124B1B681222002118462E
:1045C00001F0B4FD03461A460F4B1A600C4B1B68F2
:1045D0000E220121184601F0A9FD03461A460A4B96
:1045E0001A60094B1B68002B04D008480CF040FBF4
:1045F000002300E0012318461037BD4680BD00BFF0
:104600000C000020F8090020F804002080140108A4
:1046100080B500AF0C4B1B680C49184602F058FCE3
:1046200003461A460A4B1A60074B1B6800211846BE
:1046300002F0D6FD064B1B68002B01D1012300E0E0
:104640000023184680BD00BF0C000020FC040020A1
:10465000F804002080B400AF074B1B8940F6B73246
:10466000934202D8044B1B8901E04FF6FF731846B2
:10467000BD465DF8047B7047FC04002080B500AFA8
:10468000334B1B68522283F89823314B1B68314A05
:10469000C3F8A0232E4B1B684FF4C872A3F89A23CB
:1046A0002B4B1B68184606F0C9FA03461A462A4BDC
:1046B0001A60274B1B68184606F044FA03461A4650
:1046C000254B1A60224B1B68184606F090FA0346E9
:1046D0001A46214B1A601E4B1B680321184606F030
:1046E00092FB03461A461C4B1A60194B1B680321A8
:1046F000184606F0D0FB03461A46174B1A60144BB7
:104700001B681649184606F04DFC03461A46124B24
:104710001A600F4B1B68C821184606F0C1FD0346FE
:104720001A460D4B1A600A4B1B68184606F02EFFFE
:1047300003461A46084B1A60074B1B68002B04D02F
:1047400007480CF095FA002300E00123184680BDCD
:1047500010000020A4090020BC08002070110100F6
:10476000A414010880B500AF144B1B68184607F06D
:104770002BF803461A46124B1A60114B1B68002B8C
:1047800012D10E4B1B680F49184607F0F7F9034684
:104790001A460B4B1A60094B1B68184606F0ECFFD3
:1047A00003461A46064B1A60054B1B68002B01D1C5
:1047B000012300E00023184680BD00BF1000002048
:1047C000BC080020C008002080B400AF094BB3F93A
:1047D000183041F28732934204DC064BB3F91830AB
:1047E0009BB201E04FF6FF731846BD465DF8047BAF
:1047F000704700BFC008002080B584B000AF324BC6
:10480000324A1A60304B4FF440325A602E4B00222D
:104810009A602D4B01221A612B4B01229A612A4B7F
:1048200000221A62284B0022DA62274B284A9A6239
:10483000254B0022DA60244B0322DA61224B01224D
:104840001A63214B01225A611F48FBF735FF0346CB
:10485000002B03D04A211F4800F09AFC0A233B603A
:1048600001237B600723BB603B4619461648FCF7D3
:10487000A1F80346002B03D05421164800F088FC11
:104880000B233B6002237B603B4619460E48FCF736
:1048900091F80346002B03D05D210E4800F078FC10
:1048A0000C233B6003237B603B4619460648FCF71C
:1048B00081F80346002B03D06621064800F068FC0F
:1048C00000BF1037BD4680BDFC080020002001401D
:1048D0000100000FC814010880B588B000AF7860EF
:1048E0007B681B68294A93424BD10023BB60284A4E
:1048F000274B5B6C43F480735364254B5B6C03F470
:104900008073BB60BB680723FB6003233B6100230C
:104910007B6107F10C0319461E48FDF71FF81E4B7B
:104920001E4A1A601C4B00225A601B4B00229A60E0
:10493000194B0022DA60184B4FF480621A61164B53
:104940004FF400625A61144B4FF400529A61124BBB
:104950004FF48072DA61104B00221A620E4B002273
:104960005A620D48FCF7F2FB0346002B03D08F215F
:104970000B4800F00DFC7B68074A9A63064A7B6887
:10498000936300BF2037BD4680BD00BF00200140BB
:104990000038024000080240440900201064024030
:1049A000C814010880B582B000AF00237B60144AB0
:1049B000134B1B6B43F480031363114B1B6B03F40A
:1049C00080037B607B68002200213820FCF75DFBC0
:1049D0003820FCF776FB002200213920FCF755FB3C
:1049E0003920FCF76EFB002200214520FCF74DFB2F
:1049F0004520FCF766FB00BF0837BD4680BD00BF01
:104A00000038024080B58AB000AF00233B61494ABC
:104A1000484B1B6B43F004031363464B1B6B03F0C3
:104A200004033B613B690023FB60424A414B1B6B23
:104A300043F0800313633F4B1B6B03F08003FB6069
:104A4000FB680023BB603B4A3A4B1B6B43F00103FE
:104A50001363384B1B6B03F00103BB60BB6800237F
:104A60007B60344A334B1B6B43F002031363314BBF
:104A70001B6B03F002037B607B6801224FF4C6517D
:104A80002D48FDF7EDF801224FF401512B48FDF7B9
:104A9000E7F8002280212948FDF7E2F84FF400539F
:104AA0007B61274BBB610023FB6107F114031946AF
:104AB0002448FCF753FF30237B61234BBB61012368
:104AC000FB6107F1140319461B48FCF747FF4FF43D
:104AD000C6537B610123BB610023FB6101233B6261
:104AE00007F1140319461448FCF738FF4FF4035339
:104AF0007B610123BB610023FB6101233B6207F162
:104B0000140319460D48FCF729FF002200210A2052
:104B1000FCF7BBFA0A20FCF7D4FA00220021172088
:104B2000FCF7B3FA1720FCF7CCFA00BF2837BD46D4
:104B300080BD00BF00380240000002400004024077
:104B400000001110000802400000211080B500AFE5
:104B5000134B144A1A60124B134A5A60104B00222E
:104B60009A600F4B0022DA600D4B4FF480421A61BD
:104B70000B4B00225A610A4B00229A61084B00221B
:104B8000DA61074B00221A620548FDF7ADF80346CB
:104B9000002B03D04321054800F0FAFA00BF80BD86
:104BA000F809002000540040801A0600D8140108BB
:104BB00080B500AF134B144A1A60124B134A5A6067
:104BC000104B00229A600F4B0022DA600D4B4FF41D
:104BD00080421A610B4B00225A610A4B00229A61F3
:104BE000084B0022DA61074B00221A620548FDF7E4
:104BF0007BF80346002B03D05621054800F0C8FA85
:104C000000BF80BDA4090020005C0040801A06009F
:104C1000D814010880B58AB000AF78607B681B6843
:104C20002D4A93421FD14FF440737B611223BB6125
:104C30000123FB6103233B6204237B6207F114031E
:104C400019462648FCF78AFE00233B61244A244B80
:104C50001B6C43F400131364214B1B6C03F400130F
:104C60003B613B6934E07B681B681E4A93422FD14D
:104C70004FF400737B611223BB610123FB610323AB
:104C80003B6204237B6207F1140319461648FCF7C4
:104C900065FE4FF480737B611223BB610123FB61CE
:104CA00003233B6204237B6207F1140319460F4878
:104CB000FCF754FE0023FB60094A094B1B6C43F4CC
:104CC00000031364064B1B6C03F40003FB60FB68DA
:104CD00000BF2837BD4680BD00540040000402409C
:104CE00000380240005C0040000802400000024022
:104CF00080B584B000AFF860B9607A607B689AB222
:104D00003223B9680348FEF7E5FB7B681846103785
:104D1000BD4680BDDC0C002080B483B000AF0346EC
:104D2000FB80FB88102B04D1054B1B680133044A20
:104D3000136000BF0C37BD465DF8047B704700BFB1
:104D4000DC08002080B590B000AF78607B681A4A1C
:104D500093422DD10023FB87184B1B78782B08D06A
:104D60007A2B0DD1164B1B780133DAB2144B1A7023
:104D700012E0144B1B780133DAB2124B1A700BE0BD
:104D80000E4B1B781A4607F10C030F4918460BF01F
:104D900087FF0346FB8700BFFA8F07F10C03194614
:104DA0000548FEF72FFC012204490348FEF76FFC7B
:104DB00000BF4037BD4680BDDC0C0020E00800206D
:104DC000E1080020E2080020E8140108F0B58DB0E9
:104DD00008AF03460A46FB711346BB71FFF76CFB35
:104DE000FFF74CFC0023BB60BBE000224FF40061E6
:104DF0006048FCF735FF00224FF400515E48FCF795
:104E00002FFF002240215C48FCF72AFF002280216E
:104E10005848FCF725FF002240215648FCF720FFA8
:104E2000002280215448FCF71BFFBB791846FBF792
:104E300021FC00F0D3F9FFF7AFFAFFF7E9FBFFF72A
:104E400091FC4E4BD3ED007A4D4B93ED007AF0EE92
:104E5000470AB0EE670A00F0D7F903461A46494BF5
:104E60005A80494BD3ED007A484B93ED007AF0EE2F
:104E7000470AB0EE670A00F0EBF903461A46414BC9
:104E80009A80434BD3ED007A424B93ED007AF0EEDB
:104E9000470AB0EE670A00F001FA03461A46394B9A
:104EA000DA80FFF7F1FA03461A46364B1A81FFF70C
:104EB000D1FB03461A46334B5A81FFF785FC034664
:104EC0001A46304B9A810023FB600CE02D4B1A8A66
:104ED0002C49FB6831F8133013449AB2294B1A82DB
:104EE000FB680133FB60FB68072BEFDD254B1B8A5A
:104EF000DBB29AB2234B1A82224B1B889E46214B6F
:104F00005B889C461F4B9B881A461E4BDB881946C4
:104F10001C4B1B8918461B4B5B891C46194B9B89F4
:104F20001D46184BDB891E46164B1B8A06930596B9
:104F300004950394029001910092634672461649CB
:104F400016480BF0ADFE0246154B1A60144B1B6859
:104F50009BB21A4611491348FEF754FBBB68013354
:104F6000BB60FA79BB689A423FF73FAF00BF143786
:104F7000BD46F0BD000002400004024014000020C5
:104F800018000020540A00201C00002020000020EF
:104F9000240000202800002008150108780A0020BD
:104FA000E4080020DC0C0020B0B500AFFBF7F0FAFD
:104FB00000F074F8FFF726FDFFF7F4FCFFF71CFC88
:104FC000FFF7C4FD00F050FBFFF7F2FD00F01EFB01
:104FD00000F0EEFA00F088F96420FBF74BFB00F0DC
:104FE000DDF8FFF7B7F9012222492348FEF74FFB0E
:104FF00022480BF03DFE224B69221A80204B0022F2
:10500000DA81204B1B78002B23D014210A20FFF7D4
:10501000DDFE1420FBF72EFB1A4B00221A701A4AF1
:105020001A4B14461D460FCD0FC40FCD0FC495E883
:105030000F0007C4238002341B0C23702E22144B54
:105040001A60134B1B689BB21A460F490A48FEF7B9
:10505000D9FA104B1B78002B07D04FF480510E4823
:10506000FCF717FE0B4B00221A700A20FBF702FB1D
:10507000C7E700BFE0080020DC0C0020381501085D
:10508000540A0020E1080020780A00205415010885
:10509000E4080020E20800200000024080B594B03F
:1050A00000AF0023BB60364A354B1B6C43F0805386
:1050B0001364334B1B6C03F08053BB60BB6800234D
:1050C0007B60304A2F4B1B6823F4404343F400437A
:1050D00013602C4B1B6803F440437B607B68022306
:1050E0003B620123FB6210233B630223BB6300236B
:1050F000FB6310233B644FF4A8737B640423BB64FD
:105100000723FB6407F120031846FDF703FD034660
:10511000002B04D04FF4A8711B4800F039F80F237E
:10512000FB6002233B6100237B614FF48053BB6132
:105130000023FB6107F10C0302211846FDF72CFF49
:105140000346002B04D04FF4AE710F4800F020F856
:10515000FEF7DCF802460D4BA3FB02239B09184621
:10516000FBF7BDFF0420FBF7C7FF002200214FF033
:10517000FF30FBF78AFF00BF5037BD4680BD00BF40
:10518000003802400070004084150108D34D6210C1
:1051900080B483B000AF78603960FEE780B500AFBF
:1051A00003235B0018460BF0A9FA03461A46084B86
:1051B0001A60074B1B68002B04D106480BF058FD02
:1051C000002303E004480BF053FD0123184680BD83
:1051D000500A002094150108A815010880B500AFF9
:1051E000074B1B68032219460648FBF7A9FA14204F
:1051F000FBF740FA0348FBF775FB00BF80BD00BF1B
:10520000500A0020FC08002080B485B000AF87ED74
:10521000030AC7ED020A0D4B1B681B8807EE903A84
:10522000F8EEE77AD7ED036A86EEA77AD7ED027A31
:1052300077EE677AFCEEE77AC7ED017ABB889BB21E
:1052400018461437BD465DF8047B7047500A0020AD
:1052500080B485B000AF87ED030AC7ED020A0E4B9C
:105260001B6802331B8807EE903AF8EEE77AD7ED19
:10527000036A86EEA77AD7ED027A77EE677AFCEEBC
:10528000E77AC7ED017ABB889BB218461437BD4652
:105290005DF8047B704700BF500A002080B485B0E1
:1052A00000AF87ED030AC7ED020A0E4B1B680433FB
:1052B0001B8807EE903AF8EEE77AD7ED036A86EEA0
:1052C000A77AD7ED027A77EE677AFCEEE77AC7ED38
:1052D000017ABB889BB218461437BD465DF8047B43
:1052E000704700BF500A002080B500AF184B194A24
:1052F0001A60174B4FF482725A60154B00229A6065
:10530000134B0022DA60124B00221A61104B00226C
:105310005A610F4B4FF400729A610D4B0022DA6113
:105320000B4B00221A620A4B00225A62084B0022E1
:105330009A62074B0A22DA620548FEF71BF8034619
:10534000002B03D045210448FFF722FF00BF80BD9A
:10535000440B0020003C0040F415010880B588B0E3
:1053600000AF78607B681B68124A93421ED100230D
:10537000BB60114A104B1B6C43F4004313640E4B8B
:105380001B6C03F40043BB60BB684FF4E053FB604D
:1053900002233B6100237B610323BB610623FB6186
:1053A00007F10C0319460548FCF7D8FA00BF20376F
:1053B000BD4680BD003C004000380240000802406D
:1053C00080B582B000AF00237B60254A244B5B6C24
:1053D00043F480435364224B5B6C03F480437B6053
:1053E0007B6800233B601E4A1D4B1B6C43F08053BF
:1053F00013641B4B1B6C03F080533B603B6807201E
:10540000FBF738FE002200216FF00B00FBF73DFE9A
:10541000002200216FF00A00FBF737FE0022002176
:105420006FF00900FBF731FE002200216FF004004D
:10543000FBF72BFE002200216FF00300FBF725FE97
:10544000002200216FF00100FBF71FFE0022002167
:105450004FF0FF30FBF719FE00BF0837BD4680BD97
:105460000038024080B400AF00BFBD465DF8047B49
:10547000704780B400AFFEE780B400AFFEE780B4B1
:1054800000AFFEE780B400AFFEE780B400AF00BF1E
:10549000BD465DF8047B704780B400AF00BFBD46D9
:1054A0005DF8047B704780B400AF00BFBD465DF877
:1054B000047B704780B500AFFBF7BCF8FBF738FE04
:1054C00000BF80BD80B500AF1020FCF7F5FB00BF2A
:1054D00080BD80B500AF2020FCF7EEFB00BF80BD93
:1054E00080B500AF0248FEF7FBF900BF80BD00BFEA
:1054F000DC0C002080B500AF0248FBF7C7FF00BFFF
:1055000080BD00BF4409002080B500AF0248FBF712
:10551000BDFF00BF80BD00BF9C0B002080B500AF69
:105520000248FBF7B3FF00BF80BD00BFFC0B0020AB
:1055300080B500AF0248FEF7D3F900BF80BD00BFC1
:105540009C0C002080B400AF164A164BD3F888306C
:1055500043F47003C2F88830134A134B1B6843F0BE
:1055600001031360104B00229A600F4A0E4B1B6818
:1055700023F0847323F4803313600B4B0B4A5A607F
:10558000094A094B1B6823F480231360064B002251
:10559000DA60044B4FF000629A6000BFBD465DF8D0
:1055A000047B704700ED00E000380240103000241A
:1055B00080B500AF124B134A1A60114B4FF4E13221
:1055C0005A600F4B00229A600D4B0022DA600C4BA0
:1055D00000221A610A4B0C225A61094B00229A617F
:1055E000074B0022DA610648FDF727FF0346002B30
:1055F00003D047210448FFF7CBFD00BF80BD00BFAB
:105600005C0C0020001001400416010880B500AFBA
:10561000124B134A1A60114B4FF4E1325A600F4B90
:1056200000229A600D4B0022DA600C4B00221A61B6
:105630000A4B0C225A61094B00229A61074B002247
:10564000DA610648FDF7F9FE0346002B03D05A2124
:105650000448FFF79DFD00BF80BD00BFDC0C0020AB
:10566000004400400416010880B500AF124B134AF5
:105670001A60114B4FF4E1325A600F4B00229A60CE
:105680000D4B0022DA600C4B00221A610A4B0C22EF
:105690005A61094B00229A61074B0022DA610648E1
:1056A000FDF7CBFE0346002B03D06D210448FFF726
:1056B0006FFD00BF80BD00BF9C0C002000140140A6
:1056C0000416010880B58AB000AF78607B681B685B
:1056D0006F4A93421FD100233B616E4A6D4B5B6C56
:1056E00043F0100353646B4B5B6C03F010033B619E
:1056F0003B694FF4C0637B610223BB610123FB6103
:1057000003233B6207237B6207F1140319466248B7
:10571000FCF724F9B8E07B681B68604A934226D105
:105720000023FB605B4A5B4B1B6C43F40033136448
:10573000584B1B6C03F40033FB60FB680C237B614C
:105740000223BB610123FB6103233B6207237B62CE
:1057500007F1140319465048FCF700F90022002114
:105760002620FBF792FC2620FBF7ABFC8CE07B6845
:105770001B684B4A934240F087800023BB60454A38
:10578000444B5B6C43F020035364424B5B6C03F06F
:105790002003BB60BB68C0237B610223BB61012384
:1057A000FB6103233B6208237B6207F11403194664
:1057B0003C48FCF7D3F83C4B3C4A1A603A4B4FF05C
:1057C00020625A60384B00229A60374B0022DA6020
:1057D000354B4FF480621A61334B00225A61324BD1
:1057E00000229A61304B4FF48072DA612E4B002216
:1057F0001A622D4B00225A622B48FBF7A7FC034686
:10580000002B03D0C8212A48FFF7C2FC7B68264A38
:105810005A63254A7B689363264B274A1A60254BB7
:105820004FF020625A60234B40229A60214B0022A5
:10583000DA60204B4FF480621A611E4B00225A61DD
:105840001C4B00229A611B4B0022DA61194B00228B
:105850001A62184B00225A621648FBF777FC03467F
:10586000002B03D0DA211248FFF792FC7B68114A23
:105870001A63104A7B689363002200214720FBF7DC
:1058800004FC4720FBF71DFC00BF2837BD4680BD48
:105890000010014000380240000002400044004077
:1058A00000140140000802409C0B002028640240C4
:1058B00004160108FC0B0020A064024080B584B0EF
:1058C00000AF786039600023FB733968786801F0B5
:1058D000FEFC0346FB7397F90F3018461037BD46A0
:1058E00080BD0000B0B596B000AF7860002387F8A7
:1058F000573097F95730002B07D10022882178685C
:1059000005F002F8034687F857307B68002283F8D9
:10591000F0207B684FF47A72A3F852217B684FF431
:10592000C872A3F854217B689E4AC3F858217B684B
:105930009D4AC3F8D4207B6800221A6207F1100345
:105940001946786800F0C2FA034687F8573097F98D
:105950005730002B12D100233B7400237B747B68EB
:1059600003F1100407F110050FCD0FC40FCD0FC4C4
:105970000FCD0FC495E80F0084E80F007B68642208
:10598000A3F834217B684FF46172A3F836217B6859
:105990004FF4FA72A3F838217B684FF42062A3F821
:1059A0003C217B68012283F8502101228021786804
:1059B00004F0AAFF03461A4697F85730134387F8B6
:1059C00057300122FF21786804F09EFF03461A46F3
:1059D00097F85730134387F8573000220021786832
:1059E00004F092FF03461A4697F85730134387F89E
:1059F000573007F10F031A469121786805F024F813
:105A000003461A4697F85730134387F85730FA7B06
:105A10007B6883F83A2101220021786804F074FF42
:105A200003461A4697F85730134387F85730002239
:105A3000FF21786804F068FF03461A4697F857304C
:105A4000134387F8573000228021786804F05CFF08
:105A500003461A4697F85730134387F85730002308
:105A60003B6514E097F95730002B14D13B6D9BB286
:105A700001221946786800F083FD03461A4697F81C
:105A80005730134387F857303B6D01333B653B6D0F
:105A9000052BE7DD00E000BF97F95730002B07D159
:105AA00000220221786800F06BFD034687F857302A
:105AB00097F95730002B07D100220321786800F0B6
:105AC0005FFD034687F8573097F95730002B07D111
:105AD00000220421786800F053FD034687F8573010
