:020000040800F2
:1000000000800120FDF20008B9460008C74600083C
:10001000CD460008D3460008D9460008000000007D
:10002000000000000000000000000000DF460008A3
:10003000ED46000800000000FB46000809470008E4
:100040004DF300084DF300084DF300084DF3000890
:100050004DF300084DF300084DF300084DF3000880
:100060004DF300084DF30008194700084DF3000850
:100070004DF300084DF300084DF300084DF3000860
:100080004DF300084DF300084DF300080000000098
:1000900000000000000000000000000027470008EA
:1000A0004DF300084DF300084DF300084DF3000830
:1000B0004DF300084DF300084DF300084DF3000820
:1000C0004DF300084DF300084DF300084DF3000810
:1000D0004DF300084DF300084DF300080000000048
:1000E0004DF300084DF300084DF300080000000038
:1000F0000000000000000000000000004DF30008B8
:10010000000000004DF300084DF300084DF3000817
:1001100000000000000000000000000000000000DF
:1001200035470008494700084DF300084DF3000823
:100130004DF3000800000000000000000000000077
:100140000000000000000000000000004DF3000867
:100150004DF300084DF300084DF300084DF300087F
:100160004DF300084DF300080000000000000000FF
:10017000000000000000000000000000000000007F
:10018000000000004DF30008000000000000000027
:040190004DF3000823
:1001A00010B5054C237833B9044B13B10448AFF3B1
:1001B00000800123237010BD5803002000000000C0
:1001C0002C03010808B5034B1BB103490348AFF3E7
:1001D000008008BD000000005C0300202C03010823
:1001E00001F0FF01102A2BDB10F0070F08D010F8E8
:1001F000013B013A8B422DD010F0070F42B3F6D1EC
:10020000F0B441EA012141EA014122F007047FF004
:1002100000070023F0E80256083C85EA010586EA5B
:10022000010685FA47F5A3FA87F586FA47F6A5FA97
:1002300087F68EB9EED1F0BC01F0FF0102F00702A3
:1002400032B110F8013B013A83EA010313B1F8D14E
:100250000020704701387047002D06BF354603382F
:10026000073815F0010F07D1013015F4807F02BF68
:10027000013015F4C03F0130F0BC0138704700BFB9
:1002800081F0004102E000BF83F0004330B54FEA47
:1002900041044FEA430594EA050F08BF90EA020FB4
:1002A0001FBF54EA000C55EA020C7FEA645C7FEA47
:1002B000655C00F0E2804FEA5454D4EB5555B8BF6A
:1002C0006D420CDD2C4480EA020281EA030382EADB
:1002D000000083EA010180EA020281EA0303362D6D
:1002E00088BF30BD11F0004F4FEA01314FF4801C40
:1002F0004CEA113102D0404261EB410113F0004F52
:100300004FEA03334CEA133302D0524263EB430308
:1003100094EA050F00F0A780A4F10104D5F1200EA6
:100320000DDB02FA0EFC22FA05F2801841F1000101
:1003300003FA0EF2801843FA05F359410EE0A5F1D5
:1003400020050EF1200E012A03FA0EFC28BF4CF006
:10035000020C43FA05F3C01851EBE37101F00045BC
:1003600007D54FF0000EDCF1000C7EEB00006EEBC9
:100370000101B1F5801F1BD3B1F5001F0CD3490853
:100380005FEA30004FEA3C0C04F101044FEA4452AA
:1003900012F5800F80F09A80BCF1004F08BF5FEA31
:1003A000500C50F1000041EB045141EA050130BD11
:1003B0005FEA4C0C404141EB010111F4801FA4F1B4
:1003C0000104E9D191F0000F04BF01460020B1FA09
:1003D00081F308BF2033A3F10B03B3F120020CDA41
:1003E0000C3208DD02F1140CC2F10C0201FA0CF01F
:1003F00021FA02F10CE002F11402D8BFC2F1200C84
:1004000001FA02F120FA0CFCDCBF41EA0C01904039
:10041000E41AA2BF01EB0451294330BD6FEA040482
:100420001F3C1CDA0C340EDC04F11404C4F120026D
:1004300020FA04F001FA02F340EA030021FA04F37F
:1004400045EA030130BDC4F10C04C4F1200220FAD6
:1004500002F001FA04F340EA0300294630BD21FA14
:1004600004F0294630BD94F0000F83F4801306BFDA
:1004700081F480110134013D4EE77FEA645C18BFCE
:100480007FEA655C29D094EA050F08BF90EA020F65
:1004900005D054EA000C04BF1946104630BD91EA5D
:1004A000030F1EBF0021002030BD5FEA545C05D160
:1004B0004000494128BF41F0004130BD14F580049F
:1004C0003CBF01F5801130BD01F0004545F0FE4113
:1004D00041F470014FF0000030BD7FEA645C1ABF48
:1004E000194610467FEA655C1CBF0B46024650EA7F
:1004F000013406BF52EA033591EA030F41F40021AB
:1005000030BD00BF90F0000F04BF0021704730B530
:100510004FF4806404F132044FF000054FF0000105
:1005200050E700BF90F0000F04BF0021704730B5C6
:100530004FF4806404F1320410F0004548BF40429B
:100540004FF000013EE700BF42004FEAE2014FEAF0
:1005500031014FEA02701FBF12F07F4393F07F4FCB
:1005600081F06051704792F0000F14BF93F07F4FFD
:10057000704730B54FF4607401F0004521F0004140
:1005800020E700BF50EA010208BF704730B54FF0C6
:1005900000050AE050EA010208BF704730B511F0CB
:1005A000004502D5404261EB41014FF4806404F103
:1005B00032045FEA915C3FF4DCAE4FF003025FEA85
:1005C000DC0C18BF03325FEADC0C18BF033202EB0D
:1005D000DC02C2F1200300FA03FC20FA02F001FA67
:1005E00003FE40EA0E0021FA02F11444C1E600BF06
:1005F00070B54FF0FF0C4CF4E06C1CEA11541DBFB9
:100600001CEA135594EA0C0F95EA0C0F00F0DEF883
:100610002C4481EA030621EA4C5123EA4C5350EA68
:10062000013518BF52EA033541F4801143F48013B9
:1006300038D0A0FB02CE4FF00005E1FB02E506F04A
:100640000042E0FB03E54FF00006E1FB03569CF09F
:10065000000F18BF4EF0010EA4F1FF04B6F5007FA5
:1006600064F5407404D25FEA4E0E6D4146EB060617
:1006700042EAC62141EA55514FEAC52040EA5E50A0
:100680004FEACE2EB4F1FD0C88BFBCF5E06F1ED84A
:10069000BEF1004F08BF5FEA500E50F1000041EB81
:1006A000045170BD06F0004646EA010140EA02002E
:1006B00081EA0301B4EB5C04C2BFD4EB0C0541EA50
:1006C000045170BD41F480114FF0000E013C00F365
:1006D000AB8014F1360FDEBF002001F0004170BD89
:1006E000C4F10004203C35DA0C341BDC04F11404A2
:1006F000C4F1200500FA05F320FA04F001FA05F22E
:1007000040EA020001F0004221F0004110EBD370FA
:1007100021FA04F642EB06015EEA430E08BF20EA26
:10072000D37070BDC4F10C04C4F1200500FA04F3C9
:1007300020FA05F001FA04F240EA020001F000415B
:1007400010EBD37041F100015EEA430E08BF20EACE
:10075000D37070BDC4F1200500FA05F24EEA020E16
:1007600020FA04F301FA05F243EA020321FA04F045
:1007700001F0004121FA04F220EA020000EBD370FC
:100780005EEA430E08BF20EAD37070BD94F0000FFC
:100790000FD101F00046400041EB010111F4801F30
:1007A00008BF013CF7D041EA060195F0000F18BFE1
:1007B000704703F00046520043EB030313F4801F1D
:1007C00008BF013DF7D043EA0603704794EA0C0FD7
:1007D0000CEA135518BF95EA0C0F0CD050EA4106ED
:1007E00018BF52EA4306D1D181EA030101F000416A
:1007F0004FF0000070BD50EA410606BF1046194692
:1008000052EA430619D094EA0C0F02D150EA01369D
:1008100013D195EA0C0F05D152EA03361CBF1046DE
:1008200019460AD181EA030101F0004141F0FE417D
:1008300041F470014FF0000070BD41F0FE4141F401
:10084000780170BD70B54FF0FF0C4CF4E06C1CEA01
:1008500011541DBF1CEA135594EA0C0F95EA0C0FB6
:1008600000F0A7F8A4EB050481EA030E52EA033571
:100870004FEA013100F088804FEA03334FF0805592
:1008800045EA131343EA12634FEA022245EA1115BF
:1008900045EA10654FEA00260EF000419D4208BF70
:1008A000964244F1FD0404F5407402D25B084FEA1D
:1008B0003202B61A65EB03055B084FEA32024FF4C9
:1008C00080104FF4002CB6EB020E75EB030E22BF26
:1008D000B61A754640EA0C005B084FEA3202B6EBE6
:1008E000020E75EB030E22BFB61A754640EA5C0095
:1008F0005B084FEA3202B6EB020E75EB030E22BF25
:10090000B61A754640EA9C005B084FEA3202B6EB25
:10091000020E75EB030E22BFB61A754640EADC00E4
:1009200055EA060E18D04FEA051545EA16754FEA46
:1009300006164FEAC30343EA52734FEAC2025FEA64
:100940001C1CC0D111F4801F0BD141EA00014FF0F3
:1009500000004FF0004CB6E711F4801F04BF0143C4
:100960000020B4F1FD0C88BFBCF5E06F3FF6AFAEE0
:10097000B5EB030C04BFB6EB020C5FEA500C50F170
:10098000000041EB045170BD0EF0004E4EEA1131F3
:1009900014EB5C04C2BFD4EB0C0541EA045170BDFA
:1009A00041F480114FF0000E013C90E645EA060E3E
:1009B0008DE60CEA135594EA0C0F08BF95EA0C0F6C
:1009C0003FF43BAF94EA0C0F0AD150EA01347FF4B4
:1009D00034AF95EA0C0F7FF425AF104619462CE78B
:1009E00095EA0C0F06D152EA03353FF4FDAE1046EE
:1009F000194622E750EA410618BF52EA43067FF43F
:100A0000C5AE50EA41047FF40DAF52EA43057FF4CE
:100A1000EBAE12E753B94AB9002908BF00281CBF42
:100A20004FF0FF314FF0FF3000F07AB9ADF1080C14
:100A30006DE904CE00F006F8DDF804E0DDE90223FC
:100A400004B070472DE9F0478C460D460446089ED9
:100A5000002B51D18A4217466DD9B2FA82FEBEF1FF
:100A6000000F0BD0CEF1200C01FA0EF520FA0CFC91
:100A700002FA0EF74CEA050C00FA0EF44FEA174A98
:100A8000250CBCFBFAF81FFA87F90AFB18CC45EADB
:100A90000C4508FB09F3AB420AD9ED1908F1FF3206
:100AA00080F02381AB4240F22081A8F102083D444E
:100AB000ED1AA4B2B5FBFAF00AFB105544EA05445E
:100AC00000FB09F9A14509D9E41900F1FF3380F0D1
:100AD0000A81A14540F2078102383C44A4EB090495
:100AE00040EA08400021002E61D024FA0EF40023D1
:100AF00034607360BDE8F0878B4207D9002E54D074
:100B0000002186E821000846BDE8F087B3FA83F1AA
:100B1000002940F08E80AB4202D3824200F2FA807C
:100B2000841A65EB03050120AC46002E3FD086E811
:100B30001010BDE8F08712B90127B7FBF2F7B7FA3A
:100B400087FEBEF1000F34D1EB1B3A0C1FFA87FC75
:100B50000121B3FBF2F8250C02FB183345EA0345EB
:100B60000CFB08F3AB4207D9ED1908F1FF3002D2B4
:100B7000AB4200F2D1808046ED1AA3B2B5FBF2F091
:100B800002FB105543EA05440CFB00FCA44507D9C1
:100B9000E41900F1FF3302D2A44500F2B8801846F0
:100BA000A4EB0C0440EA08409DE731463046BDE81E
:100BB000F087CEF1200405FA0EF307FA0EF720FABB
:100BC00004F83A0C25FA04F448EA0308B4FBF2F1FD
:100BD0004FEA184502FB11441FFA87FC45EA044519
:100BE00001FB0CF3AB4200FA0EF409D9ED1901F147
:100BF000FF3080F08A80AB4240F2878002393D446A
:100C0000EB1A1FFA88F5B3FBF2F002FB103345EA4A
:100C1000034500FB0CF3AB4207D9ED1900F1FF3897
:100C20006FD2AB426DD902383D44EB1A40EA014124
:100C30008FE7C1F1200722FA07F88B4005FA01F48B
:100C400048EA030320FA07FE4FEA134CFD404EEA40
:100C5000040EB5FBFCF94FEA1E440CFB19551FFAB4
:100C600083F844EA054509FB08F4AC4202FA01F2B4
:100C700000FA01FA08D9ED1809F1FF3043D2AC426D
:100C800041D9A9F102091D442D1B1FFA8EFEB5FBA7
:100C9000FCF00CFB10554EEA054400FB08F8A0459B
:100CA00007D9E41800F1FF3529D2A04527D9023829
:100CB0001C4440EA0940A4EB0804A0FB02894C450F
:100CC000C6464D4615D312D056B1BAEB0E0364EBAF
:100CD000050404FA07F7CB401F43CC40376074602B
:100CE0000021BDE8F0871846F8E69046E0E6C245E8
:100CF000EAD2B8EB020E69EB03050138E4E72846B7
:100D0000D7E7404691E78146BEE7014678E70238DB
:100D10003C4445E7084608E7A8F102083D442BE7B4
:100D2000704700BF80B500AF0E4A0E4B1B6843F4FE
:100D3000007313600B4A0B4B1B6843F48063136012
:100D4000084A084B1B6843F480731360032000F0CB
:100D5000A9FB002000F008F803F05CFC0023184613
:100D600080BD00BF003C024080B582B000AF78601B
:100D7000124B1A68124B1B7819464FF47A73B3FB67
:100D8000F1F3B2FBF3F3184600F0C1FB0346002B6E
:100D900001D001230EE07B680F2B0AD8002279686E
:100DA0004FF0FF3000F089FB064A7B681360002398
:100DB00000E0012318460837BD4680BD140000201E
:100DC000040000200000002080B400AF064B1B7818
:100DD0001A46064B1B681344044A136000BFBD4605
:100DE0005DF8047B704700BF04000020BC030020B6
:100DF00080B400AF034B1B681846BD465DF8047B0A
:100E0000704700BFBC03002080B584B000AF78609D
:100E1000FFF7EEFFB8607B68FB60FB68B3F1FF3F54
:100E200005D0094B1B781A46FB681344FB6000BFD2
:100E3000FFF7DEFF0246BB68D21AFB689A42F7D37F
:100E400000BF1037BD4680BD0400002080B584B0CF
:100E500000AF78600023FB737B68002B01D1012376
:100E600033E07B681B6C002B09D17B6800225A643D
:100E70007B68002283F83C20786802F013FF7B68CF
:100E80001B6C03F01003002B18D17B681B6C23F440
:100E9000885323F0020343F002027B681A647868E7
:100EA00000F03CF97B6800225A647B681B6C23F0DD
:100EB000030343F001027B681A6401E00123FB7322
:100EC0007B68002283F83C20FB7B18461037BD4628
:100ED00080BD000090B484B000AF7860396000231A
:100EE000BB607B6893F83C30012B01D1022307E102
:100EF0007B68012283F83C203B681B68092B26D9BC
:100F00007B681A687B681B68D9683B681B689BB262
:100F1000184603465B0003441E3B072000FA03F318
:100F2000DB430B40D3607B681A687B681B68D96819
:100F30003B6898683B681B689BB21C4623465B0075
:100F400023441E3B00FA03F30B43D36023E07B688A
:100F50001A687B681B6819693B681B689BB2184656
:100F600003465B000344072000FA03F3DB430B4016
:100F700013617B681A687B681B6819693B6898680D
:100F80003B681B689BB21C4623465B00234400FA67
:100F900003F30B4313613B685B68062B24D87B6823
:100FA00019687B681B68586B3B685A6813469B003E
:100FB0001344053B1F2202FA03F3DB4303404B6358
:100FC0007B6819687B681B68586B3B681B689BB221
:100FD0001C463B685A6813469B001344053B04FAC1
:100FE00003F303434B634CE03B685B680C2B24D852
:100FF0007B6819687B681B68186B3B685A681346E6
:101000009B001344233B1F2202FA03F3DB430340FC
:101010000B637B6819687B681B68186B3B681B68EF
:101020009BB21C463B685A6813469B001344233B03
:1010300004FA03F303430B6323E07B6819687B68BE
:101040001B68D86A3B685A6813469B001344413BAF
:101050001F2202FA03F3DB430340CB627B6819686B
:101060007B681B68D86A3B681B689BB21C463B6860
:101070005A6813469B001344413B04FA03F30343AD
:10108000CB62224BFB607B681B68214A934209D1EB
:101090003B681B68122B05D1FB685B6843F4800238
:1010A000FB685A607B681B68194A934223D13B68EE
:1010B0001B68102B03D03B681B68112B1BD1FB68EE
:1010C0005B6843F40002FB685A603B681B68102BA6
:1010D00011D1104B1B68104AA2FB03239A0C134634
:1010E0009B0013445B00BB6002E0BB68013BBB603C
:1010F000BB68002BF9D17B68002283F83C200023D9
:1011000018461037BD4690BC704700BF0023014011
:10111000002001401400002083DE1B4380B485B012
:1011200000AF7860784BFB60FB685B6823F440326B
:10113000FB685A60FB685A687B685B681A43FB6807
:101140005A607B681B687A681268526822F4807261
:101150005A607B681B687A68126851687A681269FD
:1011600012020A435A607B681B687A6812685268E8
:1011700022F040725A607B681B687A681268516876
:101180007A6892680A435A607B681B687A681268BA
:10119000926822F400629A607B681B687A68126821
:1011A00091687A68D2680A439A607B689B6A574A5A
:1011B000934222D07B681B687A681268926822F09A
:1011C00070629A607B681B687A68126891687A68B6
:1011D000926A0A439A607B681B687A681268926810
:1011E00022F040529A607B681B687A6812689168A6
:1011F0007A68D26A0A439A600FE07B681B687A6853
:101200001268926822F070629A607B681B687A6844
:101210001268926822F040529A607B681B687A6874
:101220001268926822F002029A607B681B687A68F2
:10123000126891687A68926952000A439A607B68E2
:101240001B6A002B1BD07B681B687A681268526887
:1012500042F400625A607B681B687A6812685268C0
:1012600022F460425A607B681B687A681268516891
:101270007A68526A013A52030A435A6007E07B686F
:101280001B687A681268526822F400625A607B68B0
:101290001B687A681268D26A22F47002DA627B688C
:1012A0001B687A681268D16A7A68D269013A1205B5
:1012B0000A43DA627B681B687A681268926822F4D3
:1012C00000729A607B681B687A68126891687A6815
:1012D000126B52020A439A607B681B687A68126834
:1012E000926822F480629A607B681B687A68126850
:1012F00091687A68526992020A439A6000BF143773
:10130000BD465DF8047B7047002301400100000FDB
:1013100080B485B000AF78607B6803F00703FB60A2
:101320000C4BDB68BB60BA684FF6FF031340BB6031
:10133000FB681A02BB68134343F0BF6343F40033F6
:10134000BB60044ABB68D36000BF1437BD465DF87C
:10135000047B704700ED00E080B400AF044BDB6815
:101360001B0A03F007031846BD465DF8047B70476F
:1013700000ED00E080B483B000AF0346FB71094983
:1013800097F907305B09FA7902F01F02012000FA91
:1013900002F241F8232000BF0C37BD465DF8047B04
:1013A000704700BF00E100E080B483B000AF0346A7
:1013B0003960FB7197F90730002B0BDA0D49FB7987
:1013C00003F00F03043B3A68D2B21201D2B20B44CD
:1013D0001A7609E0084997F907303A68D2B2120143
:1013E000D2B20B4483F8002300BF0C37BD465DF832
:1013F000047B704700ED00E000E100E080B489B0BC
:1014000000AFF860B9607A60FB6803F00703FB6126
:10141000FB69C3F10703042B28BF0423BB61FB69ED
:101420000433062B02D9FB69033B00E000237B61F8
:101430000122BB6902FA03F35A1EBB681A407B699A
:101440009A4001217B6901FA03F3591E7B680B4026
:10145000134318462437BD465DF8047B70470000EF
:1014600080B582B000AF78607B68013BB3F1807FCC
:1014700001D301230FE00A4A7B68013B53600F212F
:101480004FF0FF30FFF790FF054B00229A60044BAE
:1014900007221A60002318460837BD4680BD00BFEA
:1014A00010E000E080B582B000AF78607868FFF7A8
:1014B0002FFF00BF0837BD4680BD80B586B000AFA6
:1014C0000346B9607A60FB7300237B61FFF744FF3A
:1014D00078617A68B9687869FFF790FF024697F9F2
:1014E0000F3011461846FFF75FFF00BF1837BD46A3
:1014F00080BD80B582B000AF0346FB7197F907301D
:101500001846FFF737FF00BF0837BD4680BD80B5DE
:1015100082B000AF78607868FFF7A2FF03461846F4
:101520000837BD4680BD000080B483B000AF78604E
:101530007B68042B06D1094A084B1B6843F004035F
:10154000136005E0054A054B1B6823F00403136094
:1015500000BF0C37BD465DF8047B704710E000E02B
:1015600080B500AF00F002F800BF80BD80B400AFCE
:1015700000BFBD465DF8047B7047000080B586B0B3
:1015800000AF786000237B61FFF732FC38617B6835
:10159000002B01D1012399E07B68002283F83420DD
:1015A0007B68022283F835207B681B687A681268A2
:1015B000126822F001021A600FE0FFF719FC0246E0
:1015C0003B69D31A052B08D97B6820225A657B68B2
:1015D000032283F83520032378E07B681B681B68AF
:1015E00003F00103002BE8D17B681B681B687B615B
:1015F0007A69384B13407B617B685A687B689B68CB
:101600001A437B68DB681A437B681B691A437B6853
:101610005B691A437B689B691A437B68DB691A43E1
:101620007B681B6A13437A6913437B617B685B6A3F
:10163000042B07D17B68DA6A7B681B6B13437A69DA
:1016400013437B617B681B687A691A607B681B683F
:101650005B697B617B6923F007037B617B685B6A65
:101660007A6913437B617B685B6A042B17D17B68C3
:101670009B6A7A6913437B617B68DB6A002B0ED01F
:10168000786800F0E9F90346002B08D07B68402217
:101690005A657B68012283F83520012316E07B68B8
:1016A0001B687A695A61786800F0A0F90346FB600C
:1016B0007B68DB6D3F229A40FB689A607B68002262
:1016C0005A657B68012283F83520002318461837B5
:1016D000BD4680BD3F8010F080B586B000AF786019
:1016E0000023BB60924B1B68924AA2FB03239B0A18
:1016F0007B617B689B6D3B613B691B68FB607B6822
:10170000DB6D08229A40FB681340002B1AD07B68DF
:101710001B681B6803F00403002B13D07B681B6855
:101720007A681268126822F004021A607B68DB6D26
:1017300008229A403B699A607B685B6D43F0010226
:101740007B685A657B68DB6D01229A40FB68134019
:10175000002B12D07B681B685B6903F08003002BB1
:101760000BD07B68DB6D01229A403B699A607B68F5
:101770005B6D43F002027B685A657B68DB6D042277
:101780009A40FB681340002B12D07B681B681B68D3
:1017900003F00203002B0BD07B68DB6D04229A4020
:1017A0003B699A607B685B6D43F004027B685A6515
:1017B0007B68DB6D10229A40FB681340002B43D0FE
:1017C0007B681B681B6803F00803002B3CD07B6818
:1017D000DB6D10229A403B699A607B681B681B682E
:1017E00003F48023002B18D07B681B681B6803F46C
:1017F0000023002B08D17B681B6C002B24D07B6856
:101800001B6C786898471FE07B689B6C002B1BD093
:101810007B689B6C7868984716E07B681B681B6840
:1018200003F48073002B07D17B681B687A68126809
:10183000126822F008021A607B681B6C002B03D030
:101840007B681B6C786898477B68DB6D20229A4028
:10185000FB681340002B00F08E807B681B681B68C0
:1018600003F01003002B00F086807B68DB6D2022E4
:101870009A403B699A607B6893F83530DBB2052B60
:1018800036D17B681B687A681268126822F01602EB
:101890001A607B681B687A681268526922F08002BD
:1018A0005A617B681B6C002B03D17B689B6C002BFF
:1018B00007D07B681B687A681268126822F00802F9
:1018C0001A607B68DB6D3F229A403B699A607B68B7
:1018D000002283F834207B68012283F835207B685E
:1018E0001B6D002B7DD07B681B6D7868984778E076
:1018F0007B681B681B6803F48023002B1CD07B686B
:101900001B681B6803F40023002B08D17B685B6C09
:10191000002B30D07B685B6C786898472BE07B6845
:10192000DB6B002B27D07B68DB6B7868984722E065
:1019300014000020B5814E1B7B681B681B6803F4F4
:101940008073002B0FD17B681B687A68126812685D
:1019500022F010021A607B68002283F834207B6832
:10196000012283F835207B68DB6B002B03D07B687A
:10197000DB6B786898477B685B6D002B32D07B68A7
:101980005B6D03F00103002B22D07B68052283F8F6
:1019900035207B681B687A681268126822F00102A1
:1019A0001A60BB680133BB607A69934207D87B68D1
:1019B0001B681B6803F00103002BF2D100E000BF9D
:1019C0007B68002283F834207B68012283F835206D
:1019D0007B68DB6C002B05D07B68DB6C78689847F4
:1019E00000E000BF1837BD4680BD00BF80B485B0A1
:1019F00000AF78607B681B68DBB2103B144AA2FB27
:101A000003231B09FB60134AFB6813441B781A4627
:101A10007B68DA65FB68032B09D97B681B6823F4B4
:101A20007F7323F003031A1D7B689A6507E07B68C8
:101A30001B6823F47F7323F003037A6893657B6844
:101A40009B6D18461437BD465DF8047B704700BF98
:101A5000ABAAAAAA4C06010880B485B000AF786092
:101A60000023FB737B689B6ABB607B689B69002BD0
:101A70001FD1BB68032B55D801A252F823F000BF39
:101A8000911A0008A31A0008911A0008251B0008E3
:101A90007B68DB6A03F08073002B45D00123FB7366
:101AA00042E07B68DB6AB3F1C07F3FD10123FB7367
:101AB0003CE07B689B69B3F5005F21D1BB68032BD9
:101AC00036D801A252F823F0D91A0008DF1A00080C
:101AD000D91A0008F11A00080123FB732FE07B6874
:101AE000DB6A03F08073002B24D00123FB7321E019
:101AF0007B68DB6AB3F1C07F1ED10123FB731BE05F
:101B0000BB68022B02D9032B03D018E00123FB731F
:101B100015E07B68DB6A03F08073002B0ED0012395
:101B2000FB730BE000BF0AE000BF08E000BF06E067
:101B300000BF04E000BF02E000BF00E000BFFB7B8D
:101B400018461437BD465DF8047B704780B489B0F1
:101B500000AF7860396000237B6100233B61002384
:101B6000BB610023FB6159E10122FB6902FA03F327
:101B70007B613B681A687B6913403B613A697B690A
:101B80009A4240F048813B685B68022B03D03B6877
:101B90005B68122B23D1FB69DA087B68083253F8A3
:101BA0002230BB61FB6903F007039B000F2202FA9E
:101BB00003F3DB43BA691340BB613B681A69FB69F5
:101BC00003F007039B0002FA03F3BA691343BB61F6
:101BD000FB69DA087B680832B96943F822107B6830
:101BE0001B68BB61FB695B00032202FA03F3DB4362
:101BF000BA691340BB613B685B6803F00302FB6991
:101C00005B0002FA03F3BA691343BB617B68BA69EC
:101C10001A603B685B68012B0BD03B685B68022B4A
:101C200007D03B685B68112B03D03B685B68122BC5
:101C300030D17B689B68BB61FB695B00032202FAC1
:101C400003F3DB43BA691340BB613B68DA68FB69A5
:101C50005B0002FA03F3BA691343BB617B68BA699C
:101C60009A607B685B68BB610122FB6902FA03F33F
:101C7000DB43BA691340BB613B685B681B0903F037
:101C80000102FB6902FA03F3BA691343BB617B6883
:101C9000BA695A607B68DB68BB61FB695B00032241
:101CA00002FA03F3DB43BA691340BB613B689A68ED
:101CB000FB695B0002FA03F3BA691343BB617B68FB
:101CC000BA69DA603B685B6803F08053002B00F070
:101CD000A2800023FB60564A554B5B6C43F4804363
:101CE0005364534B5B6C03F48043FB60FB68514AC5
:101CF000FB699B08023352F82330BB61FB6903F098
:101D000003039B000F2202FA03F3DB43BA6913407B
:101D1000BB617B68484A934219D07B68474A93422B
:101D200013D07B68464A93420DD07B68454A934264
:101D300007D07B68444A934201D1042308E007237B
:101D400006E0032304E0022302E0012300E0002375
:101D5000FA6902F0030292009340BA691343BB612F
:101D60003449FB699B080233BA6941F82320374B99
:101D70001B68BB613B69DB43BA691340BB613B68CD
:101D80005B6803F48033002B03D0BA693B691343CB
:101D9000BB612E4ABB6913602C4B5B68BB613B691E
:101DA000DB43BA691340BB613B685B6803F40033F3
:101DB000002B03D0BA693B691343BB61234ABB695B
:101DC0005360224B9B68BB613B69DB43BA6913409C
:101DD000BB613B685B6803F48013002B03D0BA69D6
:101DE0003B691343BB61194ABB699360174BDB68BE
:101DF000BB613B69DB43BA691340BB613B685B680D
:101E000003F40013002B03D0BA693B691343BB6191
:101E10000E4ABB69D360FB690133FB61FB690F2B81
:101E20007FF6A2AE00BF2437BD465DF8047B704745
:101E30000038024000380140000002400004024027
:101E400000080240000C024000100240003C01402B
:101E500080B582B000AF0346FB80084B5A69FB880F
:101E60001340002B06D0054AFB885361FB881846B7
:101E700002F0FEF800BF0837BD4680BD003C0140BF
:101E800080B584B000AF78600023FB600023BB60A6
:101E90007B68002B01D10123C8E07B6893F83D30BB
:101EA000DBB2002B06D17B68002283F83C207868E7
:101EB00002F05CF87B68242283F83D207B681B6875
:101EC0007A681268126822F001021A6001F0F6FACC
:101ED000B860BB68574AA2FB03239B0CFB607B687E
:101EE0001B68FA685A607B681A687B685B685249AD
:101EF0008B4202D8FB68013309E0FB684FF496710E
:101F000001FB03F34D49A1FB03139B09013313624A
:101F10007B6819687B685B68474A934212D87B6884
:101F20005B685B00BA68B2FBF3F3C3F30B03032BEC
:101F300006D97B685B685B00BA68B2FBF3F345E0E7
:101F4000042343E07B689B68002B0FD17B685A68B1
:101F500013465B001344BA68B2FBF3F3C3F30B03FD
:101F6000002B0CBF01230023DBB210E07B685A6812
:101F700013469B0013449A001344BA68B2FBF3F370
:101F8000C3F30B03002B0CBF01230023DBB2002B98
:101F900001D001231AE07B689B68002B0AD17B6883
:101FA0005A6813465B001344BA68B2FBF3F343F478
:101FB00000430BE07B685A6813469B0013449A0069
:101FC0001344BA68B2FBF3F343F44043CB617B683C
:101FD0001B687A68D1697A68126A0A431A607B685A
:101FE0001B687A6811697A68D2680A439A607B68CC
:101FF0001B687A6851697A6892690A43DA607B687B
:102000001B687A681268126842F001021A607B68E5
:1020100000221A647B68202283F83D207B6800221E
:102020001A637B68002283F83E200023184610378D
:10203000BD4680BD83DE1B43A0860100D34D6210E8
:1020400080B588B002AFF8607A601A460B467B8193
:1020500013463B8100237B61FEF7CAFE7861FB6873
:1020600093F83D30DBB2202B40F0EE807B6900938B
:10207000192301227749F86800F06CFC0346002B15
:1020800001D00223E1E0FB6893F83C30012B01D141
:102090000223DAE0FB68012283F83C20FB681B681E
:1020A0001B6803F00103012B07D0FB681B68FA686B
:1020B0001268126842F001021A60FB681B68FA6835
:1020C0001268126822F400621A60FB68212283F809
:1020D0003D20FB68102283F83E20FB6800221A6432
:1020E000FB687A685A62FB683A895A85FB685A4AE3
:1020F000DA62FB685B8D9AB2FB681A8579897B6925
:102100003A6AF86800F0DCFA0346002B0FD0FB684F
:102110001B6C042B05D1FB68002283F83C200123B3
:1021200093E0FB68002283F83C2003238DE000232A
:102130003B61FB681B685B693B61FB681B689B69D3
:102140003B613B6966E07A69396AF86800F0C1FC76
:102150000346002B0FD0FB681B6C042B09D1FB68D6
:102160001B68FA681268126842F400721A60012350
:102170006BE0032369E0FB681A68FB685B6A581C24
:10218000F96848621B781361FB685B8D9BB2013B69
:102190009AB2FB685A85FB681B8D013B9AB2FB68BB
:1021A0001A85FB681B685B6903F00403042B19D1D3
:1021B000FB681B8D002B15D0FB681A68FB685B6AF7
:1021C000581CF96848621B781361FB685B8D9BB2F1
:1021D000013B9AB2FB685A85FB681B8D013B9AB2A2
:1021E000FB681A857A69396AF86800F0AFFC034623
:1021F000002B0FD0FB681B6C042B09D1FB681B68FC
:10220000FA681268126842F400721A6001231CE036
:1022100003231AE0FB681B8D002B94D1FB681B681D
:10222000FA681268126842F400721A60FB68202291
:1022300083F83D20FB68002283F83E20FB680022E3
:1022400083F83C20002300E0022318461837BD46DF
:1022500080BD00BF020010000000FFFF80B58CB001
:1022600002AFF8607A601A460B467B8113463B81C9
:1022700000237B62FEF7BCFD7862FB6893F83D307B
:10228000DBB2202B40F015827B6A009319230122D8
:102290008549F86800F05EFB0346002B01D002235D
:1022A00008E2FB6893F83C30012B01D1022301E2E4
:1022B000FB68012283F83C20FB681B681B6803F065
:1022C0000103012B07D0FB681B68FA6812681268CB
:1022D00042F001021A60FB681B68FA681268126813
:1022E00022F400621A60FB68222283F83D20FB681A
:1022F000102283F83E20FB6800221A64FB687A688B
:102300005A62FB683A895A85FB68684ADA62FB6858
:102310005B8D9AB2FB681A8579897B6A3A6BF8689B
:1023200000F050FA0346002B0FD0FB681B6C042B07
:1023300005D1FB68002283F83C200123BAE1FB6849
:10234000002283F83C200323B4E1FB681B8D002BA3
:1023500013D100233B62FB681B685B693B62FB682F
:102360001B689B693B623B6AFB681B68FA681268E2
:10237000126842F400721A6088E1FB681B8D012B21
:102380001BD1FB681B68FA681268126822F480622D
:102390001A600023FB61FB681B685B69FB61FB68DB
:1023A0001B689B69FB61FB69FB681B68FA68126824
:1023B000126842F400721A6068E1FB681B8D022B00
:1023C0001BD1FB681B68FA681268126822F48062ED
:1023D0001A60FB681B68FA681268126842F40062AF
:1023E0001A600023BB61FB681B685B69BB61FB680B
:1023F0001B689B69BB61BB6948E1FB681B68FA68A5
:102400001268126842F480621A6000237B61FB68E4
:102410001B685B697B61FB681B689B697B617B69EF
:1024200034E1FB681B8D032B00F2EB80FB681B8DF6
:10243000012B27D17A6A396BF86800F0C4FB034698
:10244000002B07D0FB681B6C202B01D1032331E14B
:1024500001232FE1FB685B6A591CFA685162FA6834
:1024600012681269D2B21A70FB681B8D013B9AB2D6
:10247000FB681A85FB685B8D9BB2013B9AB2FB68D7
:102480005A8503E1FB681B8D022B4AD17B6A0093BE
:102490003B6B00220649F86800F05CFA0346002B0B
:1024A00008D0032306E100BF020010000000FFFF78
:1024B00004000100FB681B68FA681268126842F4A5
:1024C00000721A60FB685B6A591CFA685162FA680C
:1024D00012681269D2B21A70FB681B8D013B9AB266
:1024E000FB681A85FB685B8D9BB2013B9AB2FB6867
:1024F0005A85FB685B6A591CFA685162FA6812686F
:102500001269D2B21A70FB681B8D013B9AB2FB684C
:102510001A85FB685B8D9BB2013B9AB2FB685A85BA
:10252000B4E07B6A00933B6B00226449F86800F0DA
:1025300011FA0346002B01D00323BBE0FB681B68A4
:10254000FA681268126822F480621A60FB685B6A9B
:10255000591CFA685162FA6812681269D2B21A708C
:10256000FB681B8D013B9AB2FB681A85FB685B8D8B
:102570009BB2013B9AB2FB685A857B6A00933B6B26
:1025800000224E49F86800F0E5F90346002B01D01F
:1025900003238FE0FB681B68FA681268126842F434
:1025A00000721A60FB685B6A591CFA685162FA682B
:1025B00012681269D2B21A70FB681B8D013B9AB285
:1025C000FB681A85FB685B8D9BB2013B9AB2FB6886
:1025D0005A85FB685B6A591CFA685162FA6812688E
:1025E0001269D2B21A70FB681B8D013B9AB2FB686C
:1025F0001A85FB685B8D9BB2013B9AB2FB685A85DA
:1026000044E07A6A396BF86800F0DDFA0346002B83
:1026100007D0FB681B6C202B01D103234AE0012368
:1026200048E0FB685B6A591CFA685162FA681268F4
:102630001269D2B21A70FB681B8D013B9AB2FB681B
:102640001A85FB685B8D9BB2013B9AB2FB685A8589
:10265000FB681B685B6903F00403042B16D1FB685D
:102660005B6A591CFA685162FA6812681269D2B240
:102670001A70FB681B8D013B9AB2FB681A85FB68D8
:102680005B8D9BB2013B9AB2FB685A85FB681B8D40
:10269000002B7FF4C6AEFB68202283F83D20FB6848
:1026A000002283F83E20FB68002283F83C200023B0
:1026B00000E0022318462837BD4680BD0400010013
:1026C00080B588B002AFF8607A603B600B467B81D2
:1026D000FB68DB6A7B617B69042B06D07B69012B7D
:1026E00003D07B6913F5803F08D1FB681B68FA684B
:1026F0001268126842F480721A600BE0FB681B6B70
:10270000122B07D1FB681B68FA681268126842F442
:1027100080721A603B6800937B6800224FF00111C1
:10272000F86800F017F90346002B01D0032340E0BE
:10273000FB681B69B3F5804F07D1FB681B687A897A
:10274000D2B202F0FE021A6121E0FB681B687A89AE
:10275000D211D2B202F00602D2B262F00F02D2B2AD
:102760001A613B687A681549F86800F044F9034635
:10277000002B07D0FB681B6C042B01D1012318E050
:10278000032316E0FB681B687A89D2B21A613B68A2
:102790007A680B49F86800F02EF90346002B07D041
:1027A000FB681B6C042B01D1012302E0032300E032
:1027B000002318461837BD4680BD00BF0800010041
:1027C0000200010080B588B002AFF8607A603B601B
:1027D0000B467B81FB68DB6A7B61FB681B68FA68E0
:1027E0001268126842F480621A607B69042B06D07A
:1027F0007B69012B03D07B6913F5803F08D1FB680F
:102800001B68FA681268126842F480721A600BE062
:10281000FB681B6B112B07D1FB681B68FA681268F9
:10282000126842F480721A603B6800937B68002251
:102830004FF00111F86800F08DF80346002B01D02D
:1028400003237FE0FB681B69B3F5804F08D1FB6869
:102850001B687A89D2B242F00102D2B21A615FE0FB
:10286000FB681B687A89D211D2B202F00602D2B29A
:1028700062F00F02D2B21A613B687A683349F86895
:1028800000F0B9F80346002B07D0FB681B6C042B43
:1028900001D1012356E0032354E0FB681B687A89C9
:1028A000D2B21A613B687A682949F86800F0A3F847
:1028B0000346002B07D0FB681B6C042B01D10123BE
:1028C00040E003233EE000233B61FB681B685B693B
:1028D0003B61FB681B689B693B613B69FB681B684C
:1028E000FA681268126842F480721A603B680093BA
:1028F0007B6800224FF00111F86800F02BF80346C6
:10290000002B01D003231DE0FB681B687A89D211DC
:10291000D2B202F00602D2B262F00E02D2B21A6154
:102920003B687A680A49F86800F065F80346002BAE
:1029300007D0FB681B6C042B01D1012302E00323A9
:1029400000E0002318461837BD4680BD080001008E
:102950000200010080B584B000AFF860B9603B6050
:102960001346FB711FE03B68B3F1FF3F1BD03B6890
:10297000002B07D0FEF73CFA0246BB69D21A3B682F
:102980009A4210D9FB6800221A63FB68202283F860
:102990003D20FB68002283F83E20FB68002283F87C
:1029A0003C20032323E0BB681B0CDBB2012B0DD1C1
:1029B000FB681B685B69DA43BB6813409BB2002B62
:1029C0000CBF01230023DBB21A460CE0FB681B6836
:1029D0009B69DA43BB6813409BB2002B0CBF0123F9
:1029E0000023DBB21A46FB799A42BCD0002318467A
:1029F0001037BD4680BD80B584B000AFF860B960C7
:102A00007A603B6040E0FB681B685B6903F48063AD
:102A1000B3F5806F1CD1FB681B68FA6812681268F6
:102A200042F400721A60FB681B686FF480625A619E
:102A3000FB6804221A64FB6800221A63FB682022E8
:102A400083F83D20FB68002283F83C2001233CE012
:102A50007B68B3F1FF3F17D07B68002B07D0FEF7F0
:102A6000C7F902463B68D21A7B689A420CD9FB68C8
:102A700000221A63FB68202283F83D20FB680022B5
:102A800083F83C20032320E0BB681B0CDBB2012B46
:102A90000CD1FB681B685B69DA43BB6813409BB2CF
:102AA000002B14BF01230023DBB20BE0FB681B6883
:102AB0009B69DA43BB6813409BB2002B14BF012310
:102AC0000023DBB2002B9ED1002318461037BD46F1
:102AD00080BD80B584B000AFF860B9607A6029E04D
:102AE000F86800F0BAF80346002B01D0012329E072
:102AF000BB68B3F1FF3F1DD0BB68002B07D0FEF7CA
:102B000077F902467B68D21ABB689A4212D9FB68F1
:102B10001B6C43F02002FB681A64FB6800221A63F6
:102B2000FB68202283F83D20FB68002283F83C20CC
:102B3000032307E0FB681B685B6903F08003802BBD
:102B4000CED1002318461037BD4680BD80B584B075
:102B500000AFF860B9607A6029E0F86800F07DF8AD
:102B60000346002B01D0012329E0BB68B3F1FF3FEE
:102B70001DD0BB68002B07D0FEF73AF902467B68F0
:102B8000D21ABB689A4212D9FB681B6C43F0200230
:102B9000FB681A64FB6800221A63FB68202283F832
:102BA0003D20FB68002283F83C20032307E0FB68FC
:102BB0001B685B6903F00403042BCED10023184685
:102BC0001037BD4680BD80B584B000AFF860B960F5
:102BD0007A6036E0FB681B685B6903F01003102B1A
:102BE00014D1FB681B686FF010025A61FB68002269
:102BF0001A64FB6800221A63FB68202283F83D20D8
:102C0000FB68002283F83C20012322E0BB68002BF4
:102C100007D0FEF7EDF802467B68D21ABB689A42ED
:102C20000FD9FB681B6C43F02002FB681A64FB6839
:102C3000202283F83D20FB68002283F83C200323F8
:102C400007E0FB681B685B6903F04003402BC1D1C0
:102C5000002318461037BD4680BD80B483B000AF56
:102C600078607B681B685B6903F48063B3F5806FF1
:102C700014D17B681B686FF480625A617B68042200
:102C80001A647B6800221A637B68202283F83D2047
:102C90007B68002283F83C20012300E000231846D3
:102CA0000C37BD465DF8047B7047000080B586B0E8
:102CB00000AF78607B68002B01D101232DE27B6897
:102CC0001B6803F00103002B75D0A34B9B6803F036
:102CD0000C03042B0CD0A04B9B6803F00C03082BB7
:102CE00012D19D4B5B6803F48003B3F5800F0BD1C9
:102CF000994B1B6803F40033002B5BD07B685B6847
:102D0000002B57D1012308E27B685B68B3F5803F55
:102D100006D1914A904B1B6843F4803313601DE049
:102D20007B685B68B3F5A02F0CD18B4A8A4B1B687C
:102D300043F480231360884A874B1B6843F4803335
:102D400013600BE0844A844B1B6823F480331360C8
:102D5000814A814B1B6823F4802313607B685B6886
:102D6000002B13D0FEF744F8386108E0FEF740F876
:102D700002463B69D31A642B01D90323CDE1764B7C
:102D80001B6803F40033002BF0D014E0FEF730F89A
:102D9000386108E0FEF72CF802463B69D31A642B31
:102DA00001D90323B9E16C4B1B6803F40033002BFA
:102DB000F0D100E000BF7B681B6803F00203002B2A
:102DC00063D0654B9B6803F00C03002B0BD0624B68
:102DD0009B6803F00C03082B1CD15F4B5B6803F46A
:102DE0008003002B16D15C4B1B6803F00203002B01
:102DF00005D07B68DB68012B01D001238DE15649AA
:102E0000554B1B6823F0F8027B681B69DB001343FA
:102E10000B603AE07B68DB68002B20D04F4B01222F
:102E20001A60FDF7E5FF386108E0FDF7E1FF0246B3
:102E30003B69D31A022B01D903236EE1464B1B6871
:102E400003F00203002BF0D04349434B1B6823F0EF
:102E5000F8027B681B69DB0013430B6015E03F4BF6
:102E600000221A60FDF7C4FF386108E0FDF7C0FFDB
:102E700002463B69D31A022B01D903234DE1364B9D
:102E80001B6803F00203002BF0D17B681B6803F082
:102E90000803002B30D07B685B69002B16D0304BC9
:102EA00001221A60FDF7A4FF386108E0FDF7A0FFDA
:102EB00002463B69D31A022B01D903232DE1264B8D
:102EC0005B6F03F00203002BF0D015E0244B0022CF
:102ED0001A60FDF78DFF386108E0FDF789FF0246B3
:102EE0003B69D31A022B01D9032316E11A4B5B6FFE
:102EF00003F00203002BF0D17B681B6803F004038E
:102F0000002B00F0A0800023FB75134B1B6C03F01B
:102F10008053002B0FD10023FB600F4A0E4B1B6C1C
:102F200043F0805313640C4B1B6C03F08053FB6025
:102F3000FB680123FB750B4B1B6803F48073002BAC
:102F400021D1084A074B1B6843F480731360FDF7D7
:102F50004FFF386111E000BF0038024000004742D7
:102F6000800E474200700040FDF742FF02463B6979
:102F7000D31A022B01D90323CFE06A4B1B6803F459
:102F80008073002BF0D07B689B68012B06D1664ACA
:102F9000654B1B6F43F0010313671CE07B689B6864
:102FA000052B0CD1604A604B1B6F43F00403136781
:102FB0005D4A5D4B1B6F43F0010313670BE05A4AF8
:102FC000594B1B6F23F001031367574A564B1B6F76
:102FD00023F0040313677B689B68002B15D0FDF773
:102FE00007FF38610AE0FDF703FF02463B69D31A89
:102FF00041F28832934201D903238EE04A4B1B6F82
:1030000003F00203002BEED014E0FDF7F1FE38616F
:103010000AE0FDF7EDFE02463B69D31A41F2883221
:10302000934201D9032378E03F4B1B6F03F0020367
:10303000002BEED1FB7D012B05D13B4A3A4B1B6C9B
:1030400023F0805313647B689B69002B64D0364B5C
:103050009B6803F00C03082B5CD07B689B69022BF8
:1030600041D1324B00221A60FDF7C2FE386108E000
:10307000FDF7BEFE02463B69D31A022B01D903239A
:103080004BE0294B1B6803F00073002BF0D126495D
:103090007B68DA697B681B6A1A437B685B6A9B0101
:1030A0001A437B689B6A5B08013B1B041A437B68DD
:1030B000DB6A1B0613434B601C4B01221A60FDF7B1
:1030C00097FE386108E0FDF793FE02463B69D31A8C
:1030D000022B01D9032320E0134B1B6803F000737C
:1030E000002BF0D018E0114B00221A60FDF780FE93
:1030F000386108E0FDF77CFE02463B69D31A022BDB
:1031000001D9032309E0084B1B6803F00073002B6F
:10311000F0D101E0012300E0002318461837BD4636
:1031200080BD00BF00700040003802406000474290
:1031300080B584B000AF786039607B68002B01D126
:103140000123CAE0674B1B6803F00F023B689A42F9
:103150000CD2644B3A68D2B21A70624B1B6803F00F
:103160000F023B689A4201D00123B6E07B681B68DE
:1031700003F00203002B20D07B681B6803F00403DC
:10318000002B05D0584A584B9B6843F4E05393609A
:103190007B681B6803F00803002B05D0524A524B92
:1031A0009B6843F4604393604F494F4B9B6823F007
:1031B000F0027B689B6813438B607B681B6803F09D
:1031C0000103002B44D07B685B68012B07D1464B81
:1031D0001B6803F40033002B19D101237DE07B68C9
:1031E0005B68022B03D07B685B68032B07D13E4BE7
:1031F0001B6803F00073002B09D101236DE03A4BEB
:103200001B6803F00203002B01D1012365E036495E
:10321000354B9B6823F003027B685B6813438B602C
:10322000FDF7E6FDF8600AE0FDF7E2FD0246FB6807
:10323000D31A41F28832934201D903234DE02A4B3D
:103240009B6803F00C027B685B689B009A42EBD1A1
:10325000244B1B6803F00F023B689A420CD9214BA8
:103260003A68D2B21A701F4B1B6803F00F023B681A
:103270009A4201D0012330E07B681B6803F004030D
:10328000002B08D01849184B9B6823F4E0527B6848
:10329000DB6813438B607B681B6803F00803002B1B
:1032A00009D01149104B9B6823F460427B681B696D
:1032B000DB0013438B6000F01DF801460A4B9B684E
:1032C0001B0903F00F03094AD35C21FA03F3084AF0
:1032D00013600020FDF748FD002318461037BD4657
:1032E00080BD00BF003C0240003802405406010887
:1032F000140000202DE9F04F8FB000AF0023FB62D7
:1033000000237B630023BB6200233B63624B9B680B
:1033100003F00C03042B07D0082B08D0002B40F03F
:10332000B2805E4B3B63B1E05D4B3B63AEE05A4B1A
:103330005B6803F03F03FB62574B5B6803F4800359
:10334000002B4ED0544B5B689B094FF0000440F2B9
:10335000FF114FF0000201EA030102EA04020B46EA
:10336000144660017862786A40EAD36078625B0153
:103370003B62D7E908345B1A64EB02044FEA841914
:1033800049EA93694FEA8318B8EB030869EB04092B
:103390004FEAC903FB61FB6943EA5873FB614FEADB
:1033A000C803BB61D7E9068918EB010849EB02099C
:1033B0004FEA49237B617B6943EAD8537B614FEA3B
:1033C00048233B61D7E9048940464946FB6A4FF0F0
:1033D00000041A462346FDF71DFB03460C467B639B
:1033E00043E02D4B5B689B094FF0000440F2FF1156
:1033F0004FF0000201EA030102EA04020B46144600
:103400006001F860F86840EAD360F8605B01BB6077
:10341000D7E902345B1A64EB0204A60146EA93661C
:103420009D01ED1A66EB0406F3007B607B6843EABE
:1034300055737B60EB003B6097E860006D1846EBCE
:1034400002064FEA862B4BEA955B4FEA852A5546E2
:103450005E4628463146FB6A4FF000041A46234672
:10346000FDF7D8FA03460C467B630B4B5B681B0CDD
:1034700003F0030301335B00BB627A6BBB6AB2FBF0
:10348000F3F33B6302E0054B3B6300BF3B6B184625
:103490003C37BD46BDE8F08F003802400024F40000
:1034A00000127A0080B400AF034B1B681846BD467B
:1034B0005DF8047B704700BF1400002080B500AFAA
:1034C000FFF7F0FF0146054B9B689B0A03F00703DB
:1034D000034AD35C21FA03F3184680BD003802404A
:1034E0006406010880B500AFFFF7DCFF0146054B1D
:1034F0009B685B0B03F00703034AD35C21FA03F3D9
:10350000184680BD003802406406010880B582B0CC
:1035100000AF78607B68002B01D101233FE07B681E
:1035200093F83930DBB2002B06D17B68002283F898
:103530003820786801F01AFA7B68242283F8392051
:103540007B681B687A681268D26822F40052DA60DD
:10355000786800F00BF97B681B687A68126812695A
:1035600022F490421A617B681B687A68126852697B
:1035700022F02A025A617B681B687A681268D26856
:1035800042F40052DA607B680022DA637B68202212
:1035900083F839207B68202283F83A2000231846DC
:1035A0000837BD4680BD80B588B002AFF860B9600D
:1035B0003B601346FB8000237B61FB6893F8393046
:1035C000DBB2202B40F08280BB68002B02D0FB884E
:1035D000002B01D101237AE0FB6893F83830012BEE
:1035E00001D1022373E0FB68012283F83820FB68D5
:1035F0000022DA63FB68212283F83920FDF7F8FB0B
:103600007861FB68FA889A84FB68FA88DA8441E07A
:10361000FB68DB8C9BB2013B9AB2FB68DA84FB68E7
:103620009B68B3F5805F21D13B6800937B690022E2
:103630008021F86800F04FF80346002B01D00323E7
:1036400045E0BB683B61FB681B683A691288C2F3BE
:1036500008025A60FB681B69002B03D1BB68023368
:10366000BB6017E0BB680133BB6013E03B680093AD
:103670007B6900228021F86800F02DF80346002BBA
:1036800001D0032323E0FB681A68BB68591CB960AA
:103690001B785360FB68DB8C9BB2002BB8D13B6876
:1036A00000937B6900224021F86800F014F803467B
:1036B000002B01D003230AE0FB68202283F8392085
:1036C000FB68002283F83820002300E0022318461C
:1036D0001837BD4680BD80B584B000AFF860B960D2
:1036E0003B601346FB712CE0BB69B3F1FF3F28D070
:1036F000BB69002B07D0FDF77BFB02463B68D21A63
:10370000BB699A421DD9FB681B68FA681268D268C7
:1037100022F4D072DA60FB681B68FA68126852699A
:1037200022F001025A61FB68202283F83920FB68ED
:10373000202283F83A20FB68002283F838200323F4
:103740000FE0FB681B681A68BB681A40BB689A42A6
:103750000CBF01230023DBB21A46FB799A42C3D087
:10376000002318461037BD4680BD0000F0B585B077
:1037700000AF78600023FB607B681B681B69FB60FF
:10378000FB6823F44053FB607B68DB68FA681343F3
:10379000FB607B681B68FA681A617B681B68DB68E2
:1037A000FB60FB6823F4164323F00C03FB607B688B
:1037B0009A687B681B691A437B685B691A437B685C
:1037C000DB691343FA681343FB607B681B68FA6884
:1037D000DA607B681B685B69FB60FB6823F44073FD
:1037E000FB607B689B69FA681343FB607B681B681E
:1037F000FA685A617B68DB69B3F5004F40F0E480FA
:103800007B681B68AB4A934204D07B681B68AA4A5A
:1038100093426CD17B681C68FFF764FE0246134636
:103820009B0013449A001A447B685B685B00B2FB00
:10383000F3F3A24AA2FB03235B091D01FFF752FE2B
:10384000024613469B0013449A001A447B685B6847
:103850005B00B2FBF3F6FFF745FE024613469B0002
:1038600013449A001A447B685B685B00B2FBF3F375
:10387000924AA2FB03235B09642202FB03F3F31ABF
:10388000DB0032338D4AA2FB03235B095B0003F4A8
:10389000F8731D44FFF726FE024613469B001344AF
:1038A0009A001A447B685B685B00B2FBF3F6FFF793
:1038B00019FE024613469B0013449A001A447B6883
:1038C0005B685B00B2FBF3F37C4AA2FB03235B095A
:1038D000642202FB03F3F31ADB003233774AA2FBC4
:1038E00003235B0903F007032B44A36054E17B68C7
:1038F0001C68FFF7E3FD024613469B0013449A0041
:103900001A447B685B685B00B2FBF3F36B4AA2FB73
:1039100003235B091D01FFF7D1FD024613469B00FF
:1039200013449A001A447B685B685B00B2FBF3F6B1
:10393000FFF7C4FD024613469B0013449A001A4445
:103940007B685B685B00B2FBF3F35C4AA2FB03237A
:103950005B09642202FB03F3F31ADB003233574A9C
:10396000A2FB03235B095B0003F4F8731D44FFF71C
:10397000A5FD024613469B0013449A001A447B6837
:103980005B685B00B2FBF3F6FFF798FD0246134657
:103990009B0013449A001A447B685B685B00B2FB8F
:1039A000F3F3464AA2FB03235B09642202FB03F301
:1039B000F31ADB003233414AA2FB03235B0903F015
:1039C00007032B44A360E7E07B681B68394A9342F6
:1039D00004D07B681B68384A934271D17B681C68AD
:1039E000FFF780FD024613469B0013449A001A44D9
:1039F0007B685B689B00B2FBF3F3304AA2FB0323B6
:103A00005B091D01FFF76EFD024613469B00134440
:103A10009A001A447B685B689B00B2FBF3F6FFF7E1
:103A200061FD024613469B0013449A001A447B68CA
:103A30005B689B00B2FBF3F3204AA2FB03235B0904
:103A4000642202FB03F3F31A1B0132331B4AA2FB6D
:103A500003235B0903F0F0031D44FFF743FD024617
:103A600013469B0013449A001A447B685B689B00D2
:103A7000B2FBF3F6FFF736FD024613469B001344F4
:103A80009A001A447B685B689B00B2FBF3F30B4A15
:103A9000A2FB03235B09642202FB03F3F31A1B015D
:103AA0003233064AA2FB03235B0903F00F032B44C6
:103AB000A36071E000100140001401401F85EB512C
:103AC0007B681C68FFF7FAFC024613469B00134410
:103AD0009A001A447B685B689B00B2FBF3F3304AA0
:103AE000A2FB03235B091D01FFF7E8FC0246134616
:103AF0009B0013449A001A447B685B689B00B2FBEE
:103B0000F3F6FFF7DBFC024613469B0013449A00D2
:103B10001A447B685B689B00B2FBF3F3204AA2FB6C
:103B200003235B09642202FB03F3F31A1B01323304
:103B30001B4AA2FB03235B0903F0F0031D44FFF7BC
:103B4000BDFC024613469B0013449A001A447B684E
:103B50005B689B00B2FBF3F6FFF7B0FC024613462E
:103B60009B0013449A001A447B685B689B00B2FB7D
:103B7000F3F30B4AA2FB03235B09642202FB03F36A
:103B8000F31A1B013233064AA2FB03235B0903F03D
:103B90000F032B44A360FFE700BF1437BD46F0BD01
:103BA0001F85EB5180B500AF0B4B1B6818460BF01F
:103BB000D3FD03461A46094B1A60084B1B68002BBD
:103BC00004D107480CF0DAF9002303E005480CF0B3
:103BD000D5F90123184680BD08000020C00300204D
:103BE000440301085C03010880B584B000AF294B91
:103BF000294A1A60274B4FF440325A60254B002265
:103C00009A60244B01221A61224B01229A61214BB6
:103C100000221A621F4B0022DA621E4B1F4A9A6270
:103C20001C4B0022DA601B4B0222DA61194B012285
:103C30001A63184B01225A611648FDF707F903462B
:103C4000002B03D04A21164800F0BEFC0A233B603B
:103C500001237B600723BB603B4619460D48FDF7F7
:103C600039F90346002B03D054210D4800F0ACFC79
:103C700002237B603B4619460648FDF72BF90346B5
:103C8000002B03D05C21064800F09EFC00BF1037DB
:103C9000BD4680BDC4030020002001400100000F8C
:103CA0001004010880B588B000AF78607B681B689D
:103CB000294A93424BD10023BB60284A274B5B6CB7
:103CC00043F480735364254B5B6C03F48073BB60D7
:103CD000BB680323FB6003233B6100237B6107F187
:103CE0000C0319461E48FDF731FF1E4B1E4A1A6091
:103CF0001C4B00225A601B4B00229A60194B002279
:103D0000DA60184B4FF480621A61164B4FF4006270
:103D10005A61144B4FF400529A61124B4FF4807267
:103D2000DA61104B00221A620E4B00225A620D48D3
:103D3000FDF724FC0346002B03D084210B4800F040
:103D400043FC7B68074A9A63064A7B68936300BF1B
:103D50002037BD4680BD00BF002001400038024032
:103D6000000802400C040020106402401004010806
:103D700080B582B000AF00237B60104A0F4B1B6BF5
:103D800043F4800313630D4B1B6B03F480037B60D0
:103D90007B68002200213820FDF78FFB3820FDF7DB
:103DA000A8FB002200213920FDF787FB3920FDF711
:103DB000A0FB00BF0837BD4680BD00BF00380240F1
:103DC00080B58AB000AF00233B61314A304B1B6B9A
:103DD00043F0040313632E4B1B6B03F004033B619E
:103DE0003B690023FB602A4A294B1B6B43F080038D
:103DF0001363274B1B6B03F08003FB60FB680023FE
:103E0000BB60234A224B1B6B43F001031363204B1F
:103E10001B6B03F00103BB60BB6800237B601C4A83
:103E20001B4B1B6B43F002031363194B1B6B03F01B
:103E300002037B607B684FF400537B61154BBB61D1
:103E40000023FB6107F1140319461348FDF77EFEBA
:103E500030237B61114BBB610123FB6107F114032C
:103E600019460F48FDF772FE002200210A20FDF7D7
:103E700024FB0A20FDF73DFB002200211720FDF75F
:103E80001CFB1720FDF735FB00BF2837BD4680BD62
:103E9000003802400000111000080240000021100C
:103EA0000000024080B500AF134B144A1A60124B59
:103EB000134A5A60104B00229A600F4B0022DA60BE
:103EC0000D4B4FF480421A610B4B00225A610A4B92
:103ED00000229A61084B0022DA61074B00221A6225
:103EE0000548FDF7CDFF0346002B03D043210548CD
:103EF00000F06AFB00BF80BDC004002000540040F9
:103F0000801A06002004010880B500AF134B144A44
:103F10001A60124B134A5A60104B00229A600F4BE2
:103F20000022DA600D4B4FF480421A610B4B0022E5
:103F30005A610A4B00229A61084B0022DA61074B52
:103F400000221A620548FDF79BFF0346002B03D0B1
:103F50005621054800F038FB00BF80BD6C040020EE
:103F6000005C0040801A06002004010880B58AB079
:103F700000AF78607B681B682D4A93421FD14FF4D5
:103F800040737B611223BB610123FB6103233B620E
:103F900004237B6207F1140319462648FDF7D6FD7A
:103FA00000233B61244A244B1B6C43F4001313642D
:103FB000214B1B6C03F400133B613B6934E07B68CD
:103FC0001B681E4A93422FD14FF400737B6112236A
:103FD000BB610123FB6103233B6204237B6207F186
:103FE000140319461648FDF7B1FD4FF480737B6149
:103FF0001223BB610123FB6103233B6204237B6229
:1040000007F1140319460F48FDF7A0FD0023FB60DC
:10401000094A094B1B6C43F400031364064B1B6CE9
:1040200003F40003FB60FB6800BF2837BD4680BD7A
:10403000005400400004024000380240005C004090
:10404000000802400000024080B584B000AFF86074
:10405000B9607A607B689AB23223B9680348FFF787
:10406000A2FA7B6818461037BD4680BDE40A0020DE
:1040700080B483B000AF0346FB80FB88202B04D1C3
:10408000094B1B680133084A1360FB88102B04D1CD
:10409000064B1B680133054A136000BF0C37BD4651
:1040A0005DF8047B704700BFBC080020CC080020EE
:1040B0002DE9F04184B004AF574B1B68002B57D15A
:1040C000564B1B68184605F029FE03461A46544B0A
:1040D0001A60524B1B68184605F0A4FD03461A46A9
:1040E0004F4B1A604D4B1B68184605F0F0FD034618
:1040F0001A464B4B1A60494B1B680321184605F0C2
:10410000F2FE03461A46464B1A60444B1B680321D5
:10411000184605F030FF03461A46414B1A603F4BE4
:104120001B684049184605F0ADFF03461A463C4B54
:104130001A603A4B1B684FF4C871184606F020F914
:1041400003461A46364B1A606420FCF75DFE334B7B
:104150001B68184606F08AFA03461A46304B1A6066
:104160002F4B1B68002B03D02F480BF007FFFEE7F7
:1041700030BF2E4B1B68002B43D02C4B00221A6003
:10418000264B1B682A49184606F054FD03461A467A
:10419000234B1A60224B1B68002B29D1244BDB7E5A
:1041A0001E46234BB3F918309846214B9B6818469E
:1041B000FCF7A8F94FF000021E4BFCF743FB034647
:1041C0000C4625461C461A4BDB681846FCF79AF944
:1041D0000FA3D3E90023FCF735FB02460B46CDE9DC
:1041E0000223CDE900454246314613480BF052FE0A
:1041F0000A4B1B68184606F02FFB03461A46084B6D
:104200001A6000BFBD46BDE8F08100BFAFF300807B
:104210000000000000E7EF40740300200C000020C5
:10422000D00800207011010030040108CC080020E3
:10423000780300200000F040540401080000000052
:104240002DE9F04186B004AF5B4B1B68184600F0C7
:1042500017FF03461A46594B1A60574B1B681846FE
:1042600000F028FC03461A46544B1A60524B1B6858
:10427000184600F083FD03461A46504B1A604E4B19
:104280001B680021184600F099FF03461A464B4B65
:104290001A60494B1B6848F2E801184601F008F81B
:1042A00003461A46454B1A6041F699137B604FF45A
:1042B00070133B60404B1B687A680121184601F07F
:1042C000C3FA03461A463D4B1A603B4B1B683A68DB
:1042D0000021184601F0B8FA03461A46374B1A6017
:1042E000354B1B6812220021184601F007F80346DF
:1042F0001A46324B1A60304B1B680E2201211846B9
:1043000000F0FCFF03461A462C4B1A602A4B1B6830
:10431000184601F055FC03461A46284B1A606420E3
:10432000FCF772FD254B1B68002B03D024480BF0D3
:1043300025FEFEE730BF204B1B682249184601F0DE
:1043400065FE03461A461D4B1A601C4B1B68002B6A
:1043500028D11C4B1B7E1E461A4B1B899846194BB5
:10436000DB681846FCF7CEF84FF00002164BFCF75E
:1043700069FA03460C4625461C46124B1B69184633
:10438000FCF7C0F80AA3D3E90023FCF75BFA024666
:104390000B46CDE90223CDE90045424631460B48A4
:1043A0000BF078FD00BF0837BD46BDE8F08100BFC7
:1043B0000000000000E7EF4010000020C4080020CB
:1043C00070040108940300200000F04094040108E8
:1043D00080B582B000AFFCF7A5FC00F07BF8FFF7DA
:1043E000EFFCFFF7C5FCFFF7FFFBFFF75BFD00F0FD
:1043F0008FFAFFF789FD00F05DFA2D480BF0BEFD46
:1044000000F0E8F8FFF7CEFB00F0DEF90021002015
:1044100000F038FA0021012000F034FA254B522236
:1044200083F89823234B244AC3F8A023214B4FF44D
:10443000C872A3F89A23214B522283F85C211F4BA8
:104440001F4AC3F868211D4B4FF4C872A3F85E21C0
:104450001C4B1B68FA1D40F20F11184609F0E2FCD4
:10446000FB79194618480BF015FD164B1B68FA1D11
:104470004FF48871184609F0D5FCFB7919461348AA
:104480000BF008FD0F4B1B683A1D40F20F11184648
:1044900009F0FAFCBB8819460D480BF0FBFCFFF74E
:1044A00007FEFFF7CDFE4FF49670FCF7ADFCF6E784
:1044B000B0040108140500206C040020D40800207A
:1044C000C00400200C000020CC040108E80401080E
:1044D0000405010880B594B000AF0023BB60364AE4
:1044E000354B1B6C43F080531364334B1B6C03F050
:1044F0008053BB60BB6800237B60304A2F4B1B6836
:1045000023F4404343F4004313602C4B1B6803F433
:1045100040437B607B6802233B620123FB621023E4
:104520003B630223BB630023FB6310233B644FF414
:10453000A8737B640423BB640723FB6407F1200397
:104540001846FEF7B3FB0346002B04D040F2471198
:104550001B4800F039F80F23FB6002233B61002366
:104560007B614FF48053BB610023FB6107F10C03B7
:1045700002211846FEF7DCFD0346002B04D040F272
:1045800053110F4800F020F8FEF78CFF02460D4B48
:10459000A3FB02239B091846FCF7B9FF0420FCF794
:1045A000C3FF002200214FF0FF30FCF786FF00BF61
:1045B0005037BD4680BD00BF00380240007000404B
:1045C00014050108D34D621080B483B000AF786049
:1045D0003960FEE780B500AF02235B0018460BF0A0
:1045E000BBF803461A46084B1A60074B1B68002BA2
:1045F00004D106480BF0C2FC002303E004480BF092
:10460000BDFC0123184680BDC00800202405010818
:104610003805010880B582B000AF00237B60254AD1
:10462000244B5B6C43F480435364224B5B6C03F478
:1046300080437B607B6800233B601E4A1D4B1B6CE4
:1046400043F0805313641B4B1B6C03F080533B609F
:104650003B680720FCF726FF002200216FF00B00CB
:10466000FCF72BFF002200216FF00A00FCF725FF6A
:10467000002200216FF00900FCF71FFF002200213B
:104680006FF00400FCF719FF002200216FF0030017
:10469000FCF713FF002200216FF00100FCF70DFF73
:1046A000002200214FF0FF30FCF707FF00BF083762
:1046B000BD4680BD0038024080B400AF00BFBD469B
:1046C0005DF8047B704780B400AFFEE780B400AFB4
:1046D000FEE780B400AFFEE780B400AFFEE780B431
:1046E00000AF00BFBD465DF8047B704780B400AFEB
:1046F00000BFBD465DF8047B704780B400AF00BFCB
:10470000BD465DF8047B704780B500AFFCF75CFBED
:10471000FCF726FF00BF80BD80B500AF1020FDF77D
:1047200097FB00BF80BD80B500AF2020FDF790FB58
:1047300000BF80BD80B500AF0248FCF7CDFF00BFD1
:1047400080BD00BF0C04002080B500AF0248FCF71C
:10475000C3FF00BF80BD00BF440A002080B400AF8B
:10476000164A164BD3F8883043F47003C2F88830E9
:10477000134A134B1B6843F001031360104B0022D4
:104780009A600F4A0E4B1B6823F0847323F4803326
:1047900013600B4B0B4A5A60094A094B1B6823F400
:1047A00080231360064B0022DA60044B4FF0006256
:1047B0009A6000BFBD465DF8047B704700ED00E0E5
:1047C000003802401030002480B582B000AF0223D0
:1047D0005B0018460AF0C0FF03461A46244B1A60D5
:1047E000022318460AF0B8FF03461A46214B1A6006
:1047F00002235B0018460AF0AFFF03461A461E4B21
:104800001A601B4B1B68002B07D01A4B1B68002B30
:1048100003D0194B1B68002B04D118480BF0AEFBDA
:10482000002321E00023FB7116E0114B1A68FB798D
:104830005B00134400221A800E4B1A68FB79134464
:1048400000221A700C4B1A68FB795B00134400229B
:104850001A80FB790133FB710222FB799342E4D386
:1048600007480BF08BFB012318460837BD4680BD77
:10487000400A0020C8080020B8080020840501086C
:10488000A005010880B483B000AF03460A46FB715F
:104890001346BB80064B1A68FB795B001344BA8849
:1048A0001A8000BF0C37BD465DF8047B704700BF1F
:1048B000B808002080B500AF124B134A1A60114BA4
:1048C0004FF4E1325A600F4B00229A600D4B0022E8
:1048D000DA600C4B00221A610A4B0C225A61094B18
:1048E00000229A61074B0022DA610648FEF70EFEAD
:1048F0000346002B03D045210448FFF765FE00BFA7
:1049000080BD00BFE40A002000440040FC0501080F
:1049100080B500AF124B134A1A60114B4FF4E132CD
:104920005A600F4B00229A600D4B0022DA600C4B4C
:1049300000221A610A4B04225A61094B00229A6133
:10494000074B0022DA610648FEF7E0FD0346002B24
:1049500003D058210448FFF737FE00BF80BD00BFD9
:10496000A40A002000140140FC05010880B58AB0AB
:1049700000AF78607B681B683C4A93421ED10023DD
:104980003B613B4A3A4B1B6C43F400331364384B96
:104990001B6C03F400333B613B690C237B610223F6
:1049A000BB610123FB6103233B6207237B6207F1A9
:1049B000140319462F48FDF7C9F853E07B681B68BC
:1049C0002D4A93424ED10023FB60294A284B5B6C51
:1049D00043F020035364264B5B6C03F02003FB6021
:1049E000FB68C0237B610223BB610123FB610323BE
:1049F0003B6208237B6207F1140319461F48FDF749
:104A0000A5F81F4B1F4A1A601D4B4FF020625A60D9
:104A10001B4B00229A601A4B0022DA60184B4FF4AD
:104A200080621A61164B00225A61154B00229A616E
:104A3000134B4FF48072DA61114B00221A62104B53
:104A400000225A620E48FCF799FD0346002B03D062
:104A500099210D48FFF7B8FD7B68094A5A63084A57
:104A60007B68936300BF2837BD4680BD004400408B
:104A700000380240000002400014014000080240DB
:104A8000440A002028640240FC05010880B584B077
:104A900000AF786039600023FB733968786801F0F3
:104AA0009FFC0346FB7397F90F3018461037BD463D
:104AB00080BD0000B0B596B000AF7860002387F8E5
:104AC000573097F95730002B07D10022882178689A
:104AD00004F0A4FF034687F857307B68002283F870
:104AE000F0207B684FF47A72A3F852217B684FF470
:104AF000C872A3F854217B689E4AC3F858217B688A
:104B00009D4AC3F8D4207B6800221A6207F1100383
:104B10001946786800F0C2FA034687F8573097F9CB
:104B20005730002B12D100233B7400237B747B6829
:104B300003F1100407F110050FCD0FC40FCD0FC402
:104B40000FCD0FC495E80F0084E80F007B68642246
:104B5000A3F834217B684FF46172A3F836217B6897
:104B60004FF4FA72A3F838217B684FF42062A3F85F
:104B70003C217B68012283F8502101228021786842
:104B800004F04CFF03461A4697F85730134387F852
:104B900057300122FF21786804F040FF03461A468F
:104BA00097F85730134387F8573000220021786870
:104BB00004F034FF03461A4697F85730134387F83A
:104BC000573007F10F031A469121786804F0ACFFC3
:104BD00003461A4697F85730134387F85730FA7B45
:104BE0007B6883F83A2101220021786804F016FFDF
:104BF00003461A4697F85730134387F85730002278
:104C0000FF21786804F00AFF03461A4697F85730E8
:104C1000134387F8573000228021786804F0FEFEA5
:104C200003461A4697F85730134387F85730002346
:104C30003B6514E097F95730002B14D13B6D9BB2C4
:104C400001221946786800F04FFD03461A4697F88E
:104C50005730134387F857303B6D01333B653B6D4D
:104C6000052BE7DD00E000BF97F95730002B07D197
:104C700000220221786800F037FD034687F857309C
:104C800097F95730002B07D100220321786800F0F4
:104C90002BFD034687F8573097F95730002B07D183
:104CA00000220421786800F01FFD034687F8573082
:104CB00097F95730002B07D100220521786800F0C2
:104CC00013FD034687F8573097F95730002B08D16A
:104CD0004FF490120021786800F0B6FD034687F883
:104CE000573097F95730002B08D14FF480420121FB
:104CF000786800F0A9FD034687F8573097F95730D8
:104D0000002B08D14FF40C120221786800F09CFDB2
:104D1000034687F8573097F95730002B07D1002208
:104D20000321786800F090FD034687F8573097F923
:104D30005730002B0FD17B68FF2283F83021FF22F0
:104D40000121786804F06AFE034687F857307B68D3
:104D5000012283F8322197F95730002B03D17B6869
:104D6000002283F8152197F9573018465837BD4669
:104D7000B0BD00BF856B0100A4700900B0B59EB046
:104D800002AF7860002387F86F3007F11C034022E0
:104D9000002118460AF0F3FC00237B8300237B7676
:104DA000002387F8673000233B6600233B7600230F
:104DB0007B61002387F85F300121786802F067FA91
:104DC000034687F86F307B6893F813313B667B6846
:104DD00093F8143187F85F3097F85F30012B0DD8C6
:104DE00097F85F30012B02D13B6E202B06D897F845
:104DF0005F30002B0ED13B6E0C2B0BD907F1180244
:104E000007F114031946786801F0E6FC034687F8B9
:104E10006F3009E097F85F301A46396E786801F014
:104E2000E7FE034687F86F30944BBB6697F96F3007
:104E3000002B0FD17B6893F8503187F8673097F8D3
:104E40006730002B04D17B68D3F84C31BB6601E09E
:104E50008A4BBB6697F96F30002B06D1B96E786824
:104E600003F0B8FD034687F86F3097F96F30002BD9
:104E70000AD100230093042300220021786801F066
:104E8000F5F8034687F86F3097F96F30002B21D182
:104E90000122FF21786804F0C1FD034687F86F30D6
:104EA00007F11A031A468421786804F05EFE03466F
:104EB0001A4697F86F30134387F86F300022FF21AE
:104EC000786804F0ABFD03461A4697F86F30134339
:104ED00087F86F3097F96F30002B05D17B8B1B0162
:104EE0001A467B68C3F8D42097F96F30002B08D19D
:104EF00007F11C031946786800F0D0F8034687F8DC
:104F00006F3097F96F30002B10D107F11903194654
:104F1000786800F0AEF9034687F86F3097F96F3084
:104F2000002B03D17A7E7B6883F8312197F96F30AB
:104F3000002B0ED17B6803F1100407F11C050FCD87
:104F40000FC40FCD0FC40FCD0FC495E80F0084E838
:104F50000F0097F96F30002B11D107F119031A4692
:104F60000121786804F0E0FD034687F86F3097F977
:104F70006F30002B03D17A7E7B6883F8302197F95C
:104F80006F30002B07D100220021786800F0E6F98D
:104F9000034687F86F3097F96F30002B07D1002256
:104FA0000221786800F0DAF9034687F86F3097F944
:104FB0006F30002B03D17B68032283F8322197F9ED
:104FC0006F30002B09D107F113031A4600217868CE
:104FD00000F0ACF9034687F86F3097F96F30002B7B
:104FE00003D1FA7C7B6883F8E82097F96F30002BB7
:104FF00009D107F113031A460121786800F096F9E8
:10500000034687F86F3097F96F30002B03D1FA7C95
:105010007B6883F8E02097F96F30002B09D107F106
:105020000C031A460321786802F0B2FE034687F8A3
:105030006F3097F96F30002B03D1FA687B68C3F8A3
:10504000E42097F96F30002B09D107F10C031A46C1
:105050000421786802F09CFE034687F86F3097F9C8
:105060006F30002B03D1FA687B68C3F8DC2097F916
:105070006F3018467037BD46B0BD00BF1800002025
:1050800080B485B000AF78609D23FB7397F90F3033
:1050900018461437BD465DF8047B704780B584B070
:1050A00000AF786039600023FB733B68194678686D
:1050B00000F0CCF80346FB7397F90F30002B07D1B3
:1050C0003B6808331946786800F092FA0346FB7390
:1050D00097F90F30002B02D13B6800221A7397F921
:1050E0000F30002B07D13B6810331946786800F069
:1050F000C8FA0346FB7397F90F30002B07D13B68C2
:10510000143319467868FFF7C1FC0346FB7397F91F
:105110000F30002B34D10023BB602AE097F90F3009
:10512000002B2AD1BB6899B2BB6808339B003A6850
:10513000134404331A46786800F0E8FB03461A4625
:10514000FB7B1343FB7397F90F30002B17D1BB6820
:1051500099B2BB6818333A6813441A46786800F06D
:105160004FFB03461A46FB7B1343FB73BB680133BB
:10517000BB60BB68052BD1DD02E000BF00E000BFD3
:1051800097F90F30002B07D13B683C3319467868FC
:1051900000F04AFC0346FB7397F90F30002B07D150
:1051A0003B6804331946786800F095F80346FB73B2
:1051B00097F90F3018461037BD4680BD80B485B0D2
:1051C00000AF78600B46FB700023FB73FB78152B58
:1051D00032D801A252F823F03152000831520008AF
:1051E000395200083152000839520008395200087B
:1051F0003952000839520008395200083952000863
:105200003952000839520008395200083952000852
:105210003952000839520008395200083952000842
:105220003952000839520008315200083152000842
:105230007B68FA781A7401E0F823FB7397F90F3052
:1052400018461437BD465DF8047B704780B485B0BE
:1052500000AF786039600023FB737B681A7C3B6881
:105260001A7097F90F3018461437BD465DF8047B65
:10527000704780B584B000AF786039600023FB735D
:105280003A680921786804F04FFC0346FB7397F9EC
:105290000F30002B06D13B681B7803F00103DAB214
:1052A0003B681A7097F90F3018461037BD4680BD1D
:1052B00080B584B000AF786039600023FB73396833
:1052C000786803F0F6F90346FB7397F90F30184638
:1052D0001037BD4680BD80B584B000AF78603960BE
:1052E0000023FB733968786803F0C3FA0346FB7345
:1052F00097F90F3018461037BD4680BD80B584B091
:1053000000AF78600B46FB701346BB700023FB7345
:10531000BA78FB781946786802F00DFF0346FB73F4
:1053200097F90F3018461037BD4680BD80B586B05E
:1053300000AFF8600B467A60FB720023FB75FB7AC6
:105340007A681946F86803F07DF90346FB7597F90A
:10535000173018461837BD4680BD000080B586B0AE
:1053600000AF78600B46FB701346BB700023FB75E3
:105370000023FB730023BB7507F10F031A460121BD
:10538000786804F0D1FB0346FB75FB7BBB7597F98E
:105390001730002B59D1BB78012B2BD1FB78042B74
:1053A00025D801A252F823F0BD530008C7530008C6
:1053B000D1530008DB530008E5530008BB7D43F0E0
:1053C0001003BB7541E0BB7D43F02803BB753CE097
:1053D000BB7D43F00403BB7537E0BB7D43F0400366
:1053E000BB7532E0BB7D63F07F03BB752DE0FC2312
:1053F000FB752AE0FB78042B25D801A252F823F094
:10540000155400081F54000829540008335400089C
:105410003D540008BB7D23F01003BB7515E0BB7D38
:1054200023F02803BB7510E0BB7D23F00403BB759C
:105430000BE0BB7D23F04003BB7506E0BB7D03F0B2
:105440007F03BB7501E0FC23FB75FB7BBA7D9A42B1
:105450001ED097F91730002B07D1BB7D1A460121CA
:10546000786804F0DBFA0346FB7597F91730002BD8
:1054700003D17B68BA7D83F8302197F91730002B70
:1054800006D17B685B693B6139697868FFF710FF7B
:1054900097F9173018461837BD4680BD80B487B0DD
:1054A00000AFF8607B600B46FB721346BB720023B3
:1054B000FB757B6800221A70FB7A042B36D801A298
:1054C00052F823F0D9540008EB540008FD540008AA
:1054D0000F55000821550008BB7A1B11DBB203F001
:1054E0000103DAB27B681A7022E0BB7ADB10DBB210
:1054F00003F00103DAB27B681A7019E0BB7A9B10E3
:10550000DBB203F00103DAB27B681A7010E0BB7AF9
:105510009B11DBB203F00103DAB27B681A7007E07B
:10552000BB7ADB09DAB27B681A7001E0FC23FB75F9
:1055300097F9173018461C37BD465DF8047B704755
:1055400080B584B000AF786039600023FB7300231E
:10555000BB7307F10E031A460121786804F0E4FAE0
:105560000346FB7397F90F30002B07D1BA7B3B68DA
:1055700000217868FFF792FF0346FB7397F90F301D
:10558000002B08D1BA7B3B68023301217868FFF712
:1055900085FF0346FB7397F90F30002B08D1BA7BC8
:1055A0003B68013302217868FFF778FF0346FB73FD
:1055B00097F90F30002B08D1BA7B3B6803330321E6
:1055C0007868FFF76BFF0346FB7397F90F30002BEA
:1055D00008D1BA7B3B68043304217868FFF75EFF8B
:1055E0000346FB7397F90F3018461037BD4680BD50
:1055F00080B584B000AF786039600023FB7307F199
:105600000C031A46F821786804F0AFFA0346FB73DE
:1056100097F90F30002B08D107F108031A4604212F
:10562000786804F0C3FA0346FB7397F90F30002B38
:105630000CD1BB89002B05D0BB68BA89B3FBF2F251
:105640003B681A603B681A687B689A6197F90F306B
:1056500018461037BD4680BD80B485B000AF786075
:1056600039600023FB737B681B7FBB733B68BA7B8D
:105670001A7097F90F3018461437BD465DF8047B51
:10568000704780B586B000AF786039600023FB7545
:1056900007F10E031A462021786804F066FA0346E3
:1056A000FB7597F91730002B18D1FB89002B09D116
:1056B0007B681B6A3B613B683A691A607B68002221
:1056C0001A770BE0FB89DB003B613B683A691A60A3
:1056D0007B683A691A627B6801221A7797F917305A
:1056E00018461837BD4680BD80B586B000AF7860DB
:1056F0000B467B8013467B700023FB7500233B61C8
:105700000023FB730023BB737B88052B02D9FC238A
:10571000FB755BE07B78002B06D100233B61002307
:10572000FB730123BB730AE07B887A680C339B0010
:1057300013445B683B610023BB730123FB737B88CD
:10574000052B41D801A252F823F000BF655700088D
:105750006F570008855700088F57000899570008B1
:10576000B15700087B68FA7B83F828202EE03B695C
:105770005B0A9BB21A464421786804F071F903462B
:10578000FB7523E07B68FA7B83F82A201EE07B68A8
:10579000FA7B83F82B2019E0BB7B5B007B737B7B60
:1057A000FE226021786804F07DF90346FB750DE068
:1057B000BB7B1B017B737B7BEF226021786804F04D
:1057C00071F90346FB7501E0FC23FB7597F917306F
:1057D000002B0FD17B78002B06D17B887A6813448D
:1057E000002283F8282005E07B887A681344012290
:1057F00083F8282097F9173018461837BD4680BD22
:1058000080B487B000AFF8600B467A607B810023DC
:10581000FB757B89052B05D9FC23FB757B68002272
:105820001A7008E07B89FA68134493F82830BB7536
:105830007B68BA7D1A7097F9173018461C37BD4639
:105840005DF8047B7047000080B586B000AFF8605B
:105850000B467A607B810023FB757B89FA681344D1
:1058600093F82830BB75BB7D002B07D17B89FA6884
:105870000C339B0013447A685A6040E07B89052B07
:1058800030D801A252F823F0A1580008A958000806
:10589000BF580008C7580008CF580008CF58000864
:1058A000FB687A685A631FE07B685B0A9BB21A4602
:1058B0004421F86804F0D4F80346FB7514E0FB6853
:1058C0007A68DA6310E0FB687A681A640CE07B6837
:1058D0005B0A9BB21A466421F86804F0C1F80346DB
:1058E000FB7501E0FC23FB7597F91730002B06D1FF
:1058F0007B89FA680C339B0013447A685A6097F9E5
:10590000173018461837BD4680BD00BF80B588B037
:1059100000AFF8600B467A607B810023FB770023A1
:10592000BB777B89052B47D801A252F823F000BF33
:1059300049590008555900087B5900088759000843
:105940009359000893590008FB685B6BBB61002307
:10595000BB7733E007F116031A464421F86804F0D8
:1059600004F90346FB7797F91F30002B02D1FB8A1D
:105970005B02BB610123BB7720E0FB68DB6BBB6193
:105980000023BB771AE0FB681B6CBB610023BB776D
:1059900014E007F116031A466421F86804F0E5F8EC
:1059A0000346FB7797F91F30002B02D1FB8A5B027D
:1059B000BB610023BB7701E0FC23FB7797F91F3025
:1059C000002B2AD1BB7F012B24D1BB69002B10D126
:1059D0007B89FA680C339B0013445B68BB617B686E
:1059E000BA691A607B89FA681344002283F8282078
:1059F00013E07B68BA691A607B89FA680C339B00F4
:105A00001344BA695A607B89FA681344012283F807
:105A1000282002E07B68BA691A6097F91F3018469F
:105A20002037BD4680BD00BF80B584B000AF786030
:105A300039600023FB7307F10E031A4601217868D1
:105A400004F072F80346FB7397F90F30002B0ED168
:105A5000BA7B7B6883F83021BB7B5BB2002B03DA17
:105A60003B6801221A7002E03B6800221A7097F925
:105A70000F30002B04D13B681A787B6883F84C20E8
:105A800097F90F3018461037BD4680BD80B584B0F9
:105A900000AF78600023FB7307F10E0319467868A6
:105AA000FFF7D4FB0346FB7397F90F30002B07D1A8
:105AB000BB7B002B04D1786800F082F80346FB73AF
:105AC00097F90F30002B04D1786801F013FB0346DF
:105AD000FB7397F90F30002B06D1BB7B002B03D152
