:020000040800F2
:10000000008001203D3D000899390008A73900080B
:10001000AD390008B3390008B93900080000000004
:10002000000000000000000000000000BF390008D0
:10003000CD39000800000000DB390008E93900086C
:100040008D3D00088D3D00088D3D00088D3D000868
:100050008D3D00088D3D00088D3D00088D3D000858
:100060008D3D00088D3D0008F93900088D3D0008E0
:100070008D3D00088D3D00088D3D00088D3D000838
:100080008D3D00088D3D00088D3D000800000000FA
:10009000000000000000000000000000073A000817
:1000A0008D3D00088D3D00088D3D00088D3D000808
:1000B0008D3D00088D3D00088D3D00088D3D0008F8
:1000C0008D3D00088D3D00088D3D00088D3D0008E8
:1000D0008D3D00088D3D00088D3D000800000000AA
:1000E0008D3D00088D3D00088D3D0008000000009A
:1000F0000000000000000000000000008D3D00082E
:10010000000000008D3D00088D3D00088D3D000879
:1001100000000000000000000000000000000000DF
:10012000153A0008293A00088D3D00088D3D000869
:100130008D3D0008000000000000000000000000ED
:100140000000000000000000000000008D3D0008DD
:100150008D3D00088D3D00088D3D00088D3D000857
:100160008D3D00088D3D00080000000000000000EB
:10017000000000000000000000000000000000007F
:10018000000000008D3D000800000000000000009D
:040190008D3D000899
:1001A00010B5054C237833B9044B13B10448AFF3B1
:1001B00000800123237010BD7400002000000000A7
:1001C0001C4D000808B5034B1BB103490348AFF3AE
:1001D000008008BD00000000780000201C4D0008D1
:1001E00001F0FF01102A2BDB10F0070F08D010F8E8
:1001F000013B013A8B422DD010F0070F42B3F6D1EC
:10020000F0B441EA012141EA014122F007047FF004
:1002100000070023F0E80256083C85EA010586EA5B
:10022000010685FA47F5A3FA87F586FA47F6A5FA97
:1002300087F68EB9EED1F0BC01F0FF0102F00702A3
:1002400032B110F8013B013A83EA010313B1F8D14E
:100250000020704701387047002D06BF354603382F
:10026000073815F0010F07D1013015F4807F02BF68
:10027000013015F4C03F0130F0BC0138704700BFB9
:1002800053B94AB9002908BF00281CBF4FF0FF31FD
:100290004FF0FF3000F07AB9ADF1080C6DE904CEF3
:1002A00000F006F8DDF804E0DDE9022304B0704751
:1002B0002DE9F0478C460D460446089E002B51D18F
:1002C0008A4217466DD9B2FA82FEBEF1000F0BD0FA
:1002D000CEF1200C01FA0EF520FA0CFC02FA0EF712
:1002E0004CEA050C00FA0EF44FEA174A250CBCFB49
:1002F000FAF81FFA87F90AFB18CC45EA0C4508FB07
:1003000009F3AB420AD9ED1908F1FF3280F02381DD
:10031000AB4240F22081A8F102083D44ED1AA4B29C
:10032000B5FBFAF00AFB105544EA054400FB09F955
:10033000A14509D9E41900F1FF3380F00A81A145F4
:1003400040F2078102383C44A4EB090440EA08402B
:100350000021002E61D024FA0EF400233460736073
:10036000BDE8F0878B4207D9002E54D0002186E8E3
:1003700021000846BDE8F087B3FA83F1002940F078
:100380008E80AB4202D3824200F2FA80841A65EB7F
:1003900003050120AC46002E3FD086E81010BDE8D2
:1003A000F08712B90127B7FBF2F7B7FA87FEBEF163
:1003B000000F34D1EB1B3A0C1FFA87FC0121B3FB71
:1003C000F2F8250C02FB183345EA03450CFB08F351
:1003D000AB4207D9ED1908F1FF3002D2AB4200F26F
:1003E000D1808046ED1AA3B2B5FBF2F002FB1055A6
:1003F00043EA05440CFB00FCA44507D9E41900F1CD
:10040000FF3302D2A44500F2B8801846A4EB0C04D6
:1004100040EA08409DE731463046BDE8F087CEF11E
:10042000200405FA0EF307FA0EF720FA04F83A0C46
:1004300025FA04F448EA0308B4FBF2F14FEA184540
:1004400002FB11441FFA87FC45EA044501FB0CF34B
:10045000AB4200FA0EF409D9ED1901F1FF3080F03A
:100460008A80AB4240F2878002393D44EB1A1FFA82
:1004700088F5B3FBF2F002FB103345EA034500FBBD
:100480000CF3AB4207D9ED1900F1FF386FD2AB4244
:100490006DD902383D44EB1A40EA01418FE7C1F1C2
:1004A000200722FA07F88B4005FA01F448EA030313
:1004B00020FA07FE4FEA134CFD404EEA040EB5FB4E
:1004C000FCF94FEA1E440CFB19551FFA83F844EA65
:1004D000054509FB08F4AC4202FA01F200FA01FA00
:1004E00008D9ED1809F1FF3043D2AC4241D9A9F146
:1004F00002091D442D1B1FFA8EFEB5FBFCF00CFB00
:1005000010554EEA054400FB08F8A04507D9E41849
:1005100000F1FF3529D2A04527D902381C4440EA12
:100520000940A4EB0804A0FB02894C45C6464D4691
:1005300015D312D056B1BAEB0E0364EB050404FADE
:1005400007F7CB401F43CC40376074600021BDE803
:10055000F0871846F8E69046E0E6C245EAD2B8EBE6
:10056000020E69EB03050138E4E72846D7E7404669
:1005700091E78146BEE7014678E702383C4445E70B
:10058000084608E7A8F102083D442BE7704700BF82
:1005900080B500AF0E4A0E4B1B6843F40073136026
:1005A0000B4A0B4B1B6843F480631360084A084BEB
:1005B0001B6843F480731360032000F05BFD002090
:1005C00000F008F803F096F90023184680BD00BF3C
:1005D000003C024080B582B000AF7860124B1A68D0
:1005E000124B1B7819464FF47A73B3FBF1F3B2FB4D
:1005F000F3F3184600F073FD0346002B01D00123EE
:100600000EE07B680F2B0AD8002279684FF0FF308C
:1006100000F03BFD064A7B681360002300E00123E5
:1006200018460837BD4680BD0C000020040000209D
:100630000000002080B400AF064B1B781A46064B22
:100640001B681344044A136000BFBD465DF8047B79
:10065000704700BF04000020D800002080B400AF25
:10066000034B1B681846BD465DF8047B704700BF0E
:10067000D800002080B584B000AF7860FFF7EEFFAF
:10068000B8607B68FB60FB68B3F1FF3F05D0094BA6
:100690001B781A46FB681344FB6000BFFFF7DEFFC0
:1006A0000246BB68D21AFB689A42F7D300BF1037E4
:1006B000BD4680BD0400002080B584B000AF7860E6
:1006C0000023FB737B68002B01D1012333E07B689F
:1006D0001B6C002B09D17B6800225A647B680022C6
:1006E00083F83C20786802F0DDFD7B681B6C03F02A
:1006F0001003002B18D17B681B6C23F4885323F064
:10070000020343F002027B681A64786800F076FA0C
:100710007B6800225A647B681B6C23F0030343F060
:1007200001027B681A6401E00123FB737B680022ED
:1007300083F83C20FB7B18461037BD4680BD000087
:1007400080B586B000AFF860B9607A6000233B6185
:10075000FB6893F83C30012B01D10223B0E0FB6829
:10076000012283F83C20FB681B689B6803F00103AF
:10077000012B18D0FB681B68FA681268926842F077
:1007800001029A60504B1B68504AA2FB03239A0C4B
:1007900013465B0013443B6102E03B69013B3B6154
:1007A0003B69002BF9D1FB681B689B6803F00103D0
:1007B000002B00F08480FB681B6C23F4E06323F0C3
:1007C000010343F48072FB681A64FB681B685B6872
:1007D00003F48063002B07D0FB681B6C23F44053A9
:1007E00043F48052FB681A64FB681B6C03F480536B
:1007F000002B06D0FB685B6C23F00602FB685A6492
:1008000002E0FB6800225A64FB68002283F83C2067
:100810002F4B7B61FB689B6B2E4ADA63FB689B6BFB
:100820002D4A1A64FB689B6B2C4ADA64FB681B68D0
:100830006FF022021A60FB681B68FA68126852683F
:1008400042F080625A60FB681B68FA68126892681E
:1008500042F480729A60FB68986BFB681B684C33AB
:100860001946BA687B6800F01FFD7B695B6803F07E
:100870001F03002B0FD1FB681B689B6803F04053DC
:10088000002B1CD1FB681B68FA681268926842F062
:1008900080429A6013E0FB681B68114A93420ED1B4
:1008A000FB681B689B6803F04053002B07D1FB6873
:1008B0001B68FA681268926842F080429A600023CE
:1008C00018461837BD4680BD0C00002083DE1B4350
:1008D00000230140F10D0008970E0008B30E000838
:1008E0000020014080B584B000AF78600023FB7326
:1008F0007B6893F83C30012B01D1022338E07B6800
:10090000012283F83C207B681B687A681268926831
:1009100022F001029A607B681B689B6803F0010368
:10092000002B20D17B681B687A681268926822F4D9
:1009300080729A607B689B6B184600F015FD034639
:10094000FB737B681B687A681268526822F08062C9
:100950005A607B681B6C23F4885323F0010343F037
:1009600001027B681A647B68002283F83C20FB7BD1
:1009700018461037BD4680BD80B483B000AF7860A4
:1009800000BF0C37BD465DF8047B704780B483B070
:1009900000AF786000BF0C37BD465DF8047B704740
:1009A00080B483B000AF786000BF0C37BD465DF8FF
:1009B000047B704790B484B000AF78603960002346
:1009C000BB607B6893F83C30012B01D1022307E127
:1009D0007B68012283F83C203B681B68092B26D9E1
:1009E0007B681A687B681B68D9683B681B689BB288
:1009F000184603465B0003441E3B072000FA03F33E
:100A0000DB430B40D3607B681A687B681B68D9683E
:100A10003B6898683B681B689BB21C4623465B009A
:100A200023441E3B00FA03F30B43D36023E07B68AF
:100A30001A687B681B6819693B681B689BB218467B
:100A400003465B000344072000FA03F3DB430B403B
:100A500013617B681A687B681B6819693B68986832
:100A60003B681B689BB21C4623465B00234400FA8C
:100A700003F30B4313613B685B68062B24D87B6848
:100A800019687B681B68586B3B685A6813469B0063
:100A90001344053B1F2202FA03F3DB4303404B637D
:100AA0007B6819687B681B68586B3B681B689BB246
:100AB0001C463B685A6813469B001344053B04FAE6
:100AC00003F303434B634CE03B685B680C2B24D877
:100AD0007B6819687B681B68186B3B685A6813460B
:100AE0009B001344233B1F2202FA03F3DB43034022
:100AF0000B637B6819687B681B68186B3B681B6815
:100B00009BB21C463B685A6813469B001344233B28
:100B100004FA03F303430B6323E07B6819687B68E3
:100B20001B68D86A3B685A6813469B001344413BD4
:100B30001F2202FA03F3DB430340CB627B68196890
:100B40007B681B68D86A3B681B689BB21C463B6885
:100B50005A6813469B001344413B04FA03F30343D2
:100B6000CB62224BFB607B681B68214A934209D110
:100B70003B681B68122B05D1FB685B6843F480025D
:100B8000FB685A607B681B68194A934223D13B6813
:100B90001B68102B03D03B681B68112B1BD1FB6813
:100BA0005B6843F40002FB685A603B681B68102BCB
:100BB00011D1104B1B68104AA2FB03239A0C134659
:100BC0009B0013445B00BB6002E0BB68013BBB6061
:100BD000BB68002BF9D17B68002283F83C200023FE
:100BE00018461037BD4690BC704700BF0023014037
:100BF000002001400C00002083DE1B4380B485B040
:100C000000AF7860784BFB60FB685B6823F4403290
:100C1000FB685A60FB685A687B685B681A43FB682C
:100C20005A607B681B687A681268526822F4807286
:100C30005A607B681B687A68126851687A68126922
:100C400012020A435A607B681B687A68126852680D
:100C500022F040725A607B681B687A68126851689B
:100C60007A6892680A435A607B681B687A681268DF
:100C7000926822F400629A607B681B687A68126846
:100C800091687A68D2680A439A607B689B6A574A7F
:100C9000934222D07B681B687A681268926822F0BF
:100CA00070629A607B681B687A68126891687A68DB
:100CB000926A0A439A607B681B687A681268926835
:100CC00022F040529A607B681B687A6812689168CB
:100CD0007A68D26A0A439A600FE07B681B687A6878
:100CE0001268926822F070629A607B681B687A686A
:100CF0001268926822F040529A607B681B687A689A
:100D00001268926822F002029A607B681B687A6817
:100D1000126891687A68926952000A439A607B6807
:100D20001B6A002B1BD07B681B687A6812685268AC
:100D300042F400625A607B681B687A6812685268E5
:100D400022F460425A607B681B687A6812685168B6
:100D50007A68526A013A52030A435A6007E07B6894
:100D60001B687A681268526822F400625A607B68D5
:100D70001B687A681268D26A22F47002DA627B68B1
:100D80001B687A681268D16A7A68D269013A1205DA
:100D90000A43DA627B681B687A681268926822F4F8
:100DA00000729A607B681B687A68126891687A683A
:100DB000126B52020A439A607B681B687A68126859
:100DC000926822F480629A607B681B687A68126875
:100DD00091687A68526992020A439A6000BF143798
:100DE000BD465DF8047B7047002301400100000F01
:100DF00080B584B000AF78607B689B6BFB60FB685C
:100E00001B6C03F05003002B3CD1FB681B6C43F4BC
:100E10000072FB681A64FB681B689B6803F0405310
:100E2000002B2BD1FB689B69002B27D1FB681B682B
:100E3000DB6A03F47003002B06D0FB681B689B6819
:100E400003F48063002B19D1FB681B68FA681268F1
:100E5000526822F020025A60FB681B6C23F48072F7
:100E6000FB681A64FB681B6C03F48053002B05D1EC
:100E7000FB681B6C43F00102FB681A64F868FFF71B
:100E80007BFD04E0FB689B6BDB6C7868984700BFD8
:100E90001037BD4680BD80B584B000AF78607B68F8
:100EA0009B6BFB60F868FFF771FD00BF1037BD4614
:100EB00080BD80B584B000AF78607B689B6BFB60C1
:100EC000FB6840221A64FB685B6C43F00402FB6819
:100ED0005A64F868FFF764FD00BF1037BD4680BD57
:100EE00080B485B000AF78607B6803F00703FB60D7
:100EF0000C4BDB68BB60BA684FF6FF031340BB6066
:100F0000FB681A02BB68134343F0BF6343F400332A
:100F1000BB60044ABB68D36000BF1437BD465DF8B0
:100F2000047B704700ED00E080B400AF044BDB6849
:100F30001B0A03F007031846BD465DF8047B7047A3
:100F400000ED00E080B483B000AF0346FB710949B7
:100F500097F907305B09FA7902F01F02012000FAC5
:100F600002F241F8232000BF0C37BD465DF8047B38
:100F7000704700BF00E100E080B483B000AF0346DB
:100F80003960FB7197F90730002B0BDA0D49FB79BB
:100F900003F00F03043B3A68D2B21201D2B20B4401
:100FA0001A7609E0084997F907303A68D2B2120177
:100FB000D2B20B4483F8002300BF0C37BD465DF866
:100FC000047B704700ED00E000E100E080B489B0F0
:100FD00000AFF860B9607A60FB6803F00703FB615B
:100FE000FB69C3F10703042B28BF0423BB61FB6922
:100FF0000433062B02D9FB69033B00E000237B612D
:101000000122BB6902FA03F35A1EBB681A407B69CE
:101010009A4001217B6901FA03F3591E7B680B405A
:10102000134318462437BD465DF8047B7047000023
:1010300080B582B000AF78607B68013BB3F1807F00
:1010400001D301230FE00A4A7B68013B53600F2163
:101050004FF0FF30FFF790FF054B00229A60044BE2
:1010600007221A60002318460837BD4680BD00BF1E
:1010700010E000E080B582B000AF78607868FFF7DC
:101080002FFF00BF0837BD4680BD80B586B000AFDA
:101090000346B9607A60FB7300237B61FFF744FF6E
:1010A00078617A68B9687869FFF790FF024697F926
:1010B0000F3011461846FFF75FFF00BF1837BD46D7
:1010C00080BD80B582B000AF0346FB7197F9073051
:1010D0001846FFF737FF00BF0837BD4680BD80B513
:1010E00082B000AF78607868FFF7A2FF0346184629
:1010F0000837BD4680BD000080B483B000AF786083
:101100007B68042B06D1094A084B1B6843F0040393
:10111000136005E0054A054B1B6823F004031360C8
:1011200000BF0C37BD465DF8047B704710E000E05F
:1011300080B500AF00F002F800BF80BD80B400AF02
:1011400000BFBD465DF8047B7047000080B586B0E7
:1011500000AF786000237B61FFF780FA38617B681D
:10116000002B01D1012399E07B68002283F8342011
:101170007B68022283F835207B681B687A681268D6
:10118000126822F001021A600FE0FFF767FA0246C8
:101190003B69D31A052B08D97B6820225A657B68E6
:1011A000032283F83520032378E07B681B681B68E3
:1011B00003F00103002BE8D17B681B681B687B618F
:1011C0007A69384B13407B617B685A687B689B68FF
:1011D0001A437B68DB681A437B681B691A437B6888
:1011E0005B691A437B689B691A437B68DB691A4316
:1011F0007B681B6A13437A6913437B617B685B6A74
:10120000042B07D17B68DA6A7B681B6B13437A690E
:1012100013437B617B681B687A691A607B681B6873
:101220005B697B617B6923F007037B617B685B6A99
:101230007A6913437B617B685B6A042B17D17B68F7
:101240009B6A7A6913437B617B68DB6A002B0ED053
:10125000786800F0E7FA0346002B08D07B6840224C
:101260005A657B68012283F83520012316E07B68EC
:101270001B687A695A61786800F09EFA0346FB6041
:101280007B68DB6D3F229A40FB689A607B68002296
:101290005A657B68012283F83520002318461837E9
:1012A000BD4680BD3F8010F080B586B000AFF860CD
:1012B000B9607A603B600023FB75FB689B6D3B6106
:1012C000FB6893F83430012B01D1022348E0FB681E
:1012D000012283F83420FB6893F83530DBB2012B10
:1012E00037D1FB68022283F83520FB6800225A655B
:1012F0003B687A68B968F86800F030FAFB68DB6D23
:101300003F229A403B699A60FB681B68FA68126842
:10131000126842F016021A60FB681B68FA681268CD
:10132000526942F080025A61FB681B6C002B07D0A7
:10133000FB681B68FA681268126842F008021A60BB
:10134000FB681B68FA681268126842F001021A60B2
:1013500005E0FB68002283F834200223FB75FB7D47
:1013600018461837BD4680BD80B584B000AF7860A0
:101370007B689B6DFB60FFF771F9B8607B6893F841
:101380003530DBB2022B08D07B6880225A657B683F
:10139000002283F83420012352E07B681B687A68BE
:1013A0001268126822F016021A607B681B687A685D
:1013B0001268526922F080025A617B681B6C002B14
:1013C00003D17B689B6C002B07D07B681B687A6815
:1013D0001268126822F008021A607B681B687A683B
:1013E0001268126822F001021A6013E0FFF736F962
:1013F0000246BB68D31A052B0CD97B6820225A659C
:101400007B68002283F834207B68032283F8352030
:10141000032315E07B681B681B6803F00103002BA6
:10142000E4D17B68DB6D3F229A40FB689A607B6861
:10143000002283F834207B68012283F835200023C2
:1014400018461037BD4680BD80B586B000AF7860C5
:101450000023BB60924B1B68924AA2FB03239B0AAA
:101460007B617B689B6D3B613B691B68FB607B68B4
:10147000DB6D08229A40FB681340002B1AD07B6872
:101480001B681B6803F00403002B13D07B681B68E8
:101490007A681268126822F004021A607B68DB6DB9
:1014A00008229A403B699A607B685B6D43F00102B9
:1014B0007B685A657B68DB6D01229A40FB681340AC
:1014C000002B12D07B681B685B6903F08003002B44
:1014D0000BD07B68DB6D01229A403B699A607B6888
:1014E0005B6D43F002027B685A657B68DB6D04220A
:1014F0009A40FB681340002B12D07B681B681B6866
:1015000003F00203002B0BD07B68DB6D04229A40B2
:101510003B699A607B685B6D43F004027B685A65A7
:101520007B68DB6D10229A40FB681340002B43D090
:101530007B681B681B6803F00803002B3CD07B68AA
:10154000DB6D10229A403B699A607B681B681B68C0
:1015500003F48023002B18D07B681B681B6803F4FE
:101560000023002B08D17B681B6C002B24D07B68E8
:101570001B6C786898471FE07B689B6C002B1BD026
:101580007B689B6C7868984716E07B681B681B68D3
:1015900003F48073002B07D17B681B687A6812689C
:1015A000126822F008021A607B681B6C002B03D0C3
:1015B0007B681B6C786898477B68DB6D20229A40BB
:1015C000FB681340002B00F08E807B681B681B6853
:1015D00003F01003002B00F086807B68DB6D202277
:1015E0009A403B699A607B6893F83530DBB2052BF3
:1015F00036D17B681B687A681268126822F016027E
:101600001A607B681B687A681268526922F080024F
:101610005A617B681B6C002B03D17B689B6C002B91
:1016200007D07B681B687A681268126822F008028B
:101630001A607B68DB6D3F229A403B699A607B6849
:10164000002283F834207B68012283F835207B68F0
:101650001B6D002B7DD07B681B6D7868984778E008
:101660007B681B681B6803F48023002B1CD07B68FD
:101670001B681B6803F40023002B08D17B685B6C9C
:10168000002B30D07B685B6C786898472BE07B68D8
:10169000DB6B002B27D07B68DB6B7868984722E0F8
:1016A0000C000020B5814E1B7B681B681B6803F48F
:1016B0008073002B0FD17B681B687A6812681268F0
:1016C00022F010021A607B68002283F834207B68C5
:1016D000012283F835207B68DB6B002B03D07B680D
:1016E000DB6B786898477B685B6D002B32D07B683A
:1016F0005B6D03F00103002B22D07B68052283F889
:1017000035207B681B687A681268126822F0010233
:101710001A60BB680133BB607A69934207D87B6863
:101720001B681B6803F00103002BF2D100E000BF2F
:101730007B68002283F834207B68012283F83520FF
:101740007B68DB6C002B05D07B68DB6C7868984786
:1017500000E000BF1837BD4680BD00BF80B485B033
:1017600000AFF860B9607A603B60FB681B68FA689C
:101770001268126822F480221A60FB681B683A68BB
:101780005A60FB689B68402B08D1FB681B687A682D
:101790009A60FB681B68BA68DA6007E0FB681B6840
:1017A000BA689A60FB681B687A68DA6000BF143711
:1017B000BD465DF8047B704780B485B000AF7860AB
:1017C0007B681B68DBB2103B144AA2FB03231B0996
:1017D000FB60134AFB6813441B781A467B68DA6582
:1017E000FB68032B09D97B681B6823F47F7323F004
:1017F00003031A1D7B689A6507E07B681B6823F466
:101800007F7323F003037A6893657B689B6D1846AA
:101810001437BD465DF8047B704700BFABAAAAAA87
:10182000984F000880B485B000AF78600023FB7348
:101830007B689B6ABB607B689B69002B1FD1BB6880
:10184000032B55D801A252F823F000BF5D18000801
:101850006F1800085D180008F11800087B68DB6A43
:1018600003F08073002B45D00123FB7342E07B68BB
:10187000DB6AB3F1C07F3FD10123FB733CE07B689F
:101880009B69B3F5005F21D1BB68032B36D801A259
:1018900052F823F0A5180008AB180008A518000896
:1018A000BD1800080123FB732FE07B68DB6A03F09F
:1018B0008073002B24D00123FB7321E07B68DB6A5B
:1018C000B3F1C07F1ED10123FB731BE0BB68022B69
:1018D00002D9032B03D018E00123FB7315E07B68CA
:1018E000DB6A03F08073002B0ED00123FB730BE047
:1018F00000BF0AE000BF08E000BF06E000BF04E050
:1019000000BF02E000BF00E000BFFB7B18461437B9
:10191000BD465DF8047B704780B489B000AF786045
:10192000396000237B6100233B610023BB610023FE
:10193000FB6159E10122FB6902FA03F37B613B6819
:101940001A687B6913403B613A697B699A4240F0AF
:1019500048813B685B68022B03D03B685B68122BB5
:1019600023D1FB69DA087B68083253F82230BB6167
:10197000FB6903F007039B000F2202FA03F3DB432A
:10198000BA691340BB613B681A69FB6903F007033E
:101990009B0002FA03F3BA691343BB61FB69DA08DF
:1019A0007B680832B96943F822107B681B68BB6109
:1019B000FB695B00032202FA03F3DB43BA691340BD
:1019C000BB613B685B6803F00302FB695B0002FAE2
:1019D00003F3BA691343BB617B68BA691A603B6859
:1019E0005B68012B0BD03B685B68022B07D03B6820
:1019F0005B68112B03D03B685B68122B30D17B688E
:101A00009B68BB61FB695B00032202FA03F3DB43C3
:101A1000BA691340BB613B68DA68FB695B0002FA94
:101A200003F3BA691343BB617B68BA699A607B6848
:101A30005B68BB610122FB6902FA03F3DB43BA690D
:101A40001340BB613B685B681B0903F00102FB6943
:101A500002FA03F3BA691343BB617B68BA695A603F
:101A60007B68DB68BB61FB695B00032202FA03F35E
:101A7000DB43BA691340BB613B689A68FB695B0052
:101A800002FA03F3BA691343BB617B68BA69DA608F
:101A90003B685B6803F08053002B00F0A2800023BA
:101AA000FB60564A554B5B6C43F480435364534B85
:101AB0005B6C03F48043FB60FB68514AFB699B0845
:101AC000023352F82330BB61FB6903F003039B0030
:101AD0000F2202FA03F3DB43BA691340BB617B6850
:101AE000484A934219D07B68474A934213D07B6897
:101AF000464A93420DD07B68454A934207D07B68A3
:101B0000444A934201D1042308E0072306E003235B
:101B100004E0022302E0012300E00023FA6902F05E
:101B2000030292009340BA691343BB613449FB69D5
:101B30009B080233BA6941F82320374B1B68BB610D
:101B40003B69DB43BA691340BB613B685B6803F4E4
:101B50008033002B03D0BA693B691343BB612E4A23
:101B6000BB6913602C4B5B68BB613B69DB43BA69A3
:101B70001340BB613B685B6803F40033002B03D068
:101B8000BA693B691343BB61234ABB695360224B6B
:101B90009B68BB613B69DB43BA691340BB613B682F
:101BA0005B6803F48013002B03D0BA693B691343CD
:101BB000BB61194ABB699360174BDB68BB613B692A
:101BC000DB43BA691340BB613B685B6803F40013F5
:101BD000002B03D0BA693B691343BB610E4ABB6952
:101BE000D360FB690133FB61FB690F2B7FF6A2AE6B
:101BF00000BF2437BD465DF8047B704700380240C3
:101C00000038014000000240000402400008024089
:101C1000000C024000100240003C014080B582B040
:101C200000AF0346FB80084B5A69FB881340002B2A
:101C300006D0054AFB885361FB88184601F018FD61
:101C400000BF0837BD4680BD003C014080B584B070
:101C500000AF78600023FB600023BB607B68002B33
:101C600001D10123C8E07B6893F83D30DBB2002B43
:101C700006D17B68002283F83C20786801F076FC6E
:101C80007B68242283F83D207B681B687A68126891
:101C9000126822F001021A6000F0C0FCB860BB6854
:101CA000574AA2FB03239B0CFB607B681B68FA6806
:101CB0005A607B681A687B685B6852498B4202D81D
:101CC000FB68013309E0FB684FF4967101FB03F3F5
:101CD0004D49A1FB03139B09013313627B6819680B
:101CE0007B685B68474A934212D87B685B685B00FD
:101CF000BA68B2FBF3F3C3F30B03032B06D97B687B
:101D00005B685B00BA68B2FBF3F345E0042343E091
:101D10007B689B68002B0FD17B685A6813465B0079
:101D20001344BA68B2FBF3F3C3F30B03002B0CBFED
:101D300001230023DBB210E07B685A6813469B0046
:101D400013449A001344BA68B2FBF3F3C3F30B03D2
:101D5000002B0CBF01230023DBB2002B01D0012399
:101D60001AE07B689B68002B0AD17B685A6813468F
:101D70005B001344BA68B2FBF3F343F400430BE097
:101D80007B685A6813469B0013449A001344BA6850
:101D9000B2FBF3F343F44043CB617B681B687A6882
:101DA000D1697A68126A0A431A607B681B687A688C
:101DB00011697A68D2680A439A607B681B687A68FE
:101DC00051697A6892690A43DA607B681B687A68AD
:101DD0001268126842F001021A607B6800221A64DD
:101DE0007B68202283F83D207B6800221A637B6891
:101DF000002283F83E20002318461037BD4680BDE0
:101E000083DE1B43A0860100D34D621080B586B0EF
:101E100000AF78607B68002B01D101232DE27B6845
:101E20001B6803F00103002B75D0A34B9B6803F0E4
:101E30000C03042B0CD0A04B9B6803F00C03082B65
:101E400012D19D4B5B6803F48003B3F5800F0BD177
:101E5000994B1B6803F40033002B5BD07B685B68F5
:101E6000002B57D1012308E27B685B68B3F5803F04
:101E700006D1914A904B1B6843F4803313601DE0F8
:101E80007B685B68B3F5A02F0CD18B4A8A4B1B682B
:101E900043F480231360884A874B1B6843F48033E4
:101EA00013600BE0844A844B1B6823F48033136077
:101EB000814A814B1B6823F4802313607B685B6835
:101EC000002B13D0FEF7CAFB386108E0FEF7C6FB13
:101ED00002463B69D31A642B01D90323CDE1764B2B
:101EE0001B6803F40033002BF0D014E0FEF7B6FBC0
:101EF000386108E0FEF7B2FB02463B69D31A642B57
:101F000001D90323B9E16C4B1B6803F40033002BA8
:101F1000F0D100E000BF7B681B6803F00203002BD8
:101F200063D0654B9B6803F00C03002B0BD0624B16
:101F30009B6803F00C03082B1CD15F4B5B6803F418
:101F40008003002B16D15C4B1B6803F00203002BAF
:101F500005D07B68DB68012B01D001238DE1564958
:101F6000554B1B6823F0F8027B681B69DB001343A9
:101F70000B603AE07B68DB68002B20D04F4B0122DE
:101F80001A60FEF76BFB386108E0FEF767FB02465C
:101F90003B69D31A022B01D903236EE1464B1B6820
:101FA00003F00203002BF0D04349434B1B6823F09E
:101FB000F8027B681B69DB0013430B6015E03F4BA5
:101FC00000221A60FEF74AFB386108E0FEF746FB84
:101FD00002463B69D31A022B01D903234DE1364B4C
:101FE0001B6803F00203002BF0D17B681B6803F031
:101FF0000803002B30D07B685B69002B16D0304B78
:1020000001221A60FEF72AFB386108E0FEF726FB82
:1020100002463B69D31A022B01D903232DE1264B3B
:102020005B6F03F00203002BF0D015E0244B00227D
:102030001A60FEF713FB386108E0FEF70FFB02465B
:102040003B69D31A022B01D9032316E11A4B5B6FAC
:1020500003F00203002BF0D17B681B6803F004033C
:10206000002B00F0A0800023FB75134B1B6C03F0CA
:102070008053002B0FD10023FB600F4A0E4B1B6CCB
:1020800043F0805313640C4B1B6C03F08053FB60D4
:10209000FB680123FB750B4B1B6803F48073002B5B
:1020A00021D1084A074B1B6843F480731360FEF785
:1020B000D5FA386111E000BF003802400000474205
:1020C000800E474200700040FEF7C8FA02463B69A6
:1020D000D31A022B01D90323CFE06A4B1B6803F408
:1020E0008073002BF0D07B689B68012B06D1664A79
:1020F000654B1B6F43F0010313671CE07B689B6813
:10210000052B0CD1604A604B1B6F43F0040313672F
:102110005D4A5D4B1B6F43F0010313670BE05A4AA6
:10212000594B1B6F23F001031367574A564B1B6F24
:1021300023F0040313677B689B68002B15D0FEF720
:102140008DFA38610AE0FEF789FA02463B69D31A34
:1021500041F28832934201D903238EE04A4B1B6F30
:1021600003F00203002BEED014E0FEF777FA38619B
:102170000AE0FEF773FA02463B69D31A41F288324D
:10218000934201D9032378E03F4B1B6F03F0020316
:10219000002BEED1FB7D012B05D13B4A3A4B1B6C4A
:1021A00023F0805313647B689B69002B64D0364B0B
:1021B0009B6803F00C03082B5CD07B689B69022BA7
:1021C00041D1324B00221A60FEF748FA386108E02C
:1021D000FEF744FA02463B69D31A022B01D90323C6
:1021E0004BE0294B1B6803F00073002BF0D126490C
:1021F0007B68DA697B681B6A1A437B685B6A9B01B0
:102200001A437B689B6A5B08013B1B041A437B688B
:10221000DB6A1B0613434B601C4B01221A60FEF75E
:102220001DFA386108E0FEF719FA02463B69D31A35
:10223000022B01D9032320E0134B1B6803F000732A
:10224000002BF0D018E0114B00221A60FEF706FABE
:10225000386108E0FEF702FA02463B69D31A022B06
:1022600001D9032309E0084B1B6803F00073002B1E
:10227000F0D101E0012300E0002318461837BD46E5
:1022800080BD00BF0070004000380240600047423F
:1022900080B584B000AF786039607B68002B01D1D5
:1022A0000123CAE0674B1B6803F00F023B689A42A8
:1022B0000CD2644B3A68D2B21A70624B1B6803F0BE
:1022C0000F023B689A4201D00123B6E07B681B688D
:1022D00003F00203002B20D07B681B6803F004038B
:1022E000002B05D0584A584B9B6843F4E053936049
:1022F0007B681B6803F00803002B05D0524A524B41
:102300009B6843F4604393604F494F4B9B6823F0B5
:10231000F0027B689B6813438B607B681B6803F04B
:102320000103002B44D07B685B68012B07D1464B2F
:102330001B6803F40033002B19D101237DE07B6877
:102340005B68022B03D07B685B68032B07D13E4B95
:102350001B6803F00073002B09D101236DE03A4B99
:102360001B6803F00203002B01D1012365E036490D
:10237000354B9B6823F003027B685B6813438B60DB
:10238000FEF76CF9F8600AE0FEF768F90246FB68B0
:10239000D31A41F28832934201D903234DE02A4BEC
:1023A0009B6803F00C027B685B689B009A42EBD150
:1023B000244B1B6803F00F023B689A420CD9214B57
:1023C0003A68D2B21A701F4B1B6803F00F023B68C9
:1023D0009A4201D0012330E07B681B6803F00403BC
:1023E000002B08D01849184B9B6823F4E0527B68F7
:1023F000DB6813438B607B681B6803F00803002BCA
:1024000009D01149104B9B6823F460427B681B691B
:10241000DB0013438B6000F01DF801460A4B9B68FC
:102420001B0903F00F03094AD35C21FA03F3084A9E
:1024300013600020FEF7CEF8002318461037BD4683
:1024400080BD00BF003C024000380240A04F0008A1
:102450000C0000202DE9F04F8FB000AF0023FB628D
:1024600000237B630023BB6200233B63624B9B68BA
:1024700003F00C03042B07D0082B08D0002B40F0EE
:10248000B2805E4B3B63B1E05D4B3B63AEE05A4BC9
:102490005B6803F03F03FB62574B5B6803F4800308
:1024A000002B4ED0544B5B689B094FF0000440F268
:1024B000FF114FF0000201EA030102EA04020B4699
:1024C000144660017862786A40EAD36078625B0102
:1024D0003B62D7E908345B1A64EB02044FEA8419C3
:1024E00049EA93694FEA8318B8EB030869EB0409DA
:1024F0004FEAC903FB61FB6943EA5873FB614FEA8A
:10250000C803BB61D7E9068918EB010849EB02094A
:102510004FEA49237B617B6943EAD8537B614FEAE9
:1025200048233B61D7E9048940464946FB6A4FF09E
:1025300000041A462346FDF7A3FE03460C467B63C0
:1025400043E02D4B5B689B094FF0000440F2FF1104
:102550004FF0000201EA030102EA04020B461446AE
:102560006001F860F86840EAD360F8605B01BB6026
:10257000D7E902345B1A64EB0204A60146EA9366CB
:102580009D01ED1A66EB0406F3007B607B6843EA6D
:1025900055737B60EB003B6097E860006D1846EB7D
:1025A00002064FEA862B4BEA955B4FEA852A554691
:1025B0005E4628463146FB6A4FF000041A46234621
:1025C000FDF75EFE03460C467B630B4B5B681B0C02
:1025D00003F0030301335B00BB627A6BBB6AB2FB9F
:1025E000F3F33B6302E0054B3B6300BF3B6B1846D4
:1025F0003C37BD46BDE8F08F003802400024F400AF
:1026000000127A0080B400AF034B1B681846BD4629
:102610005DF8047B704700BF0C00002080B500AF60
:10262000FFF7F0FF0146054B9B689B0A03F0070389
:10263000034AD35C21FA03F3184680BD00380240F8
:10264000B04F000880B500AFFFF7DCFF0146054B37
:102650009B685B0B03F00703034AD35C21FA03F387
:10266000184680BD00380240B04F000880B582B0E7
:1026700000AF78607B68002B01D101233FE07B68CD
:1026800093F83930DBB2002B06D17B68002283F847
:102690003820786801F0C2FA7B68242283F8392058
:1026A0007B681B687A681268D26822F40052DA608C
:1026B000786800F0C5FA7B681B687A68126812694E
:1026C00022F490421A617B681B687A68126852692A
:1026D00022F02A025A617B681B687A681268D26805
:1026E00042F40052DA607B680022DA637B682022C1
:1026F00083F839207B68202283F83A20002318468B
:102700000837BD4680BD80B588B002AFF860B960BB
:102710003B601346FB8000237B61FB6893F83930F4
:10272000DBB2202B40F08280BB68002B02D0FB88FC
:10273000002B01D101237AE0FB6893F83830012B9C
:1027400001D1022373E0FB68012283F83820FB6883
:102750000022DA63FB68212283F83920FDF77EFF2F
:102760007861FB68FA889A84FB68FA88DA8441E029
:10277000FB68DB8C9BB2013B9AB2FB68DA84FB6896
:102780009B68B3F5805F21D13B6800937B69002291
:102790008021F86800F0D5F90346002B01D003230F
:1027A00045E0BB683B61FB681B683A691288C2F36D
:1027B00008025A60FB681B69002B03D1BB68023317
:1027C000BB6017E0BB680133BB6013E03B6800935C
:1027D0007B6900228021F86800F0B3F90346002BE2
:1027E00001D0032323E0FB681A68BB68591CB96059
:1027F0001B785360FB68DB8C9BB2002BB8D13B6825
:1028000000937B6900224021F86800F09AF90346A2
:10281000002B01D003230AE0FB68202283F8392033
:10282000FB68002283F83820002300E002231846CA
:102830001837BD4680BD000080B586B000AFF86097
:10284000B9601346FB80FB6893F83A30DBB2202B6B
:1028500066D1BB68002B02D0FB88002B01D101237D
:102860005FE0FB6893F83830012B01D1022358E078
:10287000FB68012283F83820BA68FB689A62FB681B
:10288000FA889A85FB680022DA63FB68222283F8C3
:102890003A20FB685B6B254ADA63FB685B6B244A72
:1028A0001A64FB685B6B234ADA64FB685B6B00228B
:1028B0001A6507F108037B61FB68586BFB681B68AE
:1028C000043319467B691A68FB88FEF7EDFC002388
:1028D0003B61FB681B681B683B61FB681B685B68AE
:1028E0003B613B69FB68002283F83820FB681B686A
:1028F000FA681268D26842F48072DA60FB681B687A
:10290000FA681268526942F001025A61FB681B685A
:10291000FA681268526942F040025A61002300E0EE
:10292000022318461837BD4680BD00BF2B2A000879
:10293000932A0008AF2A000880B584B000AF786001
:102940000023FB607B681B685B6903F08003002B3E
:1029500014BF01230023DBB2FB607B6893F839309E
:10296000DBB2212B16D1FB68002B13D07B681B68D0
:102970007A681268526922F080025A617B681B6B88
:10298000002B04D07B681B6B1846FEF7EDFC7868C3
:1029900000F021F97B681B685B6903F04003002BA2
:1029A00014BF01230023DBB2FB607B6893F83A304D
:1029B000DBB2222B16D1FB68002B13D07B681B687F
:1029C0007A681268526922F040025A617B685B6B38
:1029D000002B04D07B685B6B1846FEF7C5FC78685B
:1029E00000F00FF9002318461037BD4680BD80B4B3
:1029F00083B000AF786000BF0C37BD465DF8047B44
:102A0000704780B483B000AF786000BF0C37BD461C
:102A10005DF8047B704780B483B000AF786000BF7E
:102A20000C37BD465DF8047B704780B584B000AFBD
:102A300078607B689B6BFB607B681B681B6803F49A
:102A40008073002B1ED1FB680022DA85FB681B68AF
:102A5000FA681268D26822F48072DA60FB681B6838
:102A6000FA681268526922F001025A61FB681B6819
:102A7000FA681268526922F040025A61FB6820220B
:102A800083F83A20F868FFF7B2FF00BF1037BD4661
:102A900080BD80B584B000AF78607B689B6BFB60C5
:102AA000F868FFF7AEFF00BF1037BD4680BD80B5A8
:102AB00084B000AF78600023FB607B689B6BBB60D9
:102AC000BB681B685B6903F08003002B14BF012304
:102AD0000023DBB2FB60BB6893F83930DBB2212BFB
:102AE00008D1FB68002B05D0BB680022DA84B868E7
:102AF00000F071F8BB681B685B6903F04003002BB2
:102B000014BF01230023DBB2FB60BB6893F83A30AB
:102B1000DBB2222B08D1FB68002B05D0BB6800225A
:102B2000DA85B86800F06DF8BB68DB6B43F0100223
:102B3000BB68DA63B868FFF76EFF00BF1037BD46A9
:102B400080BD80B584B000AFF860B9603B601346CB
:102B5000FB712CE0BB69B3F1FF3F28D0BB69002BB0
:102B600007D0FDF77BFD02463B68D21ABB699A424B
:102B70001DD9FB681B68FA681268D26822F4D0720B
:102B8000DA60FB681B68FA681268526922F0010279
:102B90005A61FB68202283F83920FB68202283F8E1
:102BA0003A20FB68002283F8382003230FE0FB68FB
:102BB0001B681A68BB681A40BB689A420CBF0123A5
:102BC0000023DBB21A46FB799A42C3D00023184691
:102BD0001037BD4680BD80B483B000AF78607B689D
:102BE0001B687A681268D26822F0C002DA607B68DB
:102BF000202283F8392000BF0C37BD465DF8047BE6
:102C0000704780B483B000AF78607B681B687A68D7
:102C10001268D26822F49072DA607B681B687A6866
:102C20001268526922F001025A617B68202283F8FF
:102C30003A2000BF0C37BD465DF8047B70470000AA
:102C4000F0B585B000AF78600023FB607B681B683F
:102C50001B69FB60FB6823F44053FB607B68DB6807
:102C6000FA681343FB607B681B68FA681A617B682B
:102C70001B68DB68FB60FB6823F4164323F00C033E
:102C8000FB607B689A687B681B691A437B685B6999
:102C90001A437B68DB691343FA681343FB607B6864
:102CA0001B68FA68DA607B681B685B69FB60FB681D
:102CB00023F44073FB607B689B69FA681343FB60F5
:102CC0007B681B68FA685A617B68DB69B3F5004F63
:102CD00040F0E4807B681B68AB4A934204D07B6879
:102CE0001B68AA4A93426CD17B681C68FFF7AAFC58
:102CF000024613469B0013449A001A447B685B68A3
:102D00005B00B2FBF3F3A24AA2FB03235B091D01A4
:102D1000FFF798FC024613469B0013449A001A449E
:102D20007B685B685B00B2FBF3F6FFF78BFC024647
:102D300013469B0013449A001A447B685B685B004F
:102D4000B2FBF3F3924AA2FB03235B09642202FB6A
:102D500003F3F31ADB0032338D4AA2FB03235B0932
:102D60005B0003F4F8731D44FFF76CFC0246134646
:102D70009B0013449A001A447B685B685B00B2FBBB
:102D8000F3F6FFF75FFC024613469B0013449A00DC
:102D90001A447B685B685B00B2FBF3F37C4AA2FBDE
:102DA00003235B09642202FB03F3F31ADB003233D3
:102DB000774AA2FB03235B0903F007032B44A360BC
:102DC00054E17B681C68FFF729FC024613469B0010
:102DD00013449A001A447B685B685B00B2FBF3F310
:102DE0006B4AA2FB03235B091D01FFF717FC024698
:102DF00013469B0013449A001A447B685B685B008F
:102E0000B2FBF3F6FFF70AFC024613469B0013449D
:102E10009A001A447B685B685B00B2FBF3F35C4A80
:102E2000A2FB03235B09642202FB03F3F31ADB001A
:102E30003233574AA2FB03235B095B0003F4F873A8
:102E40001D44FFF7EBFB024613469B0013449A0018
:102E50001A447B685B685B00B2FBF3F6FFF7DEFBAE
:102E6000024613469B0013449A001A447B685B6831
:102E70005B00B2FBF3F3464AA2FB03235B09642227
:102E800002FB03F3F31ADB003233414AA2FB0323B4
:102E90005B0903F007032B44A360E7E07B681B6832
:102EA000394A934204D07B681B68384A934271D1F7
:102EB0007B681C68FFF7C6FB024613469B00134461
:102EC0009A001A447B685B689B00B2FBF3F3304ABC
:102ED000A2FB03235B091D01FFF7B4FB0246134667
:102EE0009B0013449A001A447B685B689B00B2FB0A
:102EF000F3F6FFF7A7FB024613469B0013449A0024
:102F00001A447B685B689B00B2FBF3F3204AA2FB88
:102F100003235B09642202FB03F3F31A1B01323320
:102F20001B4AA2FB03235B0903F0F0031D44FFF7D8
:102F300089FB024613469B0013449A001A447B689F
:102F40005B689B00B2FBF3F6FFF77CFB024613467F
:102F50009B0013449A001A447B685B689B00B2FB99
:102F6000F3F30B4AA2FB03235B09642202FB03F386
:102F7000F31A1B013233064AA2FB03235B0903F059
:102F80000F032B44A36071E00010014000140140C6
:102F90001F85EB517B681C68FFF740FB0246134618
:102FA0009B0013449A001A447B685B689B00B2FB49
:102FB000F3F3304AA2FB03235B091D01FFF72EFB4D
:102FC000024613469B0013449A001A447B685B68D0
:102FD0009B00B2FBF3F6FFF721FB024613469B0072
:102FE00013449A001A447B685B689B00B2FBF3F3BE
:102FF000204AA2FB03235B09642202FB03F3F31ABA
:103000001B0132331B4AA2FB03235B0903F0F003CD
:103010001D44FFF703FB024613469B0013449A002E
:103020001A447B685B689B00B2FBF3F6FFF7F6FA85
:10303000024613469B0013449A001A447B685B685F
:103040009B00B2FBF3F30B4AA2FB03235B09642250
:1030500002FB03F3F31A1B013233064AA2FB0323DC
:103060005B0903F00F032B44A360FFE700BF143795
:10307000BD46F0BD1F85EB5180B500AF0B4B1B6803
:10308000184601F089F803461A46094B1A60084BA6
:103090001B68002B04D1074801F084FC002303E0E7
:1030A000054801F07FFC0123184680BD0800002080
:1030B000DC000020344D00084C4D000880B582B083
:1030C00000AF2A4B19682A4B1B689BB21A46294845
:1030D000FFF7B2FB1420FDF7CDFA2648FFF72CFCD2
:1030E000224B1B681B78592B0BD1204B1B680133DB
:1030F0001B78592B05D11D4B1B6807331B78002B00
:1031000004D01D4801F04EFC00232BE00023FB807F
:10311000174B1B68DBB2013B3B7100237B710BE05B
:10312000124B1A687B7913441B789AB2FB881344BC
:10313000FB807B7901337B717A793B799A42EFD3BB
:10314000FB88DBB2094A11683A790A441278934243
:1031500004D00A4801F026FC002303E0084801F0EF
:1031600021FC012318460837BD4680BDDC00002045
:1031700008000020A00200209C4D0008BC4D000863
:10318000DC4D000880B400AF094B1B6803331B788B
:103190001B021AB2064B1B6802331B781BB2134387
:1031A0001BB29BB21846BD465DF8047B704700BF5A
:1031B000DC00002080B400AF034B1B891846BD46DD
:1031C0005DF8047B704700BF9000002080B400AF22
:1031D000044BB3F918309BB21846BD465DF8047B2A
:1031E000704700BFAC00002080B584B000AF294B11
:1031F000294A1A60274B4FF440325A60254B00226F
:103200009A60244B01221A61224B01229A61214BC0
:1032100000221A621F4B0022DA621E4B1F4A9A627A
:103220001C4B0022DA601B4B0222DA61194B01228F
:103230001A63184B01225A611648FDF73DFA0346FE
:10324000002B03D04A21164800F0F4FA0A233B6011
:1032500001237B600723BB603B4619460D48FDF701
:10326000A9FB0346002B03D054210D4800F0E2FADD
:1032700002237B603B4619460648FDF79BFB03464D
:10328000002B03D05C21064800F0D4FA00BF1037B1
:10329000BD4680BDE0000020002001400100000F7D
:1032A000004E000880B588B000AF78607B681B686E
:1032B000294A93424BD10023BB60284A274B5B6CC1
:1032C00043F480735364254B5B6C03F48073BB60E1
:1032D000BB680323FB6003233B6100237B6107F191
:1032E0000C0319461E48FEF717FB1E4B1E4A1A60B8
:1032F0001C4B00225A601B4B00229A60194B002283
:10330000DA60184B4FF480621A61164B4FF400627A
:103310005A61144B4FF400529A61124B4FF4807271
:10332000DA61104B00221A620E4B00225A620D48DD
:10333000FDF70CFF0346002B03D084210B4800F05F
:1033400079FA7B68074A9A63064A7B68936300BFF1
:103350002037BD4680BD00BF00200140003802403C
:10336000000802402801002010640240004E0008BE
:1033700080B582B000AF00237B60104A0F4B1B6BFF
:1033800043F4800313630D4B1B6B03F480037B60DA
:103390007B68002200213820FDF777FE3820FDF7FA
:1033A00090FE002200213920FDF76FFE3920FDF745
:1033B00088FE00BF0837BD4680BD00BF0038024010
:1033C00080B58AB000AF00233B61314A304B1B6BA4
:1033D00043F0040313632E4B1B6B03F004033B61A8
:1033E0003B690023FB602A4A294B1B6B43F0800397
:1033F0001363274B1B6B03F08003FB60FB68002308
:10340000BB60234A224B1B6B43F001031363204B29
:103410001B6B03F00103BB60BB6800237B601C4A8D
:103420001B4B1B6B43F002031363194B1B6B03F025
:1034300002037B607B684FF400537B61154BBB61DB
:103440000023FB6107F1140319461348FEF764FAE1
:1034500030237B61114BBB610123FB6107F1140336
:1034600019460F48FEF758FA002200210A20FDF7FE
:103470000CFE0A20FDF725FE002200211720FDF793
:1034800004FE1720FDF71DFE00BF2837BD4680BD96
:103490000038024000001110000802400000211016
:1034A0000000024080B500AF134B144A1A60124B63
:1034B000134A5A60104B00229A600F4B0022DA60C8
:1034C0000D4B4FF480421A610B4B00225A610A4B9C
:1034D00000229A61084B0022DA61074B00221A622F
:1034E0000548FEF7B3FB0346002B03D043210548F4
:1034F00000F0A0F900BF80BDDC01002000540040B6
:10350000801A0600104E000880B500AF134B144A15
:103510001A60124B134A5A60104B00229A600F4BEC
:103520000022DA600D4B4FF480421A610B4B0022EF
:103530005A610A4B00229A61084B0022DA61074B5C
:1035400000221A620548FEF781FB0346002B03D0D8
:103550005621054800F06EF900BF80BD88010020AB
:10356000005C0040801A0600104E000880B58AB04A
:1035700000AF78607B681B682D4A93421FD14FF4DF
:1035800040737B611223BB610123FB6103233B6218
:1035900004237B6207F1140319462648FEF7BCF9A1
:1035A00000233B61244A244B1B6C43F40013136437
:1035B000214B1B6C03F400133B613B6934E07B68D7
:1035C0001B681E4A93422FD14FF400737B61122374
:1035D000BB610123FB6103233B6204237B6207F190
:1035E000140319461648FEF797F94FF480737B6170
:1035F0001223BB610123FB6103233B6204237B6233
:1036000007F1140319460F48FEF786F90023FB6003
:10361000094A094B1B6C43F400031364064B1B6CF3
:1036200003F40003FB60FB6800BF2837BD4680BD84
:10363000005400400004024000380240005C00409A
:10364000000802400000024080B584B000AFF8607E
:10365000B9607A607B689AB23223B9680348FFF791
:1036600052F87B6818461037BD4680BDE002002046
:1036700080B483B000AF0346FB80FB88102B04D1DD
:10368000054B1B680133044A136000BF0C37BD466D
:103690005DF8047B704700BFC8000020B0B500AFE4
:1036A000FCF776FF00F04EF8FFF78AFEFFF760FEAA
:1036B000FFF79AFDFFF7F6FE00F082FAFFF724FF0E
:1036C00000F050FA1A4801F06DF900F0B9F8FFF770
:1036D000D3FC00F0E9F900F0D3F8FFF7EFFC00F0BD
:1036E000E5F803461C4600F0EDF803461D4600F0E1
:1036F000F5F803462A4621460E4801F0DFF8FFF7A9
:1037000041FD034619460C4801F0D8F8FFF752FD79
:1037100003461946094801F0D1F8FFF757FD034663
:103720001946074801F0CAF86420FCF7A3FFD2E766
:10373000204E00083C4E0008584E0008704E00080D
:10374000884E000880B594B000AF0023BB60354AB6
:10375000344B1B6C43F080531364324B1B6C03F0EF
:103760008053BB60BB6800237B602F4A2E4B1B68D5
:1037700023F4404343F4004313602B4B1B6803F4D2
:1037800040437B607B6802233B620123FB62102382
:103790003B630223BB630023FB6310233B644FF4B2
:1037A000A8737B640423BB640723FB6407F1200335
:1037B0001846FEF72BFB0346002B03D0B6211B480F
:1037C00000F038F80F23FB6002233B6100237B618C
:1037D0004FF48053BB610023FB6107F10C0302210E
:1037E0001846FEF755FD0346002B03D0C2210F48B3
:1037F00000F020F8FEF706FF02460D4BA3FB022364
:103800009B091846FDF76BFC0420FDF775FC0022B0
:1038100000214FF0FF30FDF738FC00BF5037BD46A8
:1038200080BD00BF0038024000700040A04E00087C
:10383000D34D621080B483B000AF78603960FEE78A
:1038400080B500AF03235B00184600F0A5FC0346DB
:103850001A46084B1A60074B1B68002B04D1064818
:1038600001F0A0F8002303E0044801F09BF80123D5
:10387000184680BD34020020B04E0008C44E000837
:1038800080B500AF074B1B68032219460648FCF7BA
:1038900057FF1420FCF7EEFE0348FDF723F800BFA6
:1038A00080BD00BF34020020E000002080B400AFE3
:1038B000034B1B681B881846BD465DF8047B7047A8
:1038C0003402002080B400AF034B1B685B881846AD
:1038D000BD465DF8047B70473402002080B400AF21
:1038E000034B1B689B881846BD465DF8047B7047F8
:1038F0003402002080B582B000AF00237B60254AEF
:10390000244B5B6C43F480435364224B5B6C03F4A5
:1039100080437B607B6800233B601E4A1D4B1B6C11
:1039200043F0805313641B4B1B6C03F080533B60CC
:103930003B680720FDF79EFB002200216FF00B0083
:10394000FDF7A3FB002200216FF00A00FDF79DFBAD
:10395000002200216FF00900FDF797FB00220021F3
:103960006FF00400FDF791FB002200216FF00300CF
:10397000FDF78BFB002200216FF00100FDF785FBB6
:10398000002200214FF0FF30FDF77FFB00BF08371A
:10399000BD4680BD0038024080B400AF00BFBD46C8
:1039A0005DF8047B704780B400AFFEE780B400AFE1
:1039B000FEE780B400AFFEE780B400AFFEE780B45E
:1039C00000AF00BFBD465DF8047B704780B400AF18
:1039D00000BFBD465DF8047B704780B400AF00BFF8
:1039E000BD465DF8047B704780B500AFFCF722FE52
:1039F000FDF79EFB00BF80BD80B500AF1020FEF735
:103A00000DF900BF80BD80B500AF2020FEF706F99C
:103A100000BF80BD80B500AF0248FDF715FD00BFB7
:103A200080BD00BF2801002080B500AF0248FDF72F
:103A30000BFD00BF80BD00BF4002002080B400AF7E
:103A4000164A164BD3F8883043F47003C2F8883016
:103A5000134A134B1B6843F001031360104B002201
:103A60009A600F4A0E4B1B6823F0847323F4803353
:103A700013600B4B0B4A5A60094A094B1B6823F42D
:103A800080231360064B0022DA60044B4FF0006283
:103A90009A6000BFBD465DF8047B704700ED00E012
:103AA000003802401030002480B582B000AF0223FD
:103AB0005B00184600F070FB03461A46244B1A6060
:103AC0000223184600F068FB03461A46214B1A6091
:103AD00002235B00184600F05FFB03461A461E4BAC
:103AE0001A601B4B1B68002B07D01A4B1B68002B5E
:103AF00003D0194B1B68002B04D1184800F052FF6B
:103B0000002321E00023FB7116E0114B1A68FB79BA
:103B10005B00134400221A800E4B1A68FB79134491
:103B200000221A700C4B1A68FB795B0013440022C8
:103B30001A80FB790133FB710222FB799342E4D3B3
:103B4000074800F02FFF012318460837BD4680BD07
:103B50003C0200203802002030020020104F0008F4
:103B60002C4F000880B500AF124B134A1A60114B5E
:103B70004FF4E1325A600F4B00229A600D4B002245
:103B8000DA600C4B00221A610A4B0C225A61094B75
:103B900000229A61074B0022DA610648FEF766FDB3
:103BA0000346002B03D045210448FFF743FE00BF26
:103BB00080BD00BFE002002000440040884F0008A4
:103BC00080B500AF124B134A1A60114B4FF4E1322B
:103BD0005A600F4B00229A600D4B0022DA600C4BAA
:103BE00000221A610A4B04225A61094B00229A6191
:103BF000074B0022DA610648FEF738FD0346002B2A
:103C000003D058210448FFF715FE00BF80BD00BF58
:103C1000A002002000140140884F000880B58AB03F
:103C200000AF78607B681B683C4A93421ED100233A
:103C30003B613B4A3A4B1B6C43F400331364384BF3
:103C40001B6C03F400333B613B690C237B61022353
:103C5000BB610123FB6103233B6207237B6207F106
:103C6000140319462F48FDF757FE53E07B681B6885
:103C70002D4A93424ED10023FB60294A284B5B6CAE
:103C800043F020035364264B5B6C03F02003FB607E
:103C9000FB68C0237B610223BB610123FB6103231B
:103CA0003B6208237B6207F1140319461F48FDF7A6
:103CB00033FE1F4B1F4A1A601D4B4FF020625A60A3
:103CC0001B4B00229A601A4B0022DA60184B4FF40B
:103CD00080621A61164B00225A61154B00229A61CC
:103CE000134B4FF48072DA61114B00221A62104BB1
:103CF00000225A620E48FDF729FA0346002B03D032
:103D000099210D48FFF796FD7B68094A5A63084AD6
:103D10007B68936300BF2837BD4680BD00440040E8
:103D20000038024000000240001401400008024038
:103D30004002002028640240884F0008DFF834D099
:103D4000002103E00C4B5B58435004310B480C4BF3
:103D500042189A42F6D30B4A02E0002342F8043B91
:103D6000094B9A42F9D3FFF769FE00F08DF9FFF78E
:103D700095FC704700800120605000080000002082
:103D8000740000207400002024030020FEE70000DF
:103D90008A892DE9F041054610070C465AD44B6834
:103DA000002B05DC0B6C002B02DC0020BDE8F08151
:103DB000E66A002EF9D0002312F480522F682B609F
:103DC00033D0606DA3895A0705D56368C01A636B49
:103DD0000BB1236CC01A00230246E66A216A28460A
:103DE000B047431CA38906D129681D294BD82B4A0B
:103DF000CA40D60747D500226260D90422692260F2
:103E000004D5421C01D12B6803B96065616B2F603A
:103E10000029CAD004F14403994202D0284600F098
:103E2000CBF900206063BDE8F081216A01232846B8
:103E3000B047411CC6D12B68002BC3D01D2B01D02D
:103E4000162B01D12F60B0E7A38943F04003A38173
:103E5000BDE8F0810F69002FA7D093070E6808BF57
:103E60004B690F6018BF0023A6EB07088B60B8F101
:103E7000000F9ADD43463A46216AA66A2846B047B3
:103E8000002807DCA38943F04003A3814FF0FF30F3
:103E9000BDE8F0810744A8EB0008E8E701004020F6
:103EA00038B50B6905460C46DBB118B183690BB90F
:103EB00000F060F80C4B9C4209D16C68B4F90C30EE
:103EC0007BB121462846BDE83840FFF761BF074B6C
:103ED0009C4201D1AC68F1E7054B9C4208BFEC68FD
:103EE000ECE7002038BD00BFD84F0008F84F0008AD
:103EF000B84F0008014900F0A9B800BFA13E000872
:103F0000002310B5044603604360836081814366EB
:103F1000C281036143618361194608225C3000F06D
:103F200043F9054B6362054BA362054BE362054B06
:103F30002462236310BD00BFD5490008F74900087B
:103F40002F4A0008534A000870B54A1E6825554399
:103F50000E4605F1740100F07DF9044640B10021E0
:103F600080E842000C30A06005F1680200F01CF906
:103F7000204670BD836910B5044633BB8364C364B7
:103F80000365124B124A1B688262984204BF0123E8
:103F9000836100F01FF86060204600F01BF8A0600D
:103FA000204600F017F80022E06004216068FFF767
:103FB000A7FF01220921A068FFF7A2FF0222122118
:103FC000E068FFF79DFF0123A36110BD18500008B2
:103FD000F53E0008F8B51C4B1E68B369074613B9D7
:103FE0003046FFF7C7FF4836B4687368013B03D516
:103FF000336833B13668F7E7B4F90C506DB1683403
:10400000F4E704213846FFF79FFF30600028F1D124
:104010000C233B6004462046F8BD4FF6FF73E38156
:104020000123A38165662560A560656025616561E2
:10403000A5610822294604F15C0000F0B5F865632B
:10404000A563A564E564E6E7185000082DE9F84388
:104050008046894600F14804002614B93046BDE880
:10406000F883A5686768013F01D52468F5E7AB8947
:10407000012B07D9B5F90E30013303D0294640464C
:10408000C84706436835EEE770B50D4E0D4CA41BCE
:10409000A4100025A54209D10B4E0C4C00F03EFEA9
:1040A000A41BA4100025A54205D170BD56F82530EB
:1040B00098470135EEE756F8253098470135F2E785
:1040C0005850000858500008585000085C5000082C
:1040D00070B50E46B1F90E10002990B014461D4679
:1040E00007DA00232B60B3891A0610D44FF48063DB
:1040F0000EE001AA00F094FD0028F2DB029A02F41F
:104100007042A2F500535A425A412A60EEE740231A
:104110000020236010B070BD8B8973B59D070646E3
:104120000C4607D504F14703236023610123636133
:1041300002B070BD01AB6A46FFF7CAFF00990546A1
:10414000304600F087F848B9B4F90C309A05EFD43E
:1041500023F0030343F00203A381E3E70D4BB362B3
:10416000A389206043F08003A381009B6361019BCE
:1041700020615BB1B4F90E10304600F063FD28B148
:10418000A38923F0030343F00103A381A3891D4303
:10419000A581CDE7F53E0008024B0146186800F006
:1041A00059B800BF1000002002440346934200D1DA
:1041B000704703F8011BF9E738B50546002945D0DB
:1041C00051F8043C0C1F002BB8BFE41800F05CFD54
:1041D0001F4A1368104633B9636014602846BDE86F
:1041E000384000F052BDA3420CD9216862189342B6
:1041F00004BF1A685B68636004BF521822600460E1
:10420000ECE713465A680AB1A242FAD9196858185D
:10421000A0420BD120680144581882421960DDD1B8
:10422000106852685A6001441960D7E702D90C231C
:104230002B60D3E7206821188A4204BF11685268B6
:10424000626004BF091821605C60C7E738BD00BF29
:10425000CC00002070B5CD1C25F0030508350C2DD1
:1042600038BF0C25002D064601DBA94203D90C23DB
:104270003360002070BD00F007FD234A146821461A
:1042800091B9224C23681BB9304600F093FB2060A3
:104290002946304600F08EFB431C26D10C233360A8
:1042A000304600F0F2FCE4E70B685B1B1AD40B2BE2
:1042B0000FD90B60CD50CC18304600F0E6FC04F16D
:1042C0000B00231D20F00700C31A1BD05A42E250F6
:1042D00070BD8C420DBF63684B686360136018BF8C
:1042E0000C46E9E70C464968CAE7C41C24F00304FD
:1042F000A04205D0211A304600F05CFB0130CDD041
:104300002560D9E770BD00BFCC000020D0000020A0
:104310009368013B002B10B4936009DA9469A342BF
:1043200002DBCBB20A2B03D15DF8044B00F096BB45
:104330001368581C10601970C8B25DF8044B7047C0
:10434000F8B506460F461446D518AC4201D10020F8
:1043500007E03A4614F8011B3046FFF7D9FF431C2B
:10436000F3D1F8BD2DE9F04F9DB00C4617460393ED
:10437000064618B183690BB9FFF7FCFD7C4B9C42E4
:1043800057D17468A38918075DD52369002B5AD0CB
:104390000023099320238DF8293030238DF82A300B
:1043A0004FF0010BB846454615F8013B002B55D19F
:1043B000B8EB070A0BD053463A4621463046FFF782
:1043C000BFFF013000F0C480099B5344099398F863
:1043D0000030002B00F0BC8000234FF0FF3204932C
:1043E0000793059206938DF853301A930522297886
:1043F0006048FBF7F5FE05F10108049B002831D168
:10440000D90644BF20228DF853201A0744BF2B221F
:104410008DF853202A782A2A2CD0079A00210A20C6
:10442000A846013598F80030303B092B6DD971B39F
:1044300026E0514B9C4201D1B468A3E74F4B9C420C
:1044400008BFF4689EE72146304600F06BFB002869
:104450009ED04FF0FF301DB0BDE8F08F252BA7D0C8
:10446000A846A0E7434A801A0BFA00F018430490CC
:104470004546BBE7039A111D12680391002A01DB30
:10448000079204E0524243F002030792049398F823
:1044900000302E2B10D198F801302A2B08F10101A1
:1044A00037D1039B1A1D1B680392002BB8BF4FF036
:1044B000FF3308F102080593314D98F800100322EC
:1044C0002846FBF78DFE40B14023401B03FA00F065
:1044D000049B0343049308F1010898F8001029484D
:1044E0008DF82810062208F10107FBF779FE002855
:1044F00034D0254B03BB039B073323F0070308335A
:104500000393099B4B4409934CE700FB02320121C2
:1045100086E70023059318460A258846013198F856
:104520000020303A092A03D9002BC5D00590C3E7F3
:1045300005FB00200123F0E703AB00932246134B59
:1045400004A93046AFF30080B0F1FF3F8146D8D1D7
:10455000A3895B063FF57DAF09987CE703AB009329
:1045600022460A4B04A9304600F088F8ECE700BF69
:10457000D84F00081C500008F84F0008B84F00083A
:1045800022500008265000080000000041430008A7
:104590002DE9F04791461F468A680B69DDF82080B7
:1045A0009342B8BF1346C9F8003091F8432006463D
:1045B0000C4612B10133C9F800302368990642BF96
:1045C000D9F800300233C9F80030256815F0060527
:1045D00007D104F1190AE368D9F800209B1A9D421B
:1045E00029DB94F843302268003318BF0123920678
:1045F0002ED404F1430239463046C047013021D061
:104600002368E568D9F8002003F00603042B08BFEF
:10461000AD1AA36822690CBF25EAE575002593420F
:10462000C4BF9B1AED184FF000091A344D451BD139
:104630000020BDE8F0870123524639463046C04786
:10464000013003D14FF0FF30BDE8F0870135C2E7FC
:10465000E1185A1C302081F84300224494F8451098
:1046600082F843100233C4E701232246394630461C
:10467000C0470130E6D009F10109D7E72DE9F04341
:1046800017460A7E85B06E2A984606460C460C9B55
:1046900001F1430E00F0BC801AD8632A2ED00AD84C
:1046A000002A00F0C880582A00F08A8004F14205F0
:1046B00084F842202AE0642A01D0692AF6D12168D0
:1046C0001A6811F0800F23D0111D1960136827E0BC
:1046D000732A00F0B48008D86F2A2AD0702AE5D156
:1046E0000A6842F020020A6003E0752A21D0782A85
:1046F000DCD1782284F845206E4964E01A6801F123
:104700004205111D1960136884F842300123A3E0AB
:1047100011F0400F02F104011960D7D0B2F9003056
:10472000002B03DA2D225B4284F8432062490A22DF
:1047300017E02068196810F0800F03D0081D18607A
:104740000B6806E010F0400F01F104001860F7D08C
:104750000B8859496F2A14BF0A220822002084F8C6
:1047600043006568A560002DC0F29C80206820F0A1
:1047700004002060002B3FD1002D40F0958075464D
:10478000082A0BD12368DA0708D5236962689A42A0
:10479000DEBF302305F8013C05F1FF35AEEB050324
:1047A0002361CDF800803B4603AA21463046FFF73F
:1047B000EFFE013055D14FF0FF3005B0BDE8F0837A
:1047C00081F845203C492268186812F0800F00F1FA
:1047D00004051D6001D0036802E05506FBD503887F
:1047E000D00744BF42F0200222601BB9226822F0A9
:1047F000200222601022B1E77546B3FBF2F002FB03
:104800001033CB5C05F8013D03460028F5D1B7E72E
:1048100008681A68496910F0800F04D0101D1860EC
:104820001368196007E010F0400F02F104001860EF
:104830001368F6D01980002323617546B1E71A6822
:10484000111D19601568626800212846FBF7C8FC35
:1048500008B1401B606063682361002384F8433023
:104860009FE723692A4639463046C0470130A2D027
:1048700023689B0707D5002504F11909E368039A0B
:104880009B1A9D4205DBE068039B9842B8BF18461F
:1048900093E701234A4639463046C04701308AD063
:1048A0000135EBE7002BA7D10B7884F8423004F1F7
:1048B000420565E73E5000082D5000080FB40A4B32
:1048C00013B51C6824B1A36913B92046FFF752FB46
:1048D00005AB049AA16801932046FFF743FD02B09F
:1048E000BDE8104004B070471000002070B50E46BF
:1048F000054618B183690BB9FFF73CFBAB69AC689F
:1049000013B92846FFF736FB234B9C4217D16C683E
:10491000A3891B071DD52369DBB1013EA36816F8E7
:10492000011F013BA360E9B9002B2EDA22460A21C0
:10493000284600F093F8013011D00A2070BD174BC3
:104940009C4201D1AC68E3E7154B9C4208BFEC6880
:10495000DEE72146284600F0E5F80028DDD04FF0DC
:10496000FF3070BD002B04DAA269934206DB0A29EE
:1049700004D023685A1C22601970CFE722462846CB
:1049800000F06CF80130C9D1E9E723680A205A1C0D
:104990002260187070BD00BFD84F0008F84F0008A3
:1049A000B84F0008024B01461868FFF79FBF00BFD1
:1049B0001000002038B5064C002305460846236049
:1049C00000F09EF9431C02D1236803B12B6038BD6F
:1049D0002003002010B50C46B1F90E1000F056F976
:1049E0000028ABBF636DA3891B1823F48053ACBFB1
:1049F0006365A38110BD2DE9F0411F468B89DB055E
:104A000005460C46164605D502230022B1F90E10C4
:104A100000F028F9A389B4F90E1023F48053A38180
:104A200032463B462846BDE8F04100F069B810B573
:104A30000C46B1F90E1000F015F9431CA38915BFFF
:104A4000606523F4805343F48053A38118BFA3818E
:104A500010BDB1F90E1000F0D3B80000F8B50E4645
:104A60001446054618B183690BB9FFF783FA214B49
:104A70009C422AD16C68A369A360A3891A072ED52A
:104A8000236963B323692068C01A6369F6B2984248
:104A9000374604DB21462846FFF702FA28BBA36805
:104AA000013BA36023685A1C22601E7063690130B9
:104AB000984204D0A389DB0719D50A2E17D12146C5
:104AC0002846FFF7EDF990B10FE00B4B9C4201D166
:104AD000AC68D0E7094B9C4208BFEC68CBE72146A5
:104AE000284600F01FF80028CCD04FF0FF3738469A
:104AF000F8BD00BFD84F0008F84F0008B84F0008B5
:104B000038B5074C054608461146002222601A4671
:104B1000FEF79AFD431C02D1236803B12B6038BD18
:104B200020030020324B70B51D6806460C4625B1A7
:104B3000AB6913B92846FFF71DFA2E4B9C420FD1E3
:104B40006C68B4F90C309AB215072CD4D00611D485
:104B50000922326043F04003A3814FF0FF3070BD63
:104B6000254B9C4201D1AC68EBE7244B9C4208BF2B
:104B7000EC68E6E7510712D5616B41B104F14403DB
:104B8000994202D03046FFF717FB00236363A389E5
:104B900023F02403A3810023636023692360A38996
:104BA00043F00803A38123694BB9A38903F420735D
:104BB000B3F5007F03D021463046FFF7ADFAA28956
:104BC00012F001030CD00023A36063695B42A36170
:104BD000236953B9B4F90C3013F08000BAD170BD19
:104BE000920758BF6369A360F2E70020F7E700BFB0
:104BF00010000020D84F0008F84F0008B84F0008F8
:104C000038B5064C002305460846236000F050F8EE
:104C1000431C02D1236803B12B6038BD2003002060
:104C200038B5074C0023054608461146236000F0BE
:104C300047F8431C02D1236803B12B6038BD00BF85
:104C40002003002038B5064C0023054608462360A3
:104C500000F03EF8431C02D1236803B12B6038BD3D
:104C60002003002038B5074C0546084611460022AF
:104C700022601A4600F034F8431C02D1236803B1C5
:104C80002B6038BD200300207047704738B5074CB3
:104C9000054608461146002222601A4600F028F810
:104CA000431C02D1236803B12B6038BD20030020D0
:104CB000024B58221A604FF0FF307047200300204B
:104CC000024B58221A604FF0FF307047200300203B
:104CD000024B58221A600020704700BF20030020BA
:104CE000024B58221A604FF0FF307047200300201B
:104CF000024B58221A604FF0FF307047200300200B
:104D0000044B1968024609B903491960186802443E
:104D10001A607047D400002024030020F8B500BFBB
:104D2000F8BC08BC9E467047F8B500BFF8BC08BC8C
:044D30009E467047E4
:104D34006C69646172206D616C6C6F63206661697B
:104D44006C65640D000000006C69646172206D6123
:104D54006C6C6F63207375636365656465640D00D3
:104D64006C69646172206D656D6F72792069736E10
:104D7400277420696E6974696C697A65640D000032
:104D84006C6964617220667265652073756363651E
:104D9400656465640D00000072656164696E672076
:104DA4006C696461722064617461202D206661699C
:104DB4006C65640D0000000072656164696E6720B3
:104DC4006C696461722064617461202D206661697C
:104DD4006C6564320D00000072656164696E672061
:104DE4006C696461722064617461202D2073756341
:104DF4006365737366756C0D000000002E2E5C53A2
:104E040072635C6164632E63000000002E2E5C53A9
:104E140072635C6932632E630000000050726F6736
:104E240072616D20686173206265656E20737461C0
:104E3400727465640D0000005053442076616C75F3
:104E440065733A2025642C2025642C2025640D0AE2
:104E5400000000004C494441522076616C75653A6B
:104E640020256420636D0D0A00000000564C353384
:104E74004C30582076616C75653A202564206D6D40
:104E84000D0A0000564C35334C31582076616C7550
:104E9400653A202564206D6D0D0A00002E2E5C53AA
:104EA40072635C6D61696E2E630000007073642030
:104EB4006D616C6C6F63206661696C65640D0000E4
:104EC400707364206D616C6C6F63207375636365CC
:104ED400656465640D000000707364206D656D6F1A
:104EE40072792069736E277420696E6974696C69BC
:104EF4007A65640D00000000707364206672656555
:104F0400207375636365656465640D0073746F7005
:104F14007761746368206D616C6C6F63206661698E
:104F24006C65640D0000000073746F7077617463C6
:104F340068206D616C6C6F63207375636365656471
:104F440065640D0073746F707761746368206D65B8
:104F54006D6F72792069736E277420696E69746944
:104F64006C697A65640D000073746F7077617463A3
:104F7400682066726565207375636365656465643E
:104F84000D0000002E2E5C5372635C7573617274A5
:104F94002E63000000061016000610160000000024
:104FA40000000000010203040607080900000000D5
:104FB40001020304000000000000000000000000E3
:104FC40000000000000000000000000000000000DD
:104FD40000000000000000000000000000000000CD
:104FE40000000000000000000000000000000000BD
:104FF40000000000000000000000000000000000AD
:10500400000000000000000000000000000000009C
:105014000000000014000020232D302B2000686CB9
:105024004C006566674546470030313233343536C7
:105034003738394142434445460030313233343500
:0C5044003637383961626364656600002D
:0850500060B2FF7F01000000C7
:04505800C501000886
:04505C00A1010008A6
:105060001000000001000000090000000024F4000E
:105070001400002000000000D84F0008F84F00087E
:10508000B84F000800000000000000000000000011
:105090000000000000000000000000000000000010
:1050A0000000000000000000000000000000000000
:1050B00000000000000000000000000000000000F0
:1050C00000000000000000000000000000000000E0
:0450D00000000000DC
:0400000508003D3D75
:00000001FF
